{
  "_format": "hh-sol-artifact-1",
  "contractName": "Waifus",
  "sourceName": "contracts/Waifus.sol",
  "abi": [
    {
      "inputs": [
        {
          "internalType": "address",
          "name": "seductionsAddr",
          "type": "address"
        }
      ],
      "stateMutability": "nonpayable",
      "type": "constructor"
    },
    {
      "anonymous": false,
      "inputs": [
        {
          "indexed": true,
          "internalType": "address",
          "name": "owner",
          "type": "address"
        },
        {
          "indexed": true,
          "internalType": "address",
          "name": "approved",
          "type": "address"
        },
        {
          "indexed": true,
          "internalType": "uint256",
          "name": "tokenId",
          "type": "uint256"
        }
      ],
      "name": "Approval",
      "type": "event"
    },
    {
      "anonymous": false,
      "inputs": [
        {
          "indexed": true,
          "internalType": "address",
          "name": "owner",
          "type": "address"
        },
        {
          "indexed": true,
          "internalType": "address",
          "name": "operator",
          "type": "address"
        },
        {
          "indexed": false,
          "internalType": "bool",
          "name": "approved",
          "type": "bool"
        }
      ],
      "name": "ApprovalForAll",
      "type": "event"
    },
    {
      "anonymous": false,
      "inputs": [
        {
          "indexed": true,
          "internalType": "address",
          "name": "previousOwner",
          "type": "address"
        },
        {
          "indexed": true,
          "internalType": "address",
          "name": "newOwner",
          "type": "address"
        }
      ],
      "name": "OwnershipTransferred",
      "type": "event"
    },
    {
      "anonymous": false,
      "inputs": [
        {
          "indexed": true,
          "internalType": "address",
          "name": "from",
          "type": "address"
        },
        {
          "indexed": true,
          "internalType": "address",
          "name": "to",
          "type": "address"
        },
        {
          "indexed": true,
          "internalType": "uint256",
          "name": "tokenId",
          "type": "uint256"
        }
      ],
      "name": "Transfer",
      "type": "event"
    },
    {
      "inputs": [],
      "name": "MAX_WAIFUS",
      "outputs": [
        {
          "internalType": "uint256",
          "name": "",
          "type": "uint256"
        }
      ],
      "stateMutability": "view",
      "type": "function"
    },
    {
      "inputs": [
        {
          "internalType": "address",
          "name": "to",
          "type": "address"
        },
        {
          "internalType": "uint256",
          "name": "tokenId",
          "type": "uint256"
        }
      ],
      "name": "approve",
      "outputs": [],
      "stateMutability": "nonpayable",
      "type": "function"
    },
    {
      "inputs": [
        {
          "internalType": "address",
          "name": "owner",
          "type": "address"
        }
      ],
      "name": "balanceOf",
      "outputs": [
        {
          "internalType": "uint256",
          "name": "",
          "type": "uint256"
        }
      ],
      "stateMutability": "view",
      "type": "function"
    },
    {
      "inputs": [
        {
          "internalType": "uint256",
          "name": "tokenId",
          "type": "uint256"
        }
      ],
      "name": "burn",
      "outputs": [],
      "stateMutability": "nonpayable",
      "type": "function"
    },
    {
      "inputs": [
        {
          "internalType": "uint256",
          "name": "tokenId",
          "type": "uint256"
        }
      ],
      "name": "getApproved",
      "outputs": [
        {
          "internalType": "address",
          "name": "",
          "type": "address"
        }
      ],
      "stateMutability": "view",
      "type": "function"
    },
    {
      "inputs": [
        {
          "internalType": "address",
          "name": "owner",
          "type": "address"
        },
        {
          "internalType": "address",
          "name": "operator",
          "type": "address"
        }
      ],
      "name": "isApprovedForAll",
      "outputs": [
        {
          "internalType": "bool",
          "name": "",
          "type": "bool"
        }
      ],
      "stateMutability": "view",
      "type": "function"
    },
    {
      "inputs": [],
      "name": "mintActive",
      "outputs": [
        {
          "internalType": "bool",
          "name": "",
          "type": "bool"
        }
      ],
      "stateMutability": "view",
      "type": "function"
    },
    {
      "inputs": [
        {
          "internalType": "address",
          "name": "recipient",
          "type": "address"
        },
        {
          "internalType": "string",
          "name": "tokenURI",
          "type": "string"
        },
        {
          "internalType": "uint256",
          "name": "trait",
          "type": "uint256"
        }
      ],
      "name": "mintWaifus",
      "outputs": [
        {
          "internalType": "uint256",
          "name": "",
          "type": "uint256"
        }
      ],
      "stateMutability": "nonpayable",
      "type": "function"
    },
    {
      "inputs": [],
      "name": "name",
      "outputs": [
        {
          "internalType": "string",
          "name": "",
          "type": "string"
        }
      ],
      "stateMutability": "view",
      "type": "function"
    },
    {
      "inputs": [],
      "name": "owner",
      "outputs": [
        {
          "internalType": "address",
          "name": "",
          "type": "address"
        }
      ],
      "stateMutability": "view",
      "type": "function"
    },
    {
      "inputs": [
        {
          "internalType": "uint256",
          "name": "tokenId",
          "type": "uint256"
        }
      ],
      "name": "ownerOf",
      "outputs": [
        {
          "internalType": "address",
          "name": "",
          "type": "address"
        }
      ],
      "stateMutability": "view",
      "type": "function"
    },
    {
      "inputs": [],
      "name": "renounceOwnership",
      "outputs": [],
      "stateMutability": "nonpayable",
      "type": "function"
    },
    {
      "inputs": [
        {
          "internalType": "address",
          "name": "from",
          "type": "address"
        },
        {
          "internalType": "address",
          "name": "to",
          "type": "address"
        },
        {
          "internalType": "uint256",
          "name": "tokenId",
          "type": "uint256"
        }
      ],
      "name": "safeTransferFrom",
      "outputs": [],
      "stateMutability": "nonpayable",
      "type": "function"
    },
    {
      "inputs": [
        {
          "internalType": "address",
          "name": "from",
          "type": "address"
        },
        {
          "internalType": "address",
          "name": "to",
          "type": "address"
        },
        {
          "internalType": "uint256",
          "name": "tokenId",
          "type": "uint256"
        },
        {
          "internalType": "bytes",
          "name": "_data",
          "type": "bytes"
        }
      ],
      "name": "safeTransferFrom",
      "outputs": [],
      "stateMutability": "nonpayable",
      "type": "function"
    },
    {
      "inputs": [
        {
          "internalType": "uint256",
          "name": "tokenId",
          "type": "uint256"
        },
        {
          "internalType": "uint256[]",
          "name": "sdtIds",
          "type": "uint256[]"
        }
      ],
      "name": "sale",
      "outputs": [],
      "stateMutability": "nonpayable",
      "type": "function"
    },
    {
      "inputs": [],
      "name": "saleActive",
      "outputs": [
        {
          "internalType": "bool",
          "name": "",
          "type": "bool"
        }
      ],
      "stateMutability": "view",
      "type": "function"
    },
    {
      "inputs": [
        {
          "internalType": "address",
          "name": "operator",
          "type": "address"
        },
        {
          "internalType": "bool",
          "name": "approved",
          "type": "bool"
        }
      ],
      "name": "setApprovalForAll",
      "outputs": [],
      "stateMutability": "nonpayable",
      "type": "function"
    },
    {
      "inputs": [
        {
          "internalType": "bool",
          "name": "_active",
          "type": "bool"
        }
      ],
      "name": "setMintActive",
      "outputs": [],
      "stateMutability": "nonpayable",
      "type": "function"
    },
    {
      "inputs": [
        {
          "internalType": "bool",
          "name": "_active",
          "type": "bool"
        }
      ],
      "name": "setSaleActive",
      "outputs": [],
      "stateMutability": "nonpayable",
      "type": "function"
    },
    {
      "inputs": [
        {
          "internalType": "bytes4",
          "name": "interfaceId",
          "type": "bytes4"
        }
      ],
      "name": "supportsInterface",
      "outputs": [
        {
          "internalType": "bool",
          "name": "",
          "type": "bool"
        }
      ],
      "stateMutability": "view",
      "type": "function"
    },
    {
      "inputs": [],
      "name": "symbol",
      "outputs": [
        {
          "internalType": "string",
          "name": "",
          "type": "string"
        }
      ],
      "stateMutability": "view",
      "type": "function"
    },
    {
      "inputs": [],
      "name": "tokenSupply",
      "outputs": [
        {
          "internalType": "uint256",
          "name": "_value",
          "type": "uint256"
        }
      ],
      "stateMutability": "view",
      "type": "function"
    },
    {
      "inputs": [
        {
          "internalType": "uint256",
          "name": "tokenId",
          "type": "uint256"
        }
      ],
      "name": "tokenURI",
      "outputs": [
        {
          "internalType": "string",
          "name": "",
          "type": "string"
        }
      ],
      "stateMutability": "view",
      "type": "function"
    },
    {
      "inputs": [
        {
          "internalType": "address",
          "name": "from",
          "type": "address"
        },
        {
          "internalType": "address",
          "name": "to",
          "type": "address"
        },
        {
          "internalType": "uint256",
          "name": "tokenId",
          "type": "uint256"
        }
      ],
      "name": "transferFrom",
      "outputs": [],
      "stateMutability": "nonpayable",
      "type": "function"
    },
    {
      "inputs": [
        {
          "internalType": "address",
          "name": "newOwner",
          "type": "address"
        }
      ],
      "name": "transferOwnership",
      "outputs": [],
      "stateMutability": "nonpayable",
      "type": "function"
    }
  ],
  "bytecode": "0x60806040526001600a60006101000a81548160ff0219169083151502179055506000600a60016101000a81548160ff0219169083151502179055503480156200004757600080fd5b50604051620046423803806200464283398181016040528101906200006d919062000312565b6040518060400160405280600681526020017f57616966757300000000000000000000000000000000000000000000000000008152506040518060400160405280600381526020017f57465300000000000000000000000000000000000000000000000000000000008152508160009080519060200190620000f19291906200024b565b5080600190805190602001906200010a9291906200024b565b5050506200012d620001216200017d60201b60201c565b6200018560201b60201c565b600160088190555080600c60006101000a81548173ffffffffffffffffffffffffffffffffffffffff021916908373ffffffffffffffffffffffffffffffffffffffff16021790555050620003f1565b600033905090565b6000600760009054906101000a900473ffffffffffffffffffffffffffffffffffffffff16905081600760006101000a81548173ffffffffffffffffffffffffffffffffffffffff021916908373ffffffffffffffffffffffffffffffffffffffff1602179055508173ffffffffffffffffffffffffffffffffffffffff168173ffffffffffffffffffffffffffffffffffffffff167f8be0079c531659141344cd1fd0a4f28419497f9722a3daafe3b4186f6b6457e060405160405180910390a35050565b828054620002599062000372565b90600052602060002090601f0160209004810192826200027d5760008555620002c9565b82601f106200029857805160ff1916838001178555620002c9565b82800160010185558215620002c9579182015b82811115620002c8578251825591602001919060010190620002ab565b5b509050620002d89190620002dc565b5090565b5b80821115620002f7576000816000905550600101620002dd565b5090565b6000815190506200030c81620003d7565b92915050565b6000602082840312156200032557600080fd5b60006200033584828501620002fb565b91505092915050565b60006200034b8262000352565b9050919050565b600073ffffffffffffffffffffffffffffffffffffffff82169050919050565b600060028204905060018216806200038b57607f821691505b60208210811415620003a257620003a1620003a8565b5b50919050565b7f4e487b7100000000000000000000000000000000000000000000000000000000600052602260045260246000fd5b620003e2816200033e565b8114620003ee57600080fd5b50565b61424180620004016000396000f3fe608060405234801561001057600080fd5b50600436106101735760003560e01c806370a08231116100de578063a22cb46511610097578063c87b56dd11610071578063c87b56dd14610424578063e985e9c514610454578063ee1cc94414610484578063f2fde38b146104a057610173565b8063a22cb465146103d0578063b88d4fde146103ec578063b8b0e6e11461040857610173565b806370a0823114610320578063715018a6146103505780637824407f1461035a578063841718a6146103785780638da5cb5b1461039457806395d89b41146103b257610173565b806334f407c91161013057806334f407c91461024c57806342842e0e1461027c57806342966c6814610298578063627a01ec146102b45780636352211e146102d257806368428a1b1461030257610173565b806301ffc9a71461017857806306fdde03146101a8578063081812fc146101c6578063095ea7b3146101f657806323b872dd1461021257806325fd90f31461022e575b600080fd5b610192600480360381019061018d9190612d75565b6104bc565b60405161019f9190613356565b60405180910390f35b6101b061059e565b6040516101bd9190613371565b60405180910390f35b6101e060048036038101906101db9190612dc7565b610630565b6040516101ed91906132ef565b60405180910390f35b610210600480360381019061020b9190612d10565b6106b5565b005b61022c60048036038101906102279190612ba3565b6107cd565b005b61023661082d565b6040516102439190613356565b60405180910390f35b61026660048036038101906102619190612ca9565b610840565b60405161027391906136d3565b60405180910390f35b61029660048036038101906102919190612ba3565b610a13565b005b6102b260048036038101906102ad9190612dc7565b610a33565b005b6102bc610a8f565b6040516102c991906136d3565b60405180910390f35b6102ec60048036038101906102e79190612dc7565b610a95565b6040516102f991906132ef565b60405180910390f35b61030a610b47565b6040516103179190613356565b60405180910390f35b61033a60048036038101906103359190612b15565b610b5a565b60405161034791906136d3565b60405180910390f35b610358610c12565b005b610362610c9a565b60405161036f91906136d3565b60405180910390f35b610392600480360381019061038d9190612d4c565b610ca6565b005b61039c610d3f565b6040516103a991906132ef565b60405180910390f35b6103ba610d69565b6040516103c79190613371565b60405180910390f35b6103ea60048036038101906103e59190612c6d565b610dfb565b005b61040660048036038101906104019190612bf2565b610e11565b005b610422600480360381019061041d9190612e19565b610e73565b005b61043e60048036038101906104399190612dc7565b61132c565b60405161044b9190613371565b60405180910390f35b61046e60048036038101906104699190612b67565b61147e565b60405161047b9190613356565b60405180910390f35b61049e60048036038101906104999190612d4c565b611512565b005b6104ba60048036038101906104b59190612b15565b6115ab565b005b60007f80ac58cd000000000000000000000000000000000000000000000000000000007bffffffffffffffffffffffffffffffffffffffffffffffffffffffff1916827bffffffffffffffffffffffffffffffffffffffffffffffffffffffff1916148061058757507f5b5e139f000000000000000000000000000000000000000000000000000000007bffffffffffffffffffffffffffffffffffffffffffffffffffffffff1916827bffffffffffffffffffffffffffffffffffffffffffffffffffffffff1916145b806105975750610596826116a3565b5b9050919050565b6060600080546105ad90613955565b80601f01602080910402602001604051908101604052809291908181526020018280546105d990613955565b80156106265780601f106105fb57610100808354040283529160200191610626565b820191906000526020600020905b81548152906001019060200180831161060957829003601f168201915b5050505050905090565b600061063b8261170d565b61067a576040517f08c379a000000000000000000000000000000000000000000000000000000000815260040161067190613593565b60405180910390fd5b6004600083815260200190815260200160002060009054906101000a900473ffffffffffffffffffffffffffffffffffffffff169050919050565b60006106c082610a95565b90508073ffffffffffffffffffffffffffffffffffffffff168373ffffffffffffffffffffffffffffffffffffffff161415610731576040517f08c379a000000000000000000000000000000000000000000000000000000000815260040161072890613613565b60405180910390fd5b8073ffffffffffffffffffffffffffffffffffffffff16610750611779565b73ffffffffffffffffffffffffffffffffffffffff16148061077f575061077e81610779611779565b61147e565b5b6107be576040517f08c379a00000000000000000000000000000000000000000000000000000000081526004016107b5906134b3565b60405180910390fd5b6107c88383611781565b505050565b6107de6107d8611779565b8261183a565b61081d576040517f08c379a000000000000000000000000000000000000000000000000000000000815260040161081490613633565b60405180910390fd5b610828838383611918565b505050565b600a60009054906101000a900460ff1681565b600061084a611779565b73ffffffffffffffffffffffffffffffffffffffff16610868610d3f565b73ffffffffffffffffffffffffffffffffffffffff16146108be576040517f08c379a00000000000000000000000000000000000000000000000000000000081526004016108b5906135b3565b60405180910390fd5b60026008541415610904576040517f08c379a00000000000000000000000000000000000000000000000000000000081526004016108fb90613693565b60405180910390fd5b6002600881905550600a60009054906101000a900460ff1661095b576040517f08c379a000000000000000000000000000000000000000000000000000000000815260040161095290613393565b60405180910390fd5b61014d61097b600161096d6009611b7f565b611b8d90919063ffffffff16565b11156109bc576040517f08c379a00000000000000000000000000000000000000000000000000000000081526004016109b390613533565b60405180910390fd5b6109c66009611ba3565b60006109d26009611b7f565b90506109de8582611bb9565b6109e88185611bd7565b82600b6000838152602001908152602001600020819055508091505060016008819055509392505050565b610a2e83838360405180602001604052806000815250610e11565b505050565b610a44610a3e611779565b8261183a565b610a83576040517f08c379a0000000000000000000000000000000000000000000000000000000008152600401610a7a906136b3565b60405180910390fd5b610a8c81611c4b565b50565b61014d81565b6000806002600084815260200190815260200160002060009054906101000a900473ffffffffffffffffffffffffffffffffffffffff169050600073ffffffffffffffffffffffffffffffffffffffff168173ffffffffffffffffffffffffffffffffffffffff161415610b3e576040517f08c379a0000000000000000000000000000000000000000000000000000000008152600401610b35906134f3565b60405180910390fd5b80915050919050565b600a60019054906101000a900460ff1681565b60008073ffffffffffffffffffffffffffffffffffffffff168273ffffffffffffffffffffffffffffffffffffffff161415610bcb576040517f08c379a0000000000000000000000000000000000000000000000000000000008152600401610bc2906134d3565b60405180910390fd5b600360008373ffffffffffffffffffffffffffffffffffffffff1673ffffffffffffffffffffffffffffffffffffffff168152602001908152602001600020549050919050565b610c1a611779565b73ffffffffffffffffffffffffffffffffffffffff16610c38610d3f565b73ffffffffffffffffffffffffffffffffffffffff1614610c8e576040517f08c379a0000000000000000000000000000000000000000000000000000000008152600401610c85906135b3565b60405180910390fd5b610c986000611c9e565b565b60098060000154905081565b610cae611779565b73ffffffffffffffffffffffffffffffffffffffff16610ccc610d3f565b73ffffffffffffffffffffffffffffffffffffffff1614610d22576040517f08c379a0000000000000000000000000000000000000000000000000000000008152600401610d19906135b3565b60405180910390fd5b80600a60016101000a81548160ff02191690831515021790555050565b6000600760009054906101000a900473ffffffffffffffffffffffffffffffffffffffff16905090565b606060018054610d7890613955565b80601f0160208091040260200160405190810160405280929190818152602001828054610da490613955565b8015610df15780601f10610dc657610100808354040283529160200191610df1565b820191906000526020600020905b815481529060010190602001808311610dd457829003601f168201915b5050505050905090565b610e0d610e06611779565b8383611d64565b5050565b610e22610e1c611779565b8361183a565b610e61576040517f08c379a0000000000000000000000000000000000000000000000000000000008152600401610e5890613633565b60405180910390fd5b610e6d84848484611ed1565b50505050565b60026008541415610eb9576040517f08c379a0000000000000000000000000000000000000000000000000000000008152600401610eb090613693565b60405180910390fd5b6002600881905550600a60019054906101000a900460ff16610f10576040517f08c379a0000000000000000000000000000000000000000000000000000000008152600401610f07906135f3565b60405180910390fd5b610f18610d3f565b73ffffffffffffffffffffffffffffffffffffffff16610f3783610a95565b73ffffffffffffffffffffffffffffffffffffffff1614610f8d576040517f08c379a0000000000000000000000000000000000000000000000000000000008152600401610f8490613653565b60405180910390fd5b6000600b600084815260200190815260200160002054905060005b60038110156112185781600c60009054906101000a900473ffffffffffffffffffffffffffffffffffffffff1673ffffffffffffffffffffffffffffffffffffffff16638b67d47d858481518110611029577f4e487b7100000000000000000000000000000000000000000000000000000000600052603260045260246000fd5b60200260200101516040518263ffffffff1660e01b815260040161104d91906136d3565b60206040518083038186803b15801561106557600080fd5b505afa158015611079573d6000803e3d6000fd5b505050506040513d601f19601f8201168201806040525081019061109d9190612df0565b1480156111c657506110ad611779565b73ffffffffffffffffffffffffffffffffffffffff16600c60009054906101000a900473ffffffffffffffffffffffffffffffffffffffff1673ffffffffffffffffffffffffffffffffffffffff16636352211e85848151811061113a577f4e487b7100000000000000000000000000000000000000000000000000000000600052603260045260246000fd5b60200260200101516040518263ffffffff1660e01b815260040161115e91906136d3565b60206040518083038186803b15801561117657600080fd5b505afa15801561118a573d6000803e3d6000fd5b505050506040513d601f19601f820116820180604052508101906111ae9190612b3e565b73ffffffffffffffffffffffffffffffffffffffff16145b611205576040517f08c379a00000000000000000000000000000000000000000000000000000000081526004016111fc90613473565b60405180910390fd5b8080611210906139b8565b915050610fa8565b5060005b600381101561130557600c60009054906101000a900473ffffffffffffffffffffffffffffffffffffffff1673ffffffffffffffffffffffffffffffffffffffff166342966c6884838151811061129c577f4e487b7100000000000000000000000000000000000000000000000000000000600052603260045260246000fd5b60200260200101516040518263ffffffff1660e01b81526004016112c091906136d3565b600060405180830381600087803b1580156112da57600080fd5b505af11580156112ee573d6000803e3d6000fd5b5050505080806112fd906139b8565b91505061121c565b5061131f611311610d3f565b611319611779565b85610a13565b5060016008819055505050565b60606113378261170d565b611376576040517f08c379a000000000000000000000000000000000000000000000000000000000815260040161136d90613573565b60405180910390fd5b600060066000848152602001908152602001600020805461139690613955565b80601f01602080910402602001604051908101604052809291908181526020018280546113c290613955565b801561140f5780601f106113e45761010080835404028352916020019161140f565b820191906000526020600020905b8154815290600101906020018083116113f257829003601f168201915b505050505090506000611420611f2d565b9050600081511415611436578192505050611479565b60008251111561146b5780826040516020016114539291906132cb565b60405160208183030381529060405292505050611479565b61147484611f44565b925050505b919050565b6000600560008473ffffffffffffffffffffffffffffffffffffffff1673ffffffffffffffffffffffffffffffffffffffff16815260200190815260200160002060008373ffffffffffffffffffffffffffffffffffffffff1673ffffffffffffffffffffffffffffffffffffffff16815260200190815260200160002060009054906101000a900460ff16905092915050565b61151a611779565b73ffffffffffffffffffffffffffffffffffffffff16611538610d3f565b73ffffffffffffffffffffffffffffffffffffffff161461158e576040517f08c379a0000000000000000000000000000000000000000000000000000000008152600401611585906135b3565b60405180910390fd5b80600a60006101000a81548160ff02191690831515021790555050565b6115b3611779565b73ffffffffffffffffffffffffffffffffffffffff166115d1610d3f565b73ffffffffffffffffffffffffffffffffffffffff1614611627576040517f08c379a000000000000000000000000000000000000000000000000000000000815260040161161e906135b3565b60405180910390fd5b600073ffffffffffffffffffffffffffffffffffffffff168173ffffffffffffffffffffffffffffffffffffffff161415611697576040517f08c379a000000000000000000000000000000000000000000000000000000000815260040161168e906133d3565b60405180910390fd5b6116a081611c9e565b50565b60007f01ffc9a7000000000000000000000000000000000000000000000000000000007bffffffffffffffffffffffffffffffffffffffffffffffffffffffff1916827bffffffffffffffffffffffffffffffffffffffffffffffffffffffff1916149050919050565b60008073ffffffffffffffffffffffffffffffffffffffff166002600084815260200190815260200160002060009054906101000a900473ffffffffffffffffffffffffffffffffffffffff1673ffffffffffffffffffffffffffffffffffffffff1614159050919050565b600033905090565b816004600083815260200190815260200160002060006101000a81548173ffffffffffffffffffffffffffffffffffffffff021916908373ffffffffffffffffffffffffffffffffffffffff160217905550808273ffffffffffffffffffffffffffffffffffffffff166117f483610a95565b73ffffffffffffffffffffffffffffffffffffffff167f8c5be1e5ebec7d5bd14f71427d1e84f3dd0314c0f7b2291e5b200ac8c7c3b92560405160405180910390a45050565b60006118458261170d565b611884576040517f08c379a000000000000000000000000000000000000000000000000000000000815260040161187b90613493565b60405180910390fd5b600061188f83610a95565b90508073ffffffffffffffffffffffffffffffffffffffff168473ffffffffffffffffffffffffffffffffffffffff1614806118fe57508373ffffffffffffffffffffffffffffffffffffffff166118e684610630565b73ffffffffffffffffffffffffffffffffffffffff16145b8061190f575061190e818561147e565b5b91505092915050565b8273ffffffffffffffffffffffffffffffffffffffff1661193882610a95565b73ffffffffffffffffffffffffffffffffffffffff161461198e576040517f08c379a0000000000000000000000000000000000000000000000000000000008152600401611985906133f3565b60405180910390fd5b600073ffffffffffffffffffffffffffffffffffffffff168273ffffffffffffffffffffffffffffffffffffffff1614156119fe576040517f08c379a00000000000000000000000000000000000000000000000000000000081526004016119f590613433565b60405180910390fd5b611a09838383611feb565b611a14600082611781565b6001600360008573ffffffffffffffffffffffffffffffffffffffff1673ffffffffffffffffffffffffffffffffffffffff1681526020019081526020016000206000828254611a64919061386b565b925050819055506001600360008473ffffffffffffffffffffffffffffffffffffffff1673ffffffffffffffffffffffffffffffffffffffff1681526020019081526020016000206000828254611abb91906137e4565b92505081905550816002600083815260200190815260200160002060006101000a81548173ffffffffffffffffffffffffffffffffffffffff021916908373ffffffffffffffffffffffffffffffffffffffff160217905550808273ffffffffffffffffffffffffffffffffffffffff168473ffffffffffffffffffffffffffffffffffffffff167fddf252ad1be2c89b69c2b068fc378daa952ba7f163c4a11628f55a4df523b3ef60405160405180910390a4611b7a83838361217b565b505050565b600081600001549050919050565b60008183611b9b91906137e4565b905092915050565b6001816000016000828254019250508190555050565b611bd3828260405180602001604052806000815250612180565b5050565b611be08261170d565b611c1f576040517f08c379a0000000000000000000000000000000000000000000000000000000008152600401611c1690613513565b60405180910390fd5b80600660008481526020019081526020016000209080519060200190611c46929190612839565b505050565b611c54816121db565b6000600660008381526020019081526020016000208054611c7490613955565b905014611c9b57600660008281526020019081526020016000206000611c9a91906128bf565b5b50565b6000600760009054906101000a900473ffffffffffffffffffffffffffffffffffffffff16905081600760006101000a81548173ffffffffffffffffffffffffffffffffffffffff021916908373ffffffffffffffffffffffffffffffffffffffff1602179055508173ffffffffffffffffffffffffffffffffffffffff168173ffffffffffffffffffffffffffffffffffffffff167f8be0079c531659141344cd1fd0a4f28419497f9722a3daafe3b4186f6b6457e060405160405180910390a35050565b8173ffffffffffffffffffffffffffffffffffffffff168373ffffffffffffffffffffffffffffffffffffffff161415611dd3576040517f08c379a0000000000000000000000000000000000000000000000000000000008152600401611dca90613453565b60405180910390fd5b80600560008573ffffffffffffffffffffffffffffffffffffffff1673ffffffffffffffffffffffffffffffffffffffff16815260200190815260200160002060008473ffffffffffffffffffffffffffffffffffffffff1673ffffffffffffffffffffffffffffffffffffffff16815260200190815260200160002060006101000a81548160ff0219169083151502179055508173ffffffffffffffffffffffffffffffffffffffff168373ffffffffffffffffffffffffffffffffffffffff167f17307eab39ab6107e8899845ad3d59bd9653f200f220920489ca2b5937696c3183604051611ec49190613356565b60405180910390a3505050565b611edc848484611918565b611ee8848484846122f8565b611f27576040517f08c379a0000000000000000000000000000000000000000000000000000000008152600401611f1e906133b3565b60405180910390fd5b50505050565b606060405180602001604052806000815250905090565b6060611f4f8261170d565b611f8e576040517f08c379a0000000000000000000000000000000000000000000000000000000008152600401611f85906135d3565b60405180910390fd5b6000611f98611f2d565b90506000815111611fb85760405180602001604052806000815250611fe3565b80611fc28461248f565b604051602001611fd39291906132cb565b6040516020818303038152906040525b915050919050565b600a60019054906101000a900460ff168015612039575061200a610d3f565b73ffffffffffffffffffffffffffffffffffffffff168373ffffffffffffffffffffffffffffffffffffffff16145b806120515750600a60019054906101000a900460ff16155b612090576040517f08c379a000000000000000000000000000000000000000000000000000000000815260040161208790613673565b60405180910390fd5b8273ffffffffffffffffffffffffffffffffffffffff166120b082610a95565b73ffffffffffffffffffffffffffffffffffffffff1614612106576040517f08c379a00000000000000000000000000000000000000000000000000000000081526004016120fd906133f3565b60405180910390fd5b600073ffffffffffffffffffffffffffffffffffffffff168273ffffffffffffffffffffffffffffffffffffffff161415612176576040517f08c379a000000000000000000000000000000000000000000000000000000000815260040161216d90613433565b60405180910390fd5b505050565b505050565b61218a838361263c565b61219760008484846122f8565b6121d6576040517f08c379a00000000000000000000000000000000000000000000000000000000081526004016121cd906133b3565b60405180910390fd5b505050565b60006121e682610a95565b90506121f481600084611feb565b6121ff600083611781565b6001600360008373ffffffffffffffffffffffffffffffffffffffff1673ffffffffffffffffffffffffffffffffffffffff168152602001908152602001600020600082825461224f919061386b565b925050819055506002600083815260200190815260200160002060006101000a81549073ffffffffffffffffffffffffffffffffffffffff021916905581600073ffffffffffffffffffffffffffffffffffffffff168273ffffffffffffffffffffffffffffffffffffffff167fddf252ad1be2c89b69c2b068fc378daa952ba7f163c4a11628f55a4df523b3ef60405160405180910390a46122f48160008461217b565b5050565b60006123198473ffffffffffffffffffffffffffffffffffffffff16612816565b15612482578373ffffffffffffffffffffffffffffffffffffffff1663150b7a02612342611779565b8786866040518563ffffffff1660e01b8152600401612364949392919061330a565b602060405180830381600087803b15801561237e57600080fd5b505af19250505080156123af57506040513d601f19601f820116820180604052508101906123ac9190612d9e565b60015b612432573d80600081146123df576040519150601f19603f3d011682016040523d82523d6000602084013e6123e4565b606091505b5060008151141561242a576040517f08c379a0000000000000000000000000000000000000000000000000000000008152600401612421906133b3565b60405180910390fd5b805181602001fd5b63150b7a0260e01b7bffffffffffffffffffffffffffffffffffffffffffffffffffffffff1916817bffffffffffffffffffffffffffffffffffffffffffffffffffffffff191614915050612487565b600190505b949350505050565b606060008214156124d7576040518060400160405280600181526020017f30000000000000000000000000000000000000000000000000000000000000008152509050612637565b600082905060005b600082146125095780806124f2906139b8565b915050600a82612502919061383a565b91506124df565b60008167ffffffffffffffff81111561254b577f4e487b7100000000000000000000000000000000000000000000000000000000600052604160045260246000fd5b6040519080825280601f01601f19166020018201604052801561257d5781602001600182028036833780820191505090505b5090505b6000851461263057600182612596919061386b565b9150600a856125a59190613a01565b60306125b191906137e4565b60f81b8183815181106125ed577f4e487b7100000000000000000000000000000000000000000000000000000000600052603260045260246000fd5b60200101907effffffffffffffffffffffffffffffffffffffffffffffffffffffffffffff1916908160001a905350600a85612629919061383a565b9450612581565b8093505050505b919050565b600073ffffffffffffffffffffffffffffffffffffffff168273ffffffffffffffffffffffffffffffffffffffff1614156126ac576040517f08c379a00000000000000000000000000000000000000000000000000000000081526004016126a390613553565b60405180910390fd5b6126b58161170d565b156126f5576040517f08c379a00000000000000000000000000000000000000000000000000000000081526004016126ec90613413565b60405180910390fd5b61270160008383611feb565b6001600360008473ffffffffffffffffffffffffffffffffffffffff1673ffffffffffffffffffffffffffffffffffffffff168152602001908152602001600020600082825461275191906137e4565b92505081905550816002600083815260200190815260200160002060006101000a81548173ffffffffffffffffffffffffffffffffffffffff021916908373ffffffffffffffffffffffffffffffffffffffff160217905550808273ffffffffffffffffffffffffffffffffffffffff16600073ffffffffffffffffffffffffffffffffffffffff167fddf252ad1be2c89b69c2b068fc378daa952ba7f163c4a11628f55a4df523b3ef60405160405180910390a46128126000838361217b565b5050565b6000808273ffffffffffffffffffffffffffffffffffffffff163b119050919050565b82805461284590613955565b90600052602060002090601f01602090048101928261286757600085556128ae565b82601f1061288057805160ff19168380011785556128ae565b828001600101855582156128ae579182015b828111156128ad578251825591602001919060010190612892565b5b5090506128bb91906128ff565b5090565b5080546128cb90613955565b6000825580601f106128dd57506128fc565b601f0160209004906000526020600020908101906128fb91906128ff565b5b50565b5b80821115612918576000816000905550600101612900565b5090565b600061292f61292a84613713565b6136ee565b9050808382526020820190508285602086028201111561294e57600080fd5b60005b8581101561297e57816129648882612aeb565b845260208401935060208301925050600181019050612951565b5050509392505050565b600061299b6129968461373f565b6136ee565b9050828152602081018484840111156129b357600080fd5b6129be848285613913565b509392505050565b60006129d96129d484613770565b6136ee565b9050828152602081018484840111156129f157600080fd5b6129fc848285613913565b509392505050565b600081359050612a13816141af565b92915050565b600081519050612a28816141af565b92915050565b600082601f830112612a3f57600080fd5b8135612a4f84826020860161291c565b91505092915050565b600081359050612a67816141c6565b92915050565b600081359050612a7c816141dd565b92915050565b600081519050612a91816141dd565b92915050565b600082601f830112612aa857600080fd5b8135612ab8848260208601612988565b91505092915050565b600082601f830112612ad257600080fd5b8135612ae28482602086016129c6565b91505092915050565b600081359050612afa816141f4565b92915050565b600081519050612b0f816141f4565b92915050565b600060208284031215612b2757600080fd5b6000612b3584828501612a04565b91505092915050565b600060208284031215612b5057600080fd5b6000612b5e84828501612a19565b91505092915050565b60008060408385031215612b7a57600080fd5b6000612b8885828601612a04565b9250506020612b9985828601612a04565b9150509250929050565b600080600060608486031215612bb857600080fd5b6000612bc686828701612a04565b9350506020612bd786828701612a04565b9250506040612be886828701612aeb565b9150509250925092565b60008060008060808587031215612c0857600080fd5b6000612c1687828801612a04565b9450506020612c2787828801612a04565b9350506040612c3887828801612aeb565b925050606085013567ffffffffffffffff811115612c5557600080fd5b612c6187828801612a97565b91505092959194509250565b60008060408385031215612c8057600080fd5b6000612c8e85828601612a04565b9250506020612c9f85828601612a58565b9150509250929050565b600080600060608486031215612cbe57600080fd5b6000612ccc86828701612a04565b935050602084013567ffffffffffffffff811115612ce957600080fd5b612cf586828701612ac1565b9250506040612d0686828701612aeb565b9150509250925092565b60008060408385031215612d2357600080fd5b6000612d3185828601612a04565b9250506020612d4285828601612aeb565b9150509250929050565b600060208284031215612d5e57600080fd5b6000612d6c84828501612a58565b91505092915050565b600060208284031215612d8757600080fd5b6000612d9584828501612a6d565b91505092915050565b600060208284031215612db057600080fd5b6000612dbe84828501612a82565b91505092915050565b600060208284031215612dd957600080fd5b6000612de784828501612aeb565b91505092915050565b600060208284031215612e0257600080fd5b6000612e1084828501612b00565b91505092915050565b60008060408385031215612e2c57600080fd5b6000612e3a85828601612aeb565b925050602083013567ffffffffffffffff811115612e5757600080fd5b612e6385828601612a2e565b9150509250929050565b612e768161389f565b82525050565b612e85816138b1565b82525050565b6000612e96826137a1565b612ea081856137b7565b9350612eb0818560208601613922565b612eb981613aee565b840191505092915050565b6000612ecf826137ac565b612ed981856137c8565b9350612ee9818560208601613922565b612ef281613aee565b840191505092915050565b6000612f08826137ac565b612f1281856137d9565b9350612f22818560208601613922565b80840191505092915050565b6000612f3b6017836137c8565b9150612f4682613aff565b602082019050919050565b6000612f5e6032836137c8565b9150612f6982613b28565b604082019050919050565b6000612f816026836137c8565b9150612f8c82613b77565b604082019050919050565b6000612fa46025836137c8565b9150612faf82613bc6565b604082019050919050565b6000612fc7601c836137c8565b9150612fd282613c15565b602082019050919050565b6000612fea6024836137c8565b9150612ff582613c3e565b604082019050919050565b600061300d6019836137c8565b915061301882613c8d565b602082019050919050565b6000613030602d836137c8565b915061303b82613cb6565b604082019050919050565b6000613053602c836137c8565b915061305e82613d05565b604082019050919050565b60006130766038836137c8565b915061308182613d54565b604082019050919050565b6000613099602a836137c8565b91506130a482613da3565b604082019050919050565b60006130bc6029836137c8565b91506130c782613df2565b604082019050919050565b60006130df602e836137c8565b91506130ea82613e41565b604082019050919050565b6000613102602b836137c8565b915061310d82613e90565b604082019050919050565b60006131256020836137c8565b915061313082613edf565b602082019050919050565b60006131486031836137c8565b915061315382613f08565b604082019050919050565b600061316b602c836137c8565b915061317682613f57565b604082019050919050565b600061318e6020836137c8565b915061319982613fa6565b602082019050919050565b60006131b1602f836137c8565b91506131bc82613fcf565b604082019050919050565b60006131d46013836137c8565b91506131df8261401e565b602082019050919050565b60006131f76021836137c8565b915061320282614047565b604082019050919050565b600061321a6031836137c8565b915061322582614096565b604082019050919050565b600061323d6017836137c8565b9150613248826140e5565b602082019050919050565b60006132606016836137c8565b915061326b8261410e565b602082019050919050565b6000613283601f836137c8565b915061328e82614137565b602082019050919050565b60006132a66030836137c8565b91506132b182614160565b604082019050919050565b6132c581613909565b82525050565b60006132d78285612efd565b91506132e38284612efd565b91508190509392505050565b60006020820190506133046000830184612e6d565b92915050565b600060808201905061331f6000830187612e6d565b61332c6020830186612e6d565b61333960408301856132bc565b818103606083015261334b8184612e8b565b905095945050505050565b600060208201905061336b6000830184612e7c565b92915050565b6000602082019050818103600083015261338b8184612ec4565b905092915050565b600060208201905081810360008301526133ac81612f2e565b9050919050565b600060208201905081810360008301526133cc81612f51565b9050919050565b600060208201905081810360008301526133ec81612f74565b9050919050565b6000602082019050818103600083015261340c81612f97565b9050919050565b6000602082019050818103600083015261342c81612fba565b9050919050565b6000602082019050818103600083015261344c81612fdd565b9050919050565b6000602082019050818103600083015261346c81613000565b9050919050565b6000602082019050818103600083015261348c81613023565b9050919050565b600060208201905081810360008301526134ac81613046565b9050919050565b600060208201905081810360008301526134cc81613069565b9050919050565b600060208201905081810360008301526134ec8161308c565b9050919050565b6000602082019050818103600083015261350c816130af565b9050919050565b6000602082019050818103600083015261352c816130d2565b9050919050565b6000602082019050818103600083015261354c816130f5565b9050919050565b6000602082019050818103600083015261356c81613118565b9050919050565b6000602082019050818103600083015261358c8161313b565b9050919050565b600060208201905081810360008301526135ac8161315e565b9050919050565b600060208201905081810360008301526135cc81613181565b9050919050565b600060208201905081810360008301526135ec816131a4565b9050919050565b6000602082019050818103600083015261360c816131c7565b9050919050565b6000602082019050818103600083015261362c816131ea565b9050919050565b6000602082019050818103600083015261364c8161320d565b9050919050565b6000602082019050818103600083015261366c81613230565b9050919050565b6000602082019050818103600083015261368c81613253565b9050919050565b600060208201905081810360008301526136ac81613276565b9050919050565b600060208201905081810360008301526136cc81613299565b9050919050565b60006020820190506136e860008301846132bc565b92915050565b60006136f8613709565b90506137048282613987565b919050565b6000604051905090565b600067ffffffffffffffff82111561372e5761372d613abf565b5b602082029050602081019050919050565b600067ffffffffffffffff82111561375a57613759613abf565b5b61376382613aee565b9050602081019050919050565b600067ffffffffffffffff82111561378b5761378a613abf565b5b61379482613aee565b9050602081019050919050565b600081519050919050565b600081519050919050565b600082825260208201905092915050565b600082825260208201905092915050565b600081905092915050565b60006137ef82613909565b91506137fa83613909565b9250827fffffffffffffffffffffffffffffffffffffffffffffffffffffffffffffffff0382111561382f5761382e613a32565b5b828201905092915050565b600061384582613909565b915061385083613909565b9250826138605761385f613a61565b5b828204905092915050565b600061387682613909565b915061388183613909565b92508282101561389457613893613a32565b5b828203905092915050565b60006138aa826138e9565b9050919050565b60008115159050919050565b60007fffffffff0000000000000000000000000000000000000000000000000000000082169050919050565b600073ffffffffffffffffffffffffffffffffffffffff82169050919050565b6000819050919050565b82818337600083830152505050565b60005b83811015613940578082015181840152602081019050613925565b8381111561394f576000848401525b50505050565b6000600282049050600182168061396d57607f821691505b6020821081141561398157613980613a90565b5b50919050565b61399082613aee565b810181811067ffffffffffffffff821117156139af576139ae613abf565b5b80604052505050565b60006139c382613909565b91507fffffffffffffffffffffffffffffffffffffffffffffffffffffffffffffffff8214156139f6576139f5613a32565b5b600182019050919050565b6000613a0c82613909565b9150613a1783613909565b925082613a2757613a26613a61565b5b828206905092915050565b7f4e487b7100000000000000000000000000000000000000000000000000000000600052601160045260246000fd5b7f4e487b7100000000000000000000000000000000000000000000000000000000600052601260045260246000fd5b7f4e487b7100000000000000000000000000000000000000000000000000000000600052602260045260246000fd5b7f4e487b7100000000000000000000000000000000000000000000000000000000600052604160045260246000fd5b6000601f19601f8301169050919050565b7f4d696e74696e67206973206e6f7420616c6c6f7765642e000000000000000000600082015250565b7f4552433732313a207472616e7366657220746f206e6f6e20455243373231526560008201527f63656976657220696d706c656d656e7465720000000000000000000000000000602082015250565b7f4f776e61626c653a206e6577206f776e657220697320746865207a65726f206160008201527f6464726573730000000000000000000000000000000000000000000000000000602082015250565b7f4552433732313a207472616e736665722066726f6d20696e636f72726563742060008201527f6f776e6572000000000000000000000000000000000000000000000000000000602082015250565b7f4552433732313a20746f6b656e20616c7265616479206d696e74656400000000600082015250565b7f4552433732313a207472616e7366657220746f20746865207a65726f2061646460008201527f7265737300000000000000000000000000000000000000000000000000000000602082015250565b7f4552433732313a20617070726f766520746f2063616c6c657200000000000000600082015250565b7f4e6f7420656c696769626c6520666f72204d6574614d6172726961676520776960008201527f7468207468697320436869636b00000000000000000000000000000000000000602082015250565b7f4552433732313a206f70657261746f7220717565727920666f72206e6f6e657860008201527f697374656e7420746f6b656e0000000000000000000000000000000000000000602082015250565b7f4552433732313a20617070726f76652063616c6c6572206973206e6f74206f7760008201527f6e6572206e6f7220617070726f76656420666f7220616c6c0000000000000000602082015250565b7f4552433732313a2062616c616e636520717565727920666f7220746865207a6560008201527f726f206164647265737300000000000000000000000000000000000000000000602082015250565b7f4552433732313a206f776e657220717565727920666f72206e6f6e657869737460008201527f656e7420746f6b656e0000000000000000000000000000000000000000000000602082015250565b7f45524337323155524953746f726167653a2055524920736574206f66206e6f6e60008201527f6578697374656e7420746f6b656e000000000000000000000000000000000000602082015250565b7f54686973206d696e7420776f756c6420657863656564206d617820737570706c60008201527f79206f6620576169667573000000000000000000000000000000000000000000602082015250565b7f4552433732313a206d696e7420746f20746865207a65726f2061646472657373600082015250565b7f45524337323155524953746f726167653a2055524920717565727920666f722060008201527f6e6f6e6578697374656e7420746f6b656e000000000000000000000000000000602082015250565b7f4552433732313a20617070726f76656420717565727920666f72206e6f6e657860008201527f697374656e7420746f6b656e0000000000000000000000000000000000000000602082015250565b7f4f776e61626c653a2063616c6c6572206973206e6f7420746865206f776e6572600082015250565b7f4552433732314d657461646174613a2055524920717565727920666f72206e6f60008201527f6e6578697374656e7420746f6b656e0000000000000000000000000000000000602082015250565b7f53616c65206973206e6f74206163746976652e00000000000000000000000000600082015250565b7f4552433732313a20617070726f76616c20746f2063757272656e74206f776e6560008201527f7200000000000000000000000000000000000000000000000000000000000000602082015250565b7f4552433732313a207472616e736665722063616c6c6572206973206e6f74206f60008201527f776e6572206e6f7220617070726f766564000000000000000000000000000000602082015250565b7f496e76616c696420746f6b656e20666f722073616c652e000000000000000000600082015250565b7f496e76616c6964205472616e736665722043616c6c2100000000000000000000600082015250565b7f5265656e7472616e637947756172643a207265656e7472616e742063616c6c00600082015250565b7f4552433732314275726e61626c653a2063616c6c6572206973206e6f74206f7760008201527f6e6572206e6f7220617070726f76656400000000000000000000000000000000602082015250565b6141b88161389f565b81146141c357600080fd5b50565b6141cf816138b1565b81146141da57600080fd5b50565b6141e6816138bd565b81146141f157600080fd5b50565b6141fd81613909565b811461420857600080fd5b5056fea264697066735822122034128985db1292e7f1b9a8397554a4c8914a107bb97065ad282a0ca2f7c9ab3864736f6c63430008010033",
  "linkReferences": {},
  "deployedLinkReferences": {}
}