{
  "_format": "hh-sol-artifact-1",
  "contractName": "Waifus",
  "sourceName": "contracts/Waifus.sol",
  "abi": [
    {
      "inputs": [
        {
          "internalType": "address",
          "name": "seductionsAddr",
          "type": "address"
        }
      ],
      "stateMutability": "nonpayable",
      "type": "constructor"
    },
    {
      "anonymous": false,
      "inputs": [
        {
          "indexed": true,
          "internalType": "address",
          "name": "owner",
          "type": "address"
        },
        {
          "indexed": true,
          "internalType": "address",
          "name": "approved",
          "type": "address"
        },
        {
          "indexed": true,
          "internalType": "uint256",
          "name": "tokenId",
          "type": "uint256"
        }
      ],
      "name": "Approval",
      "type": "event"
    },
    {
      "anonymous": false,
      "inputs": [
        {
          "indexed": true,
          "internalType": "address",
          "name": "owner",
          "type": "address"
        },
        {
          "indexed": true,
          "internalType": "address",
          "name": "operator",
          "type": "address"
        },
        {
          "indexed": false,
          "internalType": "bool",
          "name": "approved",
          "type": "bool"
        }
      ],
      "name": "ApprovalForAll",
      "type": "event"
    },
    {
      "anonymous": false,
      "inputs": [
        {
          "indexed": true,
          "internalType": "address",
          "name": "previousOwner",
          "type": "address"
        },
        {
          "indexed": true,
          "internalType": "address",
          "name": "newOwner",
          "type": "address"
        }
      ],
      "name": "OwnershipTransferred",
      "type": "event"
    },
    {
      "anonymous": false,
      "inputs": [
        {
          "indexed": true,
          "internalType": "address",
          "name": "from",
          "type": "address"
        },
        {
          "indexed": true,
          "internalType": "address",
          "name": "to",
          "type": "address"
        },
        {
          "indexed": true,
          "internalType": "uint256",
          "name": "tokenId",
          "type": "uint256"
        }
      ],
      "name": "Transfer",
      "type": "event"
    },
    {
      "inputs": [],
      "name": "MAX_WAIFUS",
      "outputs": [
        {
          "internalType": "uint256",
          "name": "",
          "type": "uint256"
        }
      ],
      "stateMutability": "view",
      "type": "function"
    },
    {
      "inputs": [
        {
          "internalType": "address",
          "name": "to",
          "type": "address"
        },
        {
          "internalType": "uint256",
          "name": "tokenId",
          "type": "uint256"
        }
      ],
      "name": "approve",
      "outputs": [],
      "stateMutability": "nonpayable",
      "type": "function"
    },
    {
      "inputs": [
        {
          "internalType": "address",
          "name": "owner",
          "type": "address"
        }
      ],
      "name": "balanceOf",
      "outputs": [
        {
          "internalType": "uint256",
          "name": "",
          "type": "uint256"
        }
      ],
      "stateMutability": "view",
      "type": "function"
    },
    {
      "inputs": [
        {
          "internalType": "uint256",
          "name": "tokenId",
          "type": "uint256"
        }
      ],
      "name": "burn",
      "outputs": [],
      "stateMutability": "nonpayable",
      "type": "function"
    },
    {
      "inputs": [
        {
          "internalType": "uint256",
          "name": "tokenId",
          "type": "uint256"
        }
      ],
      "name": "getApproved",
      "outputs": [
        {
          "internalType": "address",
          "name": "",
          "type": "address"
        }
      ],
      "stateMutability": "view",
      "type": "function"
    },
    {
      "inputs": [
        {
          "internalType": "address",
          "name": "owner",
          "type": "address"
        },
        {
          "internalType": "address",
          "name": "operator",
          "type": "address"
        }
      ],
      "name": "isApprovedForAll",
      "outputs": [
        {
          "internalType": "bool",
          "name": "",
          "type": "bool"
        }
      ],
      "stateMutability": "view",
      "type": "function"
    },
    {
      "inputs": [],
      "name": "mintActive",
      "outputs": [
        {
          "internalType": "bool",
          "name": "",
          "type": "bool"
        }
      ],
      "stateMutability": "view",
      "type": "function"
    },
    {
      "inputs": [
        {
          "internalType": "address",
          "name": "recipient",
          "type": "address"
        },
        {
          "internalType": "string",
          "name": "tokenURI",
          "type": "string"
        },
        {
          "internalType": "uint256",
          "name": "trait",
          "type": "uint256"
        }
      ],
      "name": "mintWaifus",
      "outputs": [
        {
          "internalType": "uint256",
          "name": "",
          "type": "uint256"
        }
      ],
      "stateMutability": "nonpayable",
      "type": "function"
    },
    {
      "inputs": [],
      "name": "name",
      "outputs": [
        {
          "internalType": "string",
          "name": "",
          "type": "string"
        }
      ],
      "stateMutability": "view",
      "type": "function"
    },
    {
      "inputs": [],
      "name": "owner",
      "outputs": [
        {
          "internalType": "address",
          "name": "",
          "type": "address"
        }
      ],
      "stateMutability": "view",
      "type": "function"
    },
    {
      "inputs": [
        {
          "internalType": "uint256",
          "name": "tokenId",
          "type": "uint256"
        }
      ],
      "name": "ownerOf",
      "outputs": [
        {
          "internalType": "address",
          "name": "",
          "type": "address"
        }
      ],
      "stateMutability": "view",
      "type": "function"
    },
    {
      "inputs": [],
      "name": "renounceOwnership",
      "outputs": [],
      "stateMutability": "nonpayable",
      "type": "function"
    },
    {
      "inputs": [
        {
          "internalType": "address",
          "name": "from",
          "type": "address"
        },
        {
          "internalType": "address",
          "name": "to",
          "type": "address"
        },
        {
          "internalType": "uint256",
          "name": "tokenId",
          "type": "uint256"
        }
      ],
      "name": "safeTransferFrom",
      "outputs": [],
      "stateMutability": "nonpayable",
      "type": "function"
    },
    {
      "inputs": [
        {
          "internalType": "address",
          "name": "from",
          "type": "address"
        },
        {
          "internalType": "address",
          "name": "to",
          "type": "address"
        },
        {
          "internalType": "uint256",
          "name": "tokenId",
          "type": "uint256"
        },
        {
          "internalType": "bytes",
          "name": "_data",
          "type": "bytes"
        }
      ],
      "name": "safeTransferFrom",
      "outputs": [],
      "stateMutability": "nonpayable",
      "type": "function"
    },
    {
      "inputs": [
        {
          "internalType": "uint256",
          "name": "tokenId",
          "type": "uint256"
        },
        {
          "internalType": "uint256[]",
          "name": "sdtIds",
          "type": "uint256[]"
        }
      ],
      "name": "sale",
      "outputs": [],
      "stateMutability": "payable",
      "type": "function"
    },
    {
      "inputs": [],
      "name": "saleActive",
      "outputs": [
        {
          "internalType": "bool",
          "name": "",
          "type": "bool"
        }
      ],
      "stateMutability": "view",
      "type": "function"
    },
    {
      "inputs": [
        {
          "internalType": "address",
          "name": "operator",
          "type": "address"
        },
        {
          "internalType": "bool",
          "name": "approved",
          "type": "bool"
        }
      ],
      "name": "setApprovalForAll",
      "outputs": [],
      "stateMutability": "nonpayable",
      "type": "function"
    },
    {
      "inputs": [
        {
          "internalType": "bool",
          "name": "_active",
          "type": "bool"
        }
      ],
      "name": "setMintActive",
      "outputs": [],
      "stateMutability": "nonpayable",
      "type": "function"
    },
    {
      "inputs": [
        {
          "internalType": "bool",
          "name": "_active",
          "type": "bool"
        }
      ],
      "name": "setSaleActive",
      "outputs": [],
      "stateMutability": "nonpayable",
      "type": "function"
    },
    {
      "inputs": [
        {
          "internalType": "bytes4",
          "name": "interfaceId",
          "type": "bytes4"
        }
      ],
      "name": "supportsInterface",
      "outputs": [
        {
          "internalType": "bool",
          "name": "",
          "type": "bool"
        }
      ],
      "stateMutability": "view",
      "type": "function"
    },
    {
      "inputs": [],
      "name": "symbol",
      "outputs": [
        {
          "internalType": "string",
          "name": "",
          "type": "string"
        }
      ],
      "stateMutability": "view",
      "type": "function"
    },
    {
      "inputs": [],
      "name": "tokenSupply",
      "outputs": [
        {
          "internalType": "uint256",
          "name": "_value",
          "type": "uint256"
        }
      ],
      "stateMutability": "view",
      "type": "function"
    },
    {
      "inputs": [
        {
          "internalType": "uint256",
          "name": "tokenId",
          "type": "uint256"
        }
      ],
      "name": "tokenURI",
      "outputs": [
        {
          "internalType": "string",
          "name": "",
          "type": "string"
        }
      ],
      "stateMutability": "view",
      "type": "function"
    },
    {
      "inputs": [
        {
          "internalType": "address",
          "name": "from",
          "type": "address"
        },
        {
          "internalType": "address",
          "name": "to",
          "type": "address"
        },
        {
          "internalType": "uint256",
          "name": "tokenId",
          "type": "uint256"
        }
      ],
      "name": "transferFrom",
      "outputs": [],
      "stateMutability": "nonpayable",
      "type": "function"
    },
    {
      "inputs": [
        {
          "internalType": "address",
          "name": "newOwner",
          "type": "address"
        }
      ],
      "name": "transferOwnership",
      "outputs": [],
      "stateMutability": "nonpayable",
      "type": "function"
    }
  ],
  "bytecode": "0x60806040526001600a60006101000a81548160ff0219169083151502179055506000600a60016101000a81548160ff0219169083151502179055503480156200004757600080fd5b50604051620046803803806200468083398181016040528101906200006d919062000312565b6040518060400160405280600681526020017f57616966757300000000000000000000000000000000000000000000000000008152506040518060400160405280600381526020017f57465300000000000000000000000000000000000000000000000000000000008152508160009080519060200190620000f19291906200024b565b5080600190805190602001906200010a9291906200024b565b5050506200012d620001216200017d60201b60201c565b6200018560201b60201c565b600160088190555080600c60006101000a81548173ffffffffffffffffffffffffffffffffffffffff021916908373ffffffffffffffffffffffffffffffffffffffff16021790555050620003f1565b600033905090565b6000600760009054906101000a900473ffffffffffffffffffffffffffffffffffffffff16905081600760006101000a81548173ffffffffffffffffffffffffffffffffffffffff021916908373ffffffffffffffffffffffffffffffffffffffff1602179055508173ffffffffffffffffffffffffffffffffffffffff168173ffffffffffffffffffffffffffffffffffffffff167f8be0079c531659141344cd1fd0a4f28419497f9722a3daafe3b4186f6b6457e060405160405180910390a35050565b828054620002599062000372565b90600052602060002090601f0160209004810192826200027d5760008555620002c9565b82601f106200029857805160ff1916838001178555620002c9565b82800160010185558215620002c9579182015b82811115620002c8578251825591602001919060010190620002ab565b5b509050620002d89190620002dc565b5090565b5b80821115620002f7576000816000905550600101620002dd565b5090565b6000815190506200030c81620003d7565b92915050565b6000602082840312156200032557600080fd5b60006200033584828501620002fb565b91505092915050565b60006200034b8262000352565b9050919050565b600073ffffffffffffffffffffffffffffffffffffffff82169050919050565b600060028204905060018216806200038b57607f821691505b60208210811415620003a257620003a1620003a8565b5b50919050565b7f4e487b7100000000000000000000000000000000000000000000000000000000600052602260045260246000fd5b620003e2816200033e565b8114620003ee57600080fd5b50565b61427f80620004016000396000f3fe6080604052600436106101665760003560e01c806370a08231116100d1578063a22cb4651161008a578063c87b56dd11610064578063c87b56dd1461051b578063e985e9c514610558578063ee1cc94414610595578063f2fde38b146105be57610166565b8063a22cb465146104ad578063b88d4fde146104d6578063b8b0e6e1146104ff57610166565b806370a08231146103af578063715018a6146103ec5780637824407f14610403578063841718a61461042e5780638da5cb5b1461045757806395d89b411461048257610166565b806334f407c91161012357806334f407c91461028d57806342842e0e146102ca57806342966c68146102f3578063627a01ec1461031c5780636352211e1461034757806368428a1b1461038457610166565b806301ffc9a71461016b57806306fdde03146101a8578063081812fc146101d3578063095ea7b31461021057806323b872dd1461023957806325fd90f314610262575b600080fd5b34801561017757600080fd5b50610192600480360381019061018d9190612db3565b6105e7565b60405161019f9190613394565b60405180910390f35b3480156101b457600080fd5b506101bd6106c9565b6040516101ca91906133af565b60405180910390f35b3480156101df57600080fd5b506101fa60048036038101906101f59190612e05565b61075b565b604051610207919061332d565b60405180910390f35b34801561021c57600080fd5b5061023760048036038101906102329190612d4e565b6107e0565b005b34801561024557600080fd5b50610260600480360381019061025b9190612be1565b6108f8565b005b34801561026e57600080fd5b50610277610958565b6040516102849190613394565b60405180910390f35b34801561029957600080fd5b506102b460048036038101906102af9190612ce7565b61096b565b6040516102c19190613711565b60405180910390f35b3480156102d657600080fd5b506102f160048036038101906102ec9190612be1565b610b3e565b005b3480156102ff57600080fd5b5061031a60048036038101906103159190612e05565b610b5e565b005b34801561032857600080fd5b50610331610bba565b60405161033e9190613711565b60405180910390f35b34801561035357600080fd5b5061036e60048036038101906103699190612e05565b610bc0565b60405161037b919061332d565b60405180910390f35b34801561039057600080fd5b50610399610c72565b6040516103a69190613394565b60405180910390f35b3480156103bb57600080fd5b506103d660048036038101906103d19190612b53565b610c85565b6040516103e39190613711565b60405180910390f35b3480156103f857600080fd5b50610401610d3d565b005b34801561040f57600080fd5b50610418610dc5565b6040516104259190613711565b60405180910390f35b34801561043a57600080fd5b5061045560048036038101906104509190612d8a565b610dd1565b005b34801561046357600080fd5b5061046c610e6a565b604051610479919061332d565b60405180910390f35b34801561048e57600080fd5b50610497610e94565b6040516104a491906133af565b60405180910390f35b3480156104b957600080fd5b506104d460048036038101906104cf9190612cab565b610f26565b005b3480156104e257600080fd5b506104fd60048036038101906104f89190612c30565b610f3c565b005b61051960048036038101906105149190612e57565b610f9e565b005b34801561052757600080fd5b50610542600480360381019061053d9190612e05565b61136a565b60405161054f91906133af565b60405180910390f35b34801561056457600080fd5b5061057f600480360381019061057a9190612ba5565b6114bc565b60405161058c9190613394565b60405180910390f35b3480156105a157600080fd5b506105bc60048036038101906105b79190612d8a565b611550565b005b3480156105ca57600080fd5b506105e560048036038101906105e09190612b53565b6115e9565b005b60007f80ac58cd000000000000000000000000000000000000000000000000000000007bffffffffffffffffffffffffffffffffffffffffffffffffffffffff1916827bffffffffffffffffffffffffffffffffffffffffffffffffffffffff191614806106b257507f5b5e139f000000000000000000000000000000000000000000000000000000007bffffffffffffffffffffffffffffffffffffffffffffffffffffffff1916827bffffffffffffffffffffffffffffffffffffffffffffffffffffffff1916145b806106c257506106c1826116e1565b5b9050919050565b6060600080546106d890613993565b80601f016020809104026020016040519081016040528092919081815260200182805461070490613993565b80156107515780601f1061072657610100808354040283529160200191610751565b820191906000526020600020905b81548152906001019060200180831161073457829003601f168201915b5050505050905090565b60006107668261174b565b6107a5576040517f08c379a000000000000000000000000000000000000000000000000000000000815260040161079c906135d1565b60405180910390fd5b6004600083815260200190815260200160002060009054906101000a900473ffffffffffffffffffffffffffffffffffffffff169050919050565b60006107eb82610bc0565b90508073ffffffffffffffffffffffffffffffffffffffff168373ffffffffffffffffffffffffffffffffffffffff16141561085c576040517f08c379a000000000000000000000000000000000000000000000000000000000815260040161085390613651565b60405180910390fd5b8073ffffffffffffffffffffffffffffffffffffffff1661087b6117b7565b73ffffffffffffffffffffffffffffffffffffffff1614806108aa57506108a9816108a46117b7565b6114bc565b5b6108e9576040517f08c379a00000000000000000000000000000000000000000000000000000000081526004016108e0906134f1565b60405180910390fd5b6108f383836117bf565b505050565b6109096109036117b7565b82611878565b610948576040517f08c379a000000000000000000000000000000000000000000000000000000000815260040161093f90613671565b60405180910390fd5b610953838383611956565b505050565b600a60009054906101000a900460ff1681565b60006109756117b7565b73ffffffffffffffffffffffffffffffffffffffff16610993610e6a565b73ffffffffffffffffffffffffffffffffffffffff16146109e9576040517f08c379a00000000000000000000000000000000000000000000000000000000081526004016109e0906135f1565b60405180910390fd5b60026008541415610a2f576040517f08c379a0000000000000000000000000000000000000000000000000000000008152600401610a26906136d1565b60405180910390fd5b6002600881905550600a60009054906101000a900460ff16610a86576040517f08c379a0000000000000000000000000000000000000000000000000000000008152600401610a7d906133d1565b60405180910390fd5b61014d610aa66001610a986009611bbd565b611bcb90919063ffffffff16565b1115610ae7576040517f08c379a0000000000000000000000000000000000000000000000000000000008152600401610ade90613571565b60405180910390fd5b610af16009611be1565b6000610afd6009611bbd565b9050610b098582611bf7565b610b138185611c15565b82600b6000838152602001908152602001600020819055508091505060016008819055509392505050565b610b5983838360405180602001604052806000815250610f3c565b505050565b610b6f610b696117b7565b82611878565b610bae576040517f08c379a0000000000000000000000000000000000000000000000000000000008152600401610ba5906136f1565b60405180910390fd5b610bb781611c89565b50565b61014d81565b6000806002600084815260200190815260200160002060009054906101000a900473ffffffffffffffffffffffffffffffffffffffff169050600073ffffffffffffffffffffffffffffffffffffffff168173ffffffffffffffffffffffffffffffffffffffff161415610c69576040517f08c379a0000000000000000000000000000000000000000000000000000000008152600401610c6090613531565b60405180910390fd5b80915050919050565b600a60019054906101000a900460ff1681565b60008073ffffffffffffffffffffffffffffffffffffffff168273ffffffffffffffffffffffffffffffffffffffff161415610cf6576040517f08c379a0000000000000000000000000000000000000000000000000000000008152600401610ced90613511565b60405180910390fd5b600360008373ffffffffffffffffffffffffffffffffffffffff1673ffffffffffffffffffffffffffffffffffffffff168152602001908152602001600020549050919050565b610d456117b7565b73ffffffffffffffffffffffffffffffffffffffff16610d63610e6a565b73ffffffffffffffffffffffffffffffffffffffff1614610db9576040517f08c379a0000000000000000000000000000000000000000000000000000000008152600401610db0906135f1565b60405180910390fd5b610dc36000611cdc565b565b60098060000154905081565b610dd96117b7565b73ffffffffffffffffffffffffffffffffffffffff16610df7610e6a565b73ffffffffffffffffffffffffffffffffffffffff1614610e4d576040517f08c379a0000000000000000000000000000000000000000000000000000000008152600401610e44906135f1565b60405180910390fd5b80600a60016101000a81548160ff02191690831515021790555050565b6000600760009054906101000a900473ffffffffffffffffffffffffffffffffffffffff16905090565b606060018054610ea390613993565b80601f0160208091040260200160405190810160405280929190818152602001828054610ecf90613993565b8015610f1c5780601f10610ef157610100808354040283529160200191610f1c565b820191906000526020600020905b815481529060010190602001808311610eff57829003601f168201915b5050505050905090565b610f38610f316117b7565b8383611da2565b5050565b610f4d610f476117b7565b83611878565b610f8c576040517f08c379a0000000000000000000000000000000000000000000000000000000008152600401610f8390613671565b60405180910390fd5b610f9884848484611f0f565b50505050565b60026008541415610fe4576040517f08c379a0000000000000000000000000000000000000000000000000000000008152600401610fdb906136d1565b60405180910390fd5b6002600881905550600a60019054906101000a900460ff1661103b576040517f08c379a000000000000000000000000000000000000000000000000000000000815260040161103290613631565b60405180910390fd5b611043610e6a565b73ffffffffffffffffffffffffffffffffffffffff1661106283610bc0565b73ffffffffffffffffffffffffffffffffffffffff16146110b8576040517f08c379a00000000000000000000000000000000000000000000000000000000081526004016110af90613691565b60405180910390fd5b6000600b600084815260200190815260200160002054905060005b60038110156113435781600c60009054906101000a900473ffffffffffffffffffffffffffffffffffffffff1673ffffffffffffffffffffffffffffffffffffffff16638b67d47d858481518110611154577f4e487b7100000000000000000000000000000000000000000000000000000000600052603260045260246000fd5b60200260200101516040518263ffffffff1660e01b81526004016111789190613711565b60206040518083038186803b15801561119057600080fd5b505afa1580156111a4573d6000803e3d6000fd5b505050506040513d601f19601f820116820180604052508101906111c89190612e2e565b1480156112f157506111d86117b7565b73ffffffffffffffffffffffffffffffffffffffff16600c60009054906101000a900473ffffffffffffffffffffffffffffffffffffffff1673ffffffffffffffffffffffffffffffffffffffff16636352211e858481518110611265577f4e487b7100000000000000000000000000000000000000000000000000000000600052603260045260246000fd5b60200260200101516040518263ffffffff1660e01b81526004016112899190613711565b60206040518083038186803b1580156112a157600080fd5b505afa1580156112b5573d6000803e3d6000fd5b505050506040513d601f19601f820116820180604052508101906112d99190612b7c565b73ffffffffffffffffffffffffffffffffffffffff16145b611330576040517f08c379a0000000000000000000000000000000000000000000000000000000008152600401611327906134b1565b60405180910390fd5b808061133b906139f6565b9150506110d3565b5061135d61134f610e6a565b6113576117b7565b85610b3e565b5060016008819055505050565b60606113758261174b565b6113b4576040517f08c379a00000000000000000000000000000000000000000000000000000000081526004016113ab906135b1565b60405180910390fd5b60006006600084815260200190815260200160002080546113d490613993565b80601f016020809104026020016040519081016040528092919081815260200182805461140090613993565b801561144d5780601f106114225761010080835404028352916020019161144d565b820191906000526020600020905b81548152906001019060200180831161143057829003601f168201915b50505050509050600061145e611f6b565b90506000815114156114745781925050506114b7565b6000825111156114a9578082604051602001611491929190613309565b604051602081830303815290604052925050506114b7565b6114b284611f82565b925050505b919050565b6000600560008473ffffffffffffffffffffffffffffffffffffffff1673ffffffffffffffffffffffffffffffffffffffff16815260200190815260200160002060008373ffffffffffffffffffffffffffffffffffffffff1673ffffffffffffffffffffffffffffffffffffffff16815260200190815260200160002060009054906101000a900460ff16905092915050565b6115586117b7565b73ffffffffffffffffffffffffffffffffffffffff16611576610e6a565b73ffffffffffffffffffffffffffffffffffffffff16146115cc576040517f08c379a00000000000000000000000000000000000000000000000000000000081526004016115c3906135f1565b60405180910390fd5b80600a60006101000a81548160ff02191690831515021790555050565b6115f16117b7565b73ffffffffffffffffffffffffffffffffffffffff1661160f610e6a565b73ffffffffffffffffffffffffffffffffffffffff1614611665576040517f08c379a000000000000000000000000000000000000000000000000000000000815260040161165c906135f1565b60405180910390fd5b600073ffffffffffffffffffffffffffffffffffffffff168173ffffffffffffffffffffffffffffffffffffffff1614156116d5576040517f08c379a00000000000000000000000000000000000000000000000000000000081526004016116cc90613411565b60405180910390fd5b6116de81611cdc565b50565b60007f01ffc9a7000000000000000000000000000000000000000000000000000000007bffffffffffffffffffffffffffffffffffffffffffffffffffffffff1916827bffffffffffffffffffffffffffffffffffffffffffffffffffffffff1916149050919050565b60008073ffffffffffffffffffffffffffffffffffffffff166002600084815260200190815260200160002060009054906101000a900473ffffffffffffffffffffffffffffffffffffffff1673ffffffffffffffffffffffffffffffffffffffff1614159050919050565b600033905090565b816004600083815260200190815260200160002060006101000a81548173ffffffffffffffffffffffffffffffffffffffff021916908373ffffffffffffffffffffffffffffffffffffffff160217905550808273ffffffffffffffffffffffffffffffffffffffff1661183283610bc0565b73ffffffffffffffffffffffffffffffffffffffff167f8c5be1e5ebec7d5bd14f71427d1e84f3dd0314c0f7b2291e5b200ac8c7c3b92560405160405180910390a45050565b60006118838261174b565b6118c2576040517f08c379a00000000000000000000000000000000000000000000000000000000081526004016118b9906134d1565b60405180910390fd5b60006118cd83610bc0565b90508073ffffffffffffffffffffffffffffffffffffffff168473ffffffffffffffffffffffffffffffffffffffff16148061193c57508373ffffffffffffffffffffffffffffffffffffffff166119248461075b565b73ffffffffffffffffffffffffffffffffffffffff16145b8061194d575061194c81856114bc565b5b91505092915050565b8273ffffffffffffffffffffffffffffffffffffffff1661197682610bc0565b73ffffffffffffffffffffffffffffffffffffffff16146119cc576040517f08c379a00000000000000000000000000000000000000000000000000000000081526004016119c390613431565b60405180910390fd5b600073ffffffffffffffffffffffffffffffffffffffff168273ffffffffffffffffffffffffffffffffffffffff161415611a3c576040517f08c379a0000000000000000000000000000000000000000000000000000000008152600401611a3390613471565b60405180910390fd5b611a47838383612029565b611a526000826117bf565b6001600360008573ffffffffffffffffffffffffffffffffffffffff1673ffffffffffffffffffffffffffffffffffffffff1681526020019081526020016000206000828254611aa291906138a9565b925050819055506001600360008473ffffffffffffffffffffffffffffffffffffffff1673ffffffffffffffffffffffffffffffffffffffff1681526020019081526020016000206000828254611af99190613822565b92505081905550816002600083815260200190815260200160002060006101000a81548173ffffffffffffffffffffffffffffffffffffffff021916908373ffffffffffffffffffffffffffffffffffffffff160217905550808273ffffffffffffffffffffffffffffffffffffffff168473ffffffffffffffffffffffffffffffffffffffff167fddf252ad1be2c89b69c2b068fc378daa952ba7f163c4a11628f55a4df523b3ef60405160405180910390a4611bb88383836121b9565b505050565b600081600001549050919050565b60008183611bd99190613822565b905092915050565b6001816000016000828254019250508190555050565b611c118282604051806020016040528060008152506121be565b5050565b611c1e8261174b565b611c5d576040517f08c379a0000000000000000000000000000000000000000000000000000000008152600401611c5490613551565b60405180910390fd5b80600660008481526020019081526020016000209080519060200190611c84929190612877565b505050565b611c9281612219565b6000600660008381526020019081526020016000208054611cb290613993565b905014611cd957600660008281526020019081526020016000206000611cd891906128fd565b5b50565b6000600760009054906101000a900473ffffffffffffffffffffffffffffffffffffffff16905081600760006101000a81548173ffffffffffffffffffffffffffffffffffffffff021916908373ffffffffffffffffffffffffffffffffffffffff1602179055508173ffffffffffffffffffffffffffffffffffffffff168173ffffffffffffffffffffffffffffffffffffffff167f8be0079c531659141344cd1fd0a4f28419497f9722a3daafe3b4186f6b6457e060405160405180910390a35050565b8173ffffffffffffffffffffffffffffffffffffffff168373ffffffffffffffffffffffffffffffffffffffff161415611e11576040517f08c379a0000000000000000000000000000000000000000000000000000000008152600401611e0890613491565b60405180910390fd5b80600560008573ffffffffffffffffffffffffffffffffffffffff1673ffffffffffffffffffffffffffffffffffffffff16815260200190815260200160002060008473ffffffffffffffffffffffffffffffffffffffff1673ffffffffffffffffffffffffffffffffffffffff16815260200190815260200160002060006101000a81548160ff0219169083151502179055508173ffffffffffffffffffffffffffffffffffffffff168373ffffffffffffffffffffffffffffffffffffffff167f17307eab39ab6107e8899845ad3d59bd9653f200f220920489ca2b5937696c3183604051611f029190613394565b60405180910390a3505050565b611f1a848484611956565b611f2684848484612336565b611f65576040517f08c379a0000000000000000000000000000000000000000000000000000000008152600401611f5c906133f1565b60405180910390fd5b50505050565b606060405180602001604052806000815250905090565b6060611f8d8261174b565b611fcc576040517f08c379a0000000000000000000000000000000000000000000000000000000008152600401611fc390613611565b60405180910390fd5b6000611fd6611f6b565b90506000815111611ff65760405180602001604052806000815250612021565b80612000846124cd565b604051602001612011929190613309565b6040516020818303038152906040525b915050919050565b600a60019054906101000a900460ff1680156120775750612048610e6a565b73ffffffffffffffffffffffffffffffffffffffff168373ffffffffffffffffffffffffffffffffffffffff16145b8061208f5750600a60019054906101000a900460ff16155b6120ce576040517f08c379a00000000000000000000000000000000000000000000000000000000081526004016120c5906136b1565b60405180910390fd5b8273ffffffffffffffffffffffffffffffffffffffff166120ee82610bc0565b73ffffffffffffffffffffffffffffffffffffffff1614612144576040517f08c379a000000000000000000000000000000000000000000000000000000000815260040161213b90613431565b60405180910390fd5b600073ffffffffffffffffffffffffffffffffffffffff168273ffffffffffffffffffffffffffffffffffffffff1614156121b4576040517f08c379a00000000000000000000000000000000000000000000000000000000081526004016121ab90613471565b60405180910390fd5b505050565b505050565b6121c8838361267a565b6121d56000848484612336565b612214576040517f08c379a000000000000000000000000000000000000000000000000000000000815260040161220b906133f1565b60405180910390fd5b505050565b600061222482610bc0565b905061223281600084612029565b61223d6000836117bf565b6001600360008373ffffffffffffffffffffffffffffffffffffffff1673ffffffffffffffffffffffffffffffffffffffff168152602001908152602001600020600082825461228d91906138a9565b925050819055506002600083815260200190815260200160002060006101000a81549073ffffffffffffffffffffffffffffffffffffffff021916905581600073ffffffffffffffffffffffffffffffffffffffff168273ffffffffffffffffffffffffffffffffffffffff167fddf252ad1be2c89b69c2b068fc378daa952ba7f163c4a11628f55a4df523b3ef60405160405180910390a4612332816000846121b9565b5050565b60006123578473ffffffffffffffffffffffffffffffffffffffff16612854565b156124c0578373ffffffffffffffffffffffffffffffffffffffff1663150b7a026123806117b7565b8786866040518563ffffffff1660e01b81526004016123a29493929190613348565b602060405180830381600087803b1580156123bc57600080fd5b505af19250505080156123ed57506040513d601f19601f820116820180604052508101906123ea9190612ddc565b60015b612470573d806000811461241d576040519150601f19603f3d011682016040523d82523d6000602084013e612422565b606091505b50600081511415612468576040517f08c379a000000000000000000000000000000000000000000000000000000000815260040161245f906133f1565b60405180910390fd5b805181602001fd5b63150b7a0260e01b7bffffffffffffffffffffffffffffffffffffffffffffffffffffffff1916817bffffffffffffffffffffffffffffffffffffffffffffffffffffffff1916149150506124c5565b600190505b949350505050565b60606000821415612515576040518060400160405280600181526020017f30000000000000000000000000000000000000000000000000000000000000008152509050612675565b600082905060005b60008214612547578080612530906139f6565b915050600a826125409190613878565b915061251d565b60008167ffffffffffffffff811115612589577f4e487b7100000000000000000000000000000000000000000000000000000000600052604160045260246000fd5b6040519080825280601f01601f1916602001820160405280156125bb5781602001600182028036833780820191505090505b5090505b6000851461266e576001826125d491906138a9565b9150600a856125e39190613a3f565b60306125ef9190613822565b60f81b81838151811061262b577f4e487b7100000000000000000000000000000000000000000000000000000000600052603260045260246000fd5b60200101907effffffffffffffffffffffffffffffffffffffffffffffffffffffffffffff1916908160001a905350600a856126679190613878565b94506125bf565b8093505050505b919050565b600073ffffffffffffffffffffffffffffffffffffffff168273ffffffffffffffffffffffffffffffffffffffff1614156126ea576040517f08c379a00000000000000000000000000000000000000000000000000000000081526004016126e190613591565b60405180910390fd5b6126f38161174b565b15612733576040517f08c379a000000000000000000000000000000000000000000000000000000000815260040161272a90613451565b60405180910390fd5b61273f60008383612029565b6001600360008473ffffffffffffffffffffffffffffffffffffffff1673ffffffffffffffffffffffffffffffffffffffff168152602001908152602001600020600082825461278f9190613822565b92505081905550816002600083815260200190815260200160002060006101000a81548173ffffffffffffffffffffffffffffffffffffffff021916908373ffffffffffffffffffffffffffffffffffffffff160217905550808273ffffffffffffffffffffffffffffffffffffffff16600073ffffffffffffffffffffffffffffffffffffffff167fddf252ad1be2c89b69c2b068fc378daa952ba7f163c4a11628f55a4df523b3ef60405160405180910390a4612850600083836121b9565b5050565b6000808273ffffffffffffffffffffffffffffffffffffffff163b119050919050565b82805461288390613993565b90600052602060002090601f0160209004810192826128a557600085556128ec565b82601f106128be57805160ff19168380011785556128ec565b828001600101855582156128ec579182015b828111156128eb5782518255916020019190600101906128d0565b5b5090506128f9919061293d565b5090565b50805461290990613993565b6000825580601f1061291b575061293a565b601f016020900490600052602060002090810190612939919061293d565b5b50565b5b8082111561295657600081600090555060010161293e565b5090565b600061296d61296884613751565b61372c565b9050808382526020820190508285602086028201111561298c57600080fd5b60005b858110156129bc57816129a28882612b29565b84526020840193506020830192505060018101905061298f565b5050509392505050565b60006129d96129d48461377d565b61372c565b9050828152602081018484840111156129f157600080fd5b6129fc848285613951565b509392505050565b6000612a17612a12846137ae565b61372c565b905082815260208101848484011115612a2f57600080fd5b612a3a848285613951565b509392505050565b600081359050612a51816141ed565b92915050565b600081519050612a66816141ed565b92915050565b600082601f830112612a7d57600080fd5b8135612a8d84826020860161295a565b91505092915050565b600081359050612aa581614204565b92915050565b600081359050612aba8161421b565b92915050565b600081519050612acf8161421b565b92915050565b600082601f830112612ae657600080fd5b8135612af68482602086016129c6565b91505092915050565b600082601f830112612b1057600080fd5b8135612b20848260208601612a04565b91505092915050565b600081359050612b3881614232565b92915050565b600081519050612b4d81614232565b92915050565b600060208284031215612b6557600080fd5b6000612b7384828501612a42565b91505092915050565b600060208284031215612b8e57600080fd5b6000612b9c84828501612a57565b91505092915050565b60008060408385031215612bb857600080fd5b6000612bc685828601612a42565b9250506020612bd785828601612a42565b9150509250929050565b600080600060608486031215612bf657600080fd5b6000612c0486828701612a42565b9350506020612c1586828701612a42565b9250506040612c2686828701612b29565b9150509250925092565b60008060008060808587031215612c4657600080fd5b6000612c5487828801612a42565b9450506020612c6587828801612a42565b9350506040612c7687828801612b29565b925050606085013567ffffffffffffffff811115612c9357600080fd5b612c9f87828801612ad5565b91505092959194509250565b60008060408385031215612cbe57600080fd5b6000612ccc85828601612a42565b9250506020612cdd85828601612a96565b9150509250929050565b600080600060608486031215612cfc57600080fd5b6000612d0a86828701612a42565b935050602084013567ffffffffffffffff811115612d2757600080fd5b612d3386828701612aff565b9250506040612d4486828701612b29565b9150509250925092565b60008060408385031215612d6157600080fd5b6000612d6f85828601612a42565b9250506020612d8085828601612b29565b9150509250929050565b600060208284031215612d9c57600080fd5b6000612daa84828501612a96565b91505092915050565b600060208284031215612dc557600080fd5b6000612dd384828501612aab565b91505092915050565b600060208284031215612dee57600080fd5b6000612dfc84828501612ac0565b91505092915050565b600060208284031215612e1757600080fd5b6000612e2584828501612b29565b91505092915050565b600060208284031215612e4057600080fd5b6000612e4e84828501612b3e565b91505092915050565b60008060408385031215612e6a57600080fd5b6000612e7885828601612b29565b925050602083013567ffffffffffffffff811115612e9557600080fd5b612ea185828601612a6c565b9150509250929050565b612eb4816138dd565b82525050565b612ec3816138ef565b82525050565b6000612ed4826137df565b612ede81856137f5565b9350612eee818560208601613960565b612ef781613b2c565b840191505092915050565b6000612f0d826137ea565b612f178185613806565b9350612f27818560208601613960565b612f3081613b2c565b840191505092915050565b6000612f46826137ea565b612f508185613817565b9350612f60818560208601613960565b80840191505092915050565b6000612f79601783613806565b9150612f8482613b3d565b602082019050919050565b6000612f9c603283613806565b9150612fa782613b66565b604082019050919050565b6000612fbf602683613806565b9150612fca82613bb5565b604082019050919050565b6000612fe2602583613806565b9150612fed82613c04565b604082019050919050565b6000613005601c83613806565b915061301082613c53565b602082019050919050565b6000613028602483613806565b915061303382613c7c565b604082019050919050565b600061304b601983613806565b915061305682613ccb565b602082019050919050565b600061306e602d83613806565b915061307982613cf4565b604082019050919050565b6000613091602c83613806565b915061309c82613d43565b604082019050919050565b60006130b4603883613806565b91506130bf82613d92565b604082019050919050565b60006130d7602a83613806565b91506130e282613de1565b604082019050919050565b60006130fa602983613806565b915061310582613e30565b604082019050919050565b600061311d602e83613806565b915061312882613e7f565b604082019050919050565b6000613140602b83613806565b915061314b82613ece565b604082019050919050565b6000613163602083613806565b915061316e82613f1d565b602082019050919050565b6000613186603183613806565b915061319182613f46565b604082019050919050565b60006131a9602c83613806565b91506131b482613f95565b604082019050919050565b60006131cc602083613806565b91506131d782613fe4565b602082019050919050565b60006131ef602f83613806565b91506131fa8261400d565b604082019050919050565b6000613212601383613806565b915061321d8261405c565b602082019050919050565b6000613235602183613806565b915061324082614085565b604082019050919050565b6000613258603183613806565b9150613263826140d4565b604082019050919050565b600061327b601783613806565b915061328682614123565b602082019050919050565b600061329e601683613806565b91506132a98261414c565b602082019050919050565b60006132c1601f83613806565b91506132cc82614175565b602082019050919050565b60006132e4603083613806565b91506132ef8261419e565b604082019050919050565b61330381613947565b82525050565b60006133158285612f3b565b91506133218284612f3b565b91508190509392505050565b60006020820190506133426000830184612eab565b92915050565b600060808201905061335d6000830187612eab565b61336a6020830186612eab565b61337760408301856132fa565b81810360608301526133898184612ec9565b905095945050505050565b60006020820190506133a96000830184612eba565b92915050565b600060208201905081810360008301526133c98184612f02565b905092915050565b600060208201905081810360008301526133ea81612f6c565b9050919050565b6000602082019050818103600083015261340a81612f8f565b9050919050565b6000602082019050818103600083015261342a81612fb2565b9050919050565b6000602082019050818103600083015261344a81612fd5565b9050919050565b6000602082019050818103600083015261346a81612ff8565b9050919050565b6000602082019050818103600083015261348a8161301b565b9050919050565b600060208201905081810360008301526134aa8161303e565b9050919050565b600060208201905081810360008301526134ca81613061565b9050919050565b600060208201905081810360008301526134ea81613084565b9050919050565b6000602082019050818103600083015261350a816130a7565b9050919050565b6000602082019050818103600083015261352a816130ca565b9050919050565b6000602082019050818103600083015261354a816130ed565b9050919050565b6000602082019050818103600083015261356a81613110565b9050919050565b6000602082019050818103600083015261358a81613133565b9050919050565b600060208201905081810360008301526135aa81613156565b9050919050565b600060208201905081810360008301526135ca81613179565b9050919050565b600060208201905081810360008301526135ea8161319c565b9050919050565b6000602082019050818103600083015261360a816131bf565b9050919050565b6000602082019050818103600083015261362a816131e2565b9050919050565b6000602082019050818103600083015261364a81613205565b9050919050565b6000602082019050818103600083015261366a81613228565b9050919050565b6000602082019050818103600083015261368a8161324b565b9050919050565b600060208201905081810360008301526136aa8161326e565b9050919050565b600060208201905081810360008301526136ca81613291565b9050919050565b600060208201905081810360008301526136ea816132b4565b9050919050565b6000602082019050818103600083015261370a816132d7565b9050919050565b600060208201905061372660008301846132fa565b92915050565b6000613736613747565b905061374282826139c5565b919050565b6000604051905090565b600067ffffffffffffffff82111561376c5761376b613afd565b5b602082029050602081019050919050565b600067ffffffffffffffff82111561379857613797613afd565b5b6137a182613b2c565b9050602081019050919050565b600067ffffffffffffffff8211156137c9576137c8613afd565b5b6137d282613b2c565b9050602081019050919050565b600081519050919050565b600081519050919050565b600082825260208201905092915050565b600082825260208201905092915050565b600081905092915050565b600061382d82613947565b915061383883613947565b9250827fffffffffffffffffffffffffffffffffffffffffffffffffffffffffffffffff0382111561386d5761386c613a70565b5b828201905092915050565b600061388382613947565b915061388e83613947565b92508261389e5761389d613a9f565b5b828204905092915050565b60006138b482613947565b91506138bf83613947565b9250828210156138d2576138d1613a70565b5b828203905092915050565b60006138e882613927565b9050919050565b60008115159050919050565b60007fffffffff0000000000000000000000000000000000000000000000000000000082169050919050565b600073ffffffffffffffffffffffffffffffffffffffff82169050919050565b6000819050919050565b82818337600083830152505050565b60005b8381101561397e578082015181840152602081019050613963565b8381111561398d576000848401525b50505050565b600060028204905060018216806139ab57607f821691505b602082108114156139bf576139be613ace565b5b50919050565b6139ce82613b2c565b810181811067ffffffffffffffff821117156139ed576139ec613afd565b5b80604052505050565b6000613a0182613947565b91507fffffffffffffffffffffffffffffffffffffffffffffffffffffffffffffffff821415613a3457613a33613a70565b5b600182019050919050565b6000613a4a82613947565b9150613a5583613947565b925082613a6557613a64613a9f565b5b828206905092915050565b7f4e487b7100000000000000000000000000000000000000000000000000000000600052601160045260246000fd5b7f4e487b7100000000000000000000000000000000000000000000000000000000600052601260045260246000fd5b7f4e487b7100000000000000000000000000000000000000000000000000000000600052602260045260246000fd5b7f4e487b7100000000000000000000000000000000000000000000000000000000600052604160045260246000fd5b6000601f19601f8301169050919050565b7f4d696e74696e67206973206e6f7420616c6c6f7765642e000000000000000000600082015250565b7f4552433732313a207472616e7366657220746f206e6f6e20455243373231526560008201527f63656976657220696d706c656d656e7465720000000000000000000000000000602082015250565b7f4f776e61626c653a206e6577206f776e657220697320746865207a65726f206160008201527f6464726573730000000000000000000000000000000000000000000000000000602082015250565b7f4552433732313a207472616e736665722066726f6d20696e636f72726563742060008201527f6f776e6572000000000000000000000000000000000000000000000000000000602082015250565b7f4552433732313a20746f6b656e20616c7265616479206d696e74656400000000600082015250565b7f4552433732313a207472616e7366657220746f20746865207a65726f2061646460008201527f7265737300000000000000000000000000000000000000000000000000000000602082015250565b7f4552433732313a20617070726f766520746f2063616c6c657200000000000000600082015250565b7f4e6f7420656c696769626c6520666f72204d6574614d6172726961676520776960008201527f7468207468697320436869636b00000000000000000000000000000000000000602082015250565b7f4552433732313a206f70657261746f7220717565727920666f72206e6f6e657860008201527f697374656e7420746f6b656e0000000000000000000000000000000000000000602082015250565b7f4552433732313a20617070726f76652063616c6c6572206973206e6f74206f7760008201527f6e6572206e6f7220617070726f76656420666f7220616c6c0000000000000000602082015250565b7f4552433732313a2062616c616e636520717565727920666f7220746865207a6560008201527f726f206164647265737300000000000000000000000000000000000000000000602082015250565b7f4552433732313a206f776e657220717565727920666f72206e6f6e657869737460008201527f656e7420746f6b656e0000000000000000000000000000000000000000000000602082015250565b7f45524337323155524953746f726167653a2055524920736574206f66206e6f6e60008201527f6578697374656e7420746f6b656e000000000000000000000000000000000000602082015250565b7f54686973206d696e7420776f756c6420657863656564206d617820737570706c60008201527f79206f6620576169667573000000000000000000000000000000000000000000602082015250565b7f4552433732313a206d696e7420746f20746865207a65726f2061646472657373600082015250565b7f45524337323155524953746f726167653a2055524920717565727920666f722060008201527f6e6f6e6578697374656e7420746f6b656e000000000000000000000000000000602082015250565b7f4552433732313a20617070726f76656420717565727920666f72206e6f6e657860008201527f697374656e7420746f6b656e0000000000000000000000000000000000000000602082015250565b7f4f776e61626c653a2063616c6c6572206973206e6f7420746865206f776e6572600082015250565b7f4552433732314d657461646174613a2055524920717565727920666f72206e6f60008201527f6e6578697374656e7420746f6b656e0000000000000000000000000000000000602082015250565b7f53616c65206973206e6f74206163746976652e00000000000000000000000000600082015250565b7f4552433732313a20617070726f76616c20746f2063757272656e74206f776e6560008201527f7200000000000000000000000000000000000000000000000000000000000000602082015250565b7f4552433732313a207472616e736665722063616c6c6572206973206e6f74206f60008201527f776e6572206e6f7220617070726f766564000000000000000000000000000000602082015250565b7f496e76616c696420746f6b656e20666f722073616c652e000000000000000000600082015250565b7f496e76616c6964205472616e736665722043616c6c2100000000000000000000600082015250565b7f5265656e7472616e637947756172643a207265656e7472616e742063616c6c00600082015250565b7f4552433732314275726e61626c653a2063616c6c6572206973206e6f74206f7760008201527f6e6572206e6f7220617070726f76656400000000000000000000000000000000602082015250565b6141f6816138dd565b811461420157600080fd5b50565b61420d816138ef565b811461421857600080fd5b50565b614224816138fb565b811461422f57600080fd5b50565b61423b81613947565b811461424657600080fd5b5056fea264697066735822122063896f6ca8cafaf4d7d51240b6dbea303c9750fee03d1561cdb14cc9f326aa3864736f6c63430008010033",
  "linkReferences": {},
  "deployedLinkReferences": {}
}