{
  "_format": "hh-sol-artifact-1",
  "contractName": "Seductions",
  "sourceName": "contracts/Seductions.sol",
  "abi": [
    {
      "inputs": [],
      "stateMutability": "nonpayable",
      "type": "constructor"
    },
    {
      "anonymous": false,
      "inputs": [
        {
          "indexed": true,
          "internalType": "address",
          "name": "owner",
          "type": "address"
        },
        {
          "indexed": true,
          "internalType": "address",
          "name": "approved",
          "type": "address"
        },
        {
          "indexed": true,
          "internalType": "uint256",
          "name": "tokenId",
          "type": "uint256"
        }
      ],
      "name": "Approval",
      "type": "event"
    },
    {
      "anonymous": false,
      "inputs": [
        {
          "indexed": true,
          "internalType": "address",
          "name": "owner",
          "type": "address"
        },
        {
          "indexed": true,
          "internalType": "address",
          "name": "operator",
          "type": "address"
        },
        {
          "indexed": false,
          "internalType": "bool",
          "name": "approved",
          "type": "bool"
        }
      ],
      "name": "ApprovalForAll",
      "type": "event"
    },
    {
      "anonymous": false,
      "inputs": [
        {
          "indexed": true,
          "internalType": "address",
          "name": "previousOwner",
          "type": "address"
        },
        {
          "indexed": true,
          "internalType": "address",
          "name": "newOwner",
          "type": "address"
        }
      ],
      "name": "OwnershipTransferred",
      "type": "event"
    },
    {
      "anonymous": false,
      "inputs": [
        {
          "indexed": true,
          "internalType": "address",
          "name": "from",
          "type": "address"
        },
        {
          "indexed": true,
          "internalType": "address",
          "name": "to",
          "type": "address"
        },
        {
          "indexed": true,
          "internalType": "uint256",
          "name": "tokenId",
          "type": "uint256"
        }
      ],
      "name": "Transfer",
      "type": "event"
    },
    {
      "inputs": [],
      "name": "MAX_SEDUCTIONS",
      "outputs": [
        {
          "internalType": "uint256",
          "name": "",
          "type": "uint256"
        }
      ],
      "stateMutability": "view",
      "type": "function"
    },
    {
      "inputs": [],
      "name": "MAX_SEDUCTIONS_SALE_CAP",
      "outputs": [
        {
          "internalType": "uint256",
          "name": "",
          "type": "uint256"
        }
      ],
      "stateMutability": "view",
      "type": "function"
    },
    {
      "inputs": [],
      "name": "SEDUCTIONS_FOR_WAIFU",
      "outputs": [
        {
          "internalType": "uint256",
          "name": "",
          "type": "uint256"
        }
      ],
      "stateMutability": "view",
      "type": "function"
    },
    {
      "inputs": [
        {
          "internalType": "address",
          "name": "user",
          "type": "address"
        }
      ],
      "name": "addToWhiteList",
      "outputs": [],
      "stateMutability": "nonpayable",
      "type": "function"
    },
    {
      "inputs": [
        {
          "internalType": "address",
          "name": "to",
          "type": "address"
        },
        {
          "internalType": "uint256",
          "name": "tokenId",
          "type": "uint256"
        }
      ],
      "name": "approve",
      "outputs": [],
      "stateMutability": "nonpayable",
      "type": "function"
    },
    {
      "inputs": [
        {
          "internalType": "address",
          "name": "owner",
          "type": "address"
        }
      ],
      "name": "balanceOf",
      "outputs": [
        {
          "internalType": "uint256",
          "name": "",
          "type": "uint256"
        }
      ],
      "stateMutability": "view",
      "type": "function"
    },
    {
      "inputs": [
        {
          "internalType": "uint256",
          "name": "tokenId",
          "type": "uint256"
        }
      ],
      "name": "burn",
      "outputs": [],
      "stateMutability": "nonpayable",
      "type": "function"
    },
    {
      "inputs": [
        {
          "internalType": "address",
          "name": "holder",
          "type": "address"
        },
        {
          "internalType": "uint256",
          "name": "trait",
          "type": "uint256"
        }
      ],
      "name": "checkChickTraitCount",
      "outputs": [
        {
          "internalType": "bool",
          "name": "",
          "type": "bool"
        }
      ],
      "stateMutability": "view",
      "type": "function"
    },
    {
      "inputs": [
        {
          "internalType": "uint256",
          "name": "tokenId",
          "type": "uint256"
        }
      ],
      "name": "getApproved",
      "outputs": [
        {
          "internalType": "address",
          "name": "",
          "type": "address"
        }
      ],
      "stateMutability": "view",
      "type": "function"
    },
    {
      "inputs": [
        {
          "internalType": "uint256",
          "name": "tokenId",
          "type": "uint256"
        }
      ],
      "name": "getChickTraitofTokenId",
      "outputs": [
        {
          "internalType": "uint256",
          "name": "",
          "type": "uint256"
        }
      ],
      "stateMutability": "view",
      "type": "function"
    },
    {
      "inputs": [
        {
          "internalType": "address",
          "name": "owner",
          "type": "address"
        },
        {
          "internalType": "address",
          "name": "operator",
          "type": "address"
        }
      ],
      "name": "isApprovedForAll",
      "outputs": [
        {
          "internalType": "bool",
          "name": "",
          "type": "bool"
        }
      ],
      "stateMutability": "view",
      "type": "function"
    },
    {
      "inputs": [
        {
          "internalType": "address",
          "name": "addr",
          "type": "address"
        }
      ],
      "name": "isInWhiteList",
      "outputs": [
        {
          "internalType": "bool",
          "name": "",
          "type": "bool"
        }
      ],
      "stateMutability": "view",
      "type": "function"
    },
    {
      "inputs": [],
      "name": "mintActive",
      "outputs": [
        {
          "internalType": "bool",
          "name": "",
          "type": "bool"
        }
      ],
      "stateMutability": "view",
      "type": "function"
    },
    {
      "inputs": [
        {
          "internalType": "address",
          "name": "recipient",
          "type": "address"
        },
        {
          "internalType": "string",
          "name": "tokenURI",
          "type": "string"
        },
        {
          "internalType": "uint256",
          "name": "trait",
          "type": "uint256"
        }
      ],
      "name": "mintSeduction",
      "outputs": [
        {
          "internalType": "uint256",
          "name": "",
          "type": "uint256"
        }
      ],
      "stateMutability": "nonpayable",
      "type": "function"
    },
    {
      "inputs": [],
      "name": "name",
      "outputs": [
        {
          "internalType": "string",
          "name": "",
          "type": "string"
        }
      ],
      "stateMutability": "view",
      "type": "function"
    },
    {
      "inputs": [],
      "name": "owner",
      "outputs": [
        {
          "internalType": "address",
          "name": "",
          "type": "address"
        }
      ],
      "stateMutability": "view",
      "type": "function"
    },
    {
      "inputs": [
        {
          "internalType": "uint256",
          "name": "tokenId",
          "type": "uint256"
        }
      ],
      "name": "ownerOf",
      "outputs": [
        {
          "internalType": "address",
          "name": "",
          "type": "address"
        }
      ],
      "stateMutability": "view",
      "type": "function"
    },
    {
      "inputs": [
        {
          "internalType": "address",
          "name": "user",
          "type": "address"
        }
      ],
      "name": "removeFromWhiteList",
      "outputs": [],
      "stateMutability": "nonpayable",
      "type": "function"
    },
    {
      "inputs": [],
      "name": "renounceOwnership",
      "outputs": [],
      "stateMutability": "nonpayable",
      "type": "function"
    },
    {
      "inputs": [
        {
          "internalType": "address",
          "name": "from",
          "type": "address"
        },
        {
          "internalType": "address",
          "name": "to",
          "type": "address"
        },
        {
          "internalType": "uint256",
          "name": "tokenId",
          "type": "uint256"
        }
      ],
      "name": "safeTransferFrom",
      "outputs": [],
      "stateMutability": "nonpayable",
      "type": "function"
    },
    {
      "inputs": [
        {
          "internalType": "address",
          "name": "from",
          "type": "address"
        },
        {
          "internalType": "address",
          "name": "to",
          "type": "address"
        },
        {
          "internalType": "uint256",
          "name": "tokenId",
          "type": "uint256"
        },
        {
          "internalType": "bytes",
          "name": "_data",
          "type": "bytes"
        }
      ],
      "name": "safeTransferFrom",
      "outputs": [],
      "stateMutability": "nonpayable",
      "type": "function"
    },
    {
      "inputs": [
        {
          "internalType": "uint256",
          "name": "tokenId",
          "type": "uint256"
        }
      ],
      "name": "sale",
      "outputs": [],
      "stateMutability": "payable",
      "type": "function"
    },
    {
      "inputs": [],
      "name": "saleActive",
      "outputs": [
        {
          "internalType": "bool",
          "name": "",
          "type": "bool"
        }
      ],
      "stateMutability": "view",
      "type": "function"
    },
    {
      "inputs": [
        {
          "internalType": "address",
          "name": "operator",
          "type": "address"
        },
        {
          "internalType": "bool",
          "name": "approved",
          "type": "bool"
        }
      ],
      "name": "setApprovalForAll",
      "outputs": [],
      "stateMutability": "nonpayable",
      "type": "function"
    },
    {
      "inputs": [
        {
          "internalType": "bool",
          "name": "_active",
          "type": "bool"
        }
      ],
      "name": "setMintActive",
      "outputs": [],
      "stateMutability": "nonpayable",
      "type": "function"
    },
    {
      "inputs": [
        {
          "internalType": "bool",
          "name": "_active",
          "type": "bool"
        }
      ],
      "name": "setSaleActive",
      "outputs": [],
      "stateMutability": "nonpayable",
      "type": "function"
    },
    {
      "inputs": [
        {
          "internalType": "bytes4",
          "name": "interfaceId",
          "type": "bytes4"
        }
      ],
      "name": "supportsInterface",
      "outputs": [
        {
          "internalType": "bool",
          "name": "",
          "type": "bool"
        }
      ],
      "stateMutability": "view",
      "type": "function"
    },
    {
      "inputs": [],
      "name": "symbol",
      "outputs": [
        {
          "internalType": "string",
          "name": "",
          "type": "string"
        }
      ],
      "stateMutability": "view",
      "type": "function"
    },
    {
      "inputs": [],
      "name": "tokenSupply",
      "outputs": [
        {
          "internalType": "uint256",
          "name": "_value",
          "type": "uint256"
        }
      ],
      "stateMutability": "view",
      "type": "function"
    },
    {
      "inputs": [
        {
          "internalType": "uint256",
          "name": "tokenId",
          "type": "uint256"
        }
      ],
      "name": "tokenURI",
      "outputs": [
        {
          "internalType": "string",
          "name": "",
          "type": "string"
        }
      ],
      "stateMutability": "view",
      "type": "function"
    },
    {
      "inputs": [
        {
          "internalType": "address",
          "name": "from",
          "type": "address"
        },
        {
          "internalType": "address",
          "name": "to",
          "type": "address"
        },
        {
          "internalType": "uint256",
          "name": "tokenId",
          "type": "uint256"
        }
      ],
      "name": "transferFrom",
      "outputs": [],
      "stateMutability": "nonpayable",
      "type": "function"
    },
    {
      "inputs": [
        {
          "internalType": "address",
          "name": "newOwner",
          "type": "address"
        }
      ],
      "name": "transferOwnership",
      "outputs": [],
      "stateMutability": "nonpayable",
      "type": "function"
    },
    {
      "inputs": [],
      "name": "whiteListCount",
      "outputs": [
        {
          "internalType": "uint256",
          "name": "_value",
          "type": "uint256"
        }
      ],
      "stateMutability": "view",
      "type": "function"
    }
  ],
  "bytecode": "0x60806040526001600b60006101000a81548160ff0219169083151502179055506000600b60016101000a81548160ff0219169083151502179055503480156200004757600080fd5b506040518060400160405280600a81526020017f536564756374696f6e73000000000000000000000000000000000000000000008152506040518060400160405280600381526020017f53445400000000000000000000000000000000000000000000000000000000008152508160009080519060200190620000cc929190620001e4565b508060019080519060200190620000e5929190620001e4565b50505062000108620000fc6200011660201b60201c565b6200011e60201b60201c565b6001600881905550620002f9565b600033905090565b6000600760009054906101000a900473ffffffffffffffffffffffffffffffffffffffff16905081600760006101000a81548173ffffffffffffffffffffffffffffffffffffffff021916908373ffffffffffffffffffffffffffffffffffffffff1602179055508173ffffffffffffffffffffffffffffffffffffffff168173ffffffffffffffffffffffffffffffffffffffff167f8be0079c531659141344cd1fd0a4f28419497f9722a3daafe3b4186f6b6457e060405160405180910390a35050565b828054620001f29062000294565b90600052602060002090601f01602090048101928262000216576000855562000262565b82601f106200023157805160ff191683800117855562000262565b8280016001018555821562000262579182015b828111156200026157825182559160200191906001019062000244565b5b50905062000271919062000275565b5090565b5b808211156200029057600081600090555060010162000276565b5090565b60006002820490506001821680620002ad57607f821691505b60208210811415620002c457620002c3620002ca565b5b50919050565b7f4e487b7100000000000000000000000000000000000000000000000000000000600052602260045260246000fd5b61482080620003096000396000f3fe6080604052600436106101ee5760003560e01c806373e3c82f1161010d5780639a5acc22116100a0578063b88d4fde1161006f578063b88d4fde14610704578063c87b56dd1461072d578063e985e9c51461076a578063ee1cc944146107a7578063f2fde38b146107d0576101ee565b80639a5acc2214610636578063a22cb46514610673578063a51605c01461069c578063a8415a5b146106c7576101ee565b80638da5cb5b116100dc5780638da5cb5b1461058757806395d89b41146105b257806396032702146105dd57806396bfc229146105f9576101ee565b806373e3c82f146104cb5780637824407f146104f6578063841718a6146105215780638b67d47d1461054a576101ee565b8063399dccb6116101855780636352211e116101545780636352211e1461040f57806368428a1b1461044c57806370a0823114610477578063715018a6146104b4576101ee565b8063399dccb61461036957806342842e0e1461039457806342966c68146103bd57806347ee0394146103e6576101ee565b8063095ea7b3116101c1578063095ea7b3146102c15780630fa1658b146102ea57806323b872dd1461031557806325fd90f31461033e576101ee565b806301bf6648146101f357806301ffc9a71461021c57806306fdde0314610259578063081812fc14610284575b600080fd5b3480156101ff57600080fd5b5061021a60048036038101906102159190613036565b6107f9565b005b34801561022857600080fd5b50610243600480360381019061023e919061326d565b6109e3565b604051610250919061383a565b60405180910390f35b34801561026557600080fd5b5061026e610ac5565b60405161027b9190613855565b60405180910390f35b34801561029057600080fd5b506102ab60048036038101906102a691906132bf565b610b57565b6040516102b891906137d3565b60405180910390f35b3480156102cd57600080fd5b506102e860048036038101906102e39190613208565b610bdc565b005b3480156102f657600080fd5b506102ff610cf4565b60405161030c9190613c17565b60405180910390f35b34801561032157600080fd5b5061033c6004803603810190610337919061309b565b610cf9565b005b34801561034a57600080fd5b50610353610d59565b604051610360919061383a565b60405180910390f35b34801561037557600080fd5b5061037e610d6c565b60405161038b9190613c17565b60405180910390f35b3480156103a057600080fd5b506103bb60048036038101906103b6919061309b565b610d78565b005b3480156103c957600080fd5b506103e460048036038101906103df91906132bf565b610d98565b005b3480156103f257600080fd5b5061040d60048036038101906104089190613036565b610df4565b005b34801561041b57600080fd5b50610436600480360381019061043191906132bf565b610f6e565b60405161044391906137d3565b60405180910390f35b34801561045857600080fd5b50610461611020565b60405161046e919061383a565b60405180910390f35b34801561048357600080fd5b5061049e60048036038101906104999190613036565b611033565b6040516104ab9190613c17565b60405180910390f35b3480156104c057600080fd5b506104c96110eb565b005b3480156104d757600080fd5b506104e0611173565b6040516104ed9190613c17565b60405180910390f35b34801561050257600080fd5b5061050b611178565b6040516105189190613c17565b60405180910390f35b34801561052d57600080fd5b5061054860048036038101906105439190613244565b611184565b005b34801561055657600080fd5b50610571600480360381019061056c91906132bf565b61121d565b60405161057e9190613c17565b60405180910390f35b34801561059357600080fd5b5061059c61123a565b6040516105a991906137d3565b60405180910390f35b3480156105be57600080fd5b506105c7611264565b6040516105d49190613855565b60405180910390f35b6105f760048036038101906105f291906132bf565b6112f6565b005b34801561060557600080fd5b50610620600480360381019061061b9190613036565b61152f565b60405161062d919061383a565b60405180910390f35b34801561064257600080fd5b5061065d600480360381019061065891906131a1565b61158b565b60405161066a9190613c17565b60405180910390f35b34801561067f57600080fd5b5061069a60048036038101906106959190613165565b61175e565b005b3480156106a857600080fd5b506106b1611774565b6040516106be9190613c17565b60405180910390f35b3480156106d357600080fd5b506106ee60048036038101906106e99190613208565b61177a565b6040516106fb919061383a565b60405180910390f35b34801561071057600080fd5b5061072b600480360381019061072691906130ea565b61184f565b005b34801561073957600080fd5b50610754600480360381019061074f91906132bf565b6118b1565b6040516107619190613855565b60405180910390f35b34801561077657600080fd5b50610791600480360381019061078c919061305f565b611a03565b60405161079e919061383a565b60405180910390f35b3480156107b357600080fd5b506107ce60048036038101906107c99190613244565b611a97565b005b3480156107dc57600080fd5b506107f760048036038101906107f29190613036565b611b30565b005b610801611c28565b73ffffffffffffffffffffffffffffffffffffffff1661081f61123a565b73ffffffffffffffffffffffffffffffffffffffff1614610875576040517f08c379a000000000000000000000000000000000000000000000000000000000815260040161086c90613ab7565b60405180910390fd5b61087e8161152f565b6108bd576040517f08c379a00000000000000000000000000000000000000000000000000000000081526004016108b490613a37565b60405180910390fd5b6108c7600a611c30565b80600f60006108d6600a611c8c565b815260200190815260200160002060006101000a81548173ffffffffffffffffffffffffffffffffffffffff021916908373ffffffffffffffffffffffffffffffffffffffff1602179055506000600e60008373ffffffffffffffffffffffffffffffffffffffff1673ffffffffffffffffffffffffffffffffffffffff168152602001908152602001600020549050600e60008373ffffffffffffffffffffffffffffffffffffffff1673ffffffffffffffffffffffffffffffffffffffff16815260200190815260200160002060009055600f600082815260200190815260200160002060006101000a81549073ffffffffffffffffffffffffffffffffffffffff02191690555050565b60007f80ac58cd000000000000000000000000000000000000000000000000000000007bffffffffffffffffffffffffffffffffffffffffffffffffffffffff1916827bffffffffffffffffffffffffffffffffffffffffffffffffffffffff19161480610aae57507f5b5e139f000000000000000000000000000000000000000000000000000000007bffffffffffffffffffffffffffffffffffffffffffffffffffffffff1916827bffffffffffffffffffffffffffffffffffffffffffffffffffffffff1916145b80610abe5750610abd82611c9a565b5b9050919050565b606060008054610ad490613e6d565b80601f0160208091040260200160405190810160405280929190818152602001828054610b0090613e6d565b8015610b4d5780601f10610b2257610100808354040283529160200191610b4d565b820191906000526020600020905b815481529060010190602001808311610b3057829003601f168201915b5050505050905090565b6000610b6282611d04565b610ba1576040517f08c379a0000000000000000000000000000000000000000000000000000000008152600401610b9890613a97565b60405180910390fd5b6004600083815260200190815260200160002060009054906101000a900473ffffffffffffffffffffffffffffffffffffffff169050919050565b6000610be782610f6e565b90508073ffffffffffffffffffffffffffffffffffffffff168373ffffffffffffffffffffffffffffffffffffffff161415610c58576040517f08c379a0000000000000000000000000000000000000000000000000000000008152600401610c4f90613b17565b60405180910390fd5b8073ffffffffffffffffffffffffffffffffffffffff16610c77611c28565b73ffffffffffffffffffffffffffffffffffffffff161480610ca65750610ca581610ca0611c28565b611a03565b5b610ce5576040517f08c379a0000000000000000000000000000000000000000000000000000000008152600401610cdc906139b7565b60405180910390fd5b610cef8383611d70565b505050565b600381565b610d0a610d04611c28565b82611e29565b610d49576040517f08c379a0000000000000000000000000000000000000000000000000000000008152600401610d4090613b37565b60405180910390fd5b610d54838383611f07565b505050565b600b60009054906101000a900460ff1681565b600a8060000154905081565b610d938383836040518060200160405280600081525061184f565b505050565b610da9610da3611c28565b82611e29565b610de8576040517f08c379a0000000000000000000000000000000000000000000000000000000008152600401610ddf90613bf7565b60405180910390fd5b610df18161216e565b50565b610dfc611c28565b73ffffffffffffffffffffffffffffffffffffffff16610e1a61123a565b73ffffffffffffffffffffffffffffffffffffffff1614610e70576040517f08c379a0000000000000000000000000000000000000000000000000000000008152600401610e6790613ab7565b60405180910390fd5b610e798161152f565b15610eb9576040517f08c379a0000000000000000000000000000000000000000000000000000000008152600401610eb090613b97565b60405180910390fd5b610ec3600a6121c1565b80600f6000610ed2600a611c8c565b815260200190815260200160002060006101000a81548173ffffffffffffffffffffffffffffffffffffffff021916908373ffffffffffffffffffffffffffffffffffffffff160217905550610f28600a611c8c565b600e60008373ffffffffffffffffffffffffffffffffffffffff1673ffffffffffffffffffffffffffffffffffffffff1681526020019081526020016000208190555050565b6000806002600084815260200190815260200160002060009054906101000a900473ffffffffffffffffffffffffffffffffffffffff169050600073ffffffffffffffffffffffffffffffffffffffff168173ffffffffffffffffffffffffffffffffffffffff161415611017576040517f08c379a000000000000000000000000000000000000000000000000000000000815260040161100e906139f7565b60405180910390fd5b80915050919050565b600b60019054906101000a900460ff1681565b60008073ffffffffffffffffffffffffffffffffffffffff168273ffffffffffffffffffffffffffffffffffffffff1614156110a4576040517f08c379a000000000000000000000000000000000000000000000000000000000815260040161109b906139d7565b60405180910390fd5b600360008373ffffffffffffffffffffffffffffffffffffffff1673ffffffffffffffffffffffffffffffffffffffff168152602001908152602001600020549050919050565b6110f3611c28565b73ffffffffffffffffffffffffffffffffffffffff1661111161123a565b73ffffffffffffffffffffffffffffffffffffffff1614611167576040517f08c379a000000000000000000000000000000000000000000000000000000000815260040161115e90613ab7565b60405180910390fd5b61117160006121d7565b565b600a81565b60098060000154905081565b61118c611c28565b73ffffffffffffffffffffffffffffffffffffffff166111aa61123a565b73ffffffffffffffffffffffffffffffffffffffff1614611200576040517f08c379a00000000000000000000000000000000000000000000000000000000081526004016111f790613ab7565b60405180910390fd5b80600b60016101000a81548160ff02191690831515021790555050565b6000600c6000838152602001908152602001600020549050919050565b6000600760009054906101000a900473ffffffffffffffffffffffffffffffffffffffff16905090565b60606001805461127390613e6d565b80601f016020809104026020016040519081016040528092919081815260200182805461129f90613e6d565b80156112ec5780601f106112c1576101008083540402835291602001916112ec565b820191906000526020600020905b8154815290600101906020018083116112cf57829003601f168201915b5050505050905090565b6002600854141561133c576040517f08c379a000000000000000000000000000000000000000000000000000000000815260040161133390613bd7565b60405180910390fd5b6002600881905550600b60019054906101000a900460ff16611393576040517f08c379a000000000000000000000000000000000000000000000000000000000815260040161138a90613af7565b60405180910390fd5b61139b61123a565b73ffffffffffffffffffffffffffffffffffffffff166113ba82610f6e565b73ffffffffffffffffffffffffffffffffffffffff1614611410576040517f08c379a000000000000000000000000000000000000000000000000000000000815260040161140790613b57565b60405180910390fd5b600a61146c6001600d6000611423611c28565b73ffffffffffffffffffffffffffffffffffffffff1673ffffffffffffffffffffffffffffffffffffffff1681526020019081526020016000205461229d90919063ffffffff16565b11156114ad576040517f08c379a00000000000000000000000000000000000000000000000000000000081526004016114a490613977565b60405180910390fd5b6114c66114b861123a565b6114c0611c28565b83610d78565b6001600d60006114d4611c28565b73ffffffffffffffffffffffffffffffffffffffff1673ffffffffffffffffffffffffffffffffffffffff168152602001908152602001600020600082825461151d9190613cfc565b92505081905550600160088190555050565b600080600e60008473ffffffffffffffffffffffffffffffffffffffff1673ffffffffffffffffffffffffffffffffffffffff1681526020019081526020016000205411156115815760019050611586565b600090505b919050565b6000611595611c28565b73ffffffffffffffffffffffffffffffffffffffff166115b361123a565b73ffffffffffffffffffffffffffffffffffffffff1614611609576040517f08c379a000000000000000000000000000000000000000000000000000000000815260040161160090613ab7565b60405180910390fd5b6002600854141561164f576040517f08c379a000000000000000000000000000000000000000000000000000000000815260040161164690613bd7565b60405180910390fd5b6002600881905550600b60009054906101000a900460ff166116a6576040517f08c379a000000000000000000000000000000000000000000000000000000000815260040161169d90613877565b60405180910390fd5b6103e76116c660016116b86009611c8c565b61229d90919063ffffffff16565b1115611707576040517f08c379a00000000000000000000000000000000000000000000000000000000081526004016116fe90613bb7565b60405180910390fd5b61171160096121c1565b600061171d6009611c8c565b905061172985826122b3565b61173381856122d1565b82600c6000838152602001908152602001600020819055508091505060016008819055509392505050565b611770611769611c28565b8383612345565b5050565b6103e781565b60008060009050600361178c85611033565b101561179c576000915050611849565b6000600190505b6117ad6009611c8c565b811161182f578473ffffffffffffffffffffffffffffffffffffffff166117d382610f6e565b73ffffffffffffffffffffffffffffffffffffffff16148015611808575083600c600083815260200190815260200160002054145b1561181c57818061181890613ed0565b9250505b808061182790613ed0565b9150506117a3565b506003811015611843576000915050611849565b60019150505b92915050565b61186061185a611c28565b83611e29565b61189f576040517f08c379a000000000000000000000000000000000000000000000000000000000815260040161189690613b37565b60405180910390fd5b6118ab848484846124b2565b50505050565b60606118bc82611d04565b6118fb576040517f08c379a00000000000000000000000000000000000000000000000000000000081526004016118f290613a77565b60405180910390fd5b600060066000848152602001908152602001600020805461191b90613e6d565b80601f016020809104026020016040519081016040528092919081815260200182805461194790613e6d565b80156119945780601f1061196957610100808354040283529160200191611994565b820191906000526020600020905b81548152906001019060200180831161197757829003601f168201915b5050505050905060006119a561250e565b90506000815114156119bb5781925050506119fe565b6000825111156119f05780826040516020016119d89291906137af565b604051602081830303815290604052925050506119fe565b6119f984612525565b925050505b919050565b6000600560008473ffffffffffffffffffffffffffffffffffffffff1673ffffffffffffffffffffffffffffffffffffffff16815260200190815260200160002060008373ffffffffffffffffffffffffffffffffffffffff1673ffffffffffffffffffffffffffffffffffffffff16815260200190815260200160002060009054906101000a900460ff16905092915050565b611a9f611c28565b73ffffffffffffffffffffffffffffffffffffffff16611abd61123a565b73ffffffffffffffffffffffffffffffffffffffff1614611b13576040517f08c379a0000000000000000000000000000000000000000000000000000000008152600401611b0a90613ab7565b60405180910390fd5b80600b60006101000a81548160ff02191690831515021790555050565b611b38611c28565b73ffffffffffffffffffffffffffffffffffffffff16611b5661123a565b73ffffffffffffffffffffffffffffffffffffffff1614611bac576040517f08c379a0000000000000000000000000000000000000000000000000000000008152600401611ba390613ab7565b60405180910390fd5b600073ffffffffffffffffffffffffffffffffffffffff168173ffffffffffffffffffffffffffffffffffffffff161415611c1c576040517f08c379a0000000000000000000000000000000000000000000000000000000008152600401611c13906138d7565b60405180910390fd5b611c25816121d7565b50565b600033905090565b60008160000154905060008111611c7c576040517f08c379a0000000000000000000000000000000000000000000000000000000008152600401611c7390613897565b60405180910390fd5b6001810382600001819055505050565b600081600001549050919050565b60007f01ffc9a7000000000000000000000000000000000000000000000000000000007bffffffffffffffffffffffffffffffffffffffffffffffffffffffff1916827bffffffffffffffffffffffffffffffffffffffffffffffffffffffff1916149050919050565b60008073ffffffffffffffffffffffffffffffffffffffff166002600084815260200190815260200160002060009054906101000a900473ffffffffffffffffffffffffffffffffffffffff1673ffffffffffffffffffffffffffffffffffffffff1614159050919050565b816004600083815260200190815260200160002060006101000a81548173ffffffffffffffffffffffffffffffffffffffff021916908373ffffffffffffffffffffffffffffffffffffffff160217905550808273ffffffffffffffffffffffffffffffffffffffff16611de383610f6e565b73ffffffffffffffffffffffffffffffffffffffff167f8c5be1e5ebec7d5bd14f71427d1e84f3dd0314c0f7b2291e5b200ac8c7c3b92560405160405180910390a45050565b6000611e3482611d04565b611e73576040517f08c379a0000000000000000000000000000000000000000000000000000000008152600401611e6a90613997565b60405180910390fd5b6000611e7e83610f6e565b90508073ffffffffffffffffffffffffffffffffffffffff168473ffffffffffffffffffffffffffffffffffffffff161480611eed57508373ffffffffffffffffffffffffffffffffffffffff16611ed584610b57565b73ffffffffffffffffffffffffffffffffffffffff16145b80611efe5750611efd8185611a03565b5b91505092915050565b8273ffffffffffffffffffffffffffffffffffffffff16611f2782610f6e565b73ffffffffffffffffffffffffffffffffffffffff1614611f7d576040517f08c379a0000000000000000000000000000000000000000000000000000000008152600401611f74906138f7565b60405180910390fd5b600073ffffffffffffffffffffffffffffffffffffffff168273ffffffffffffffffffffffffffffffffffffffff161415611fed576040517f08c379a0000000000000000000000000000000000000000000000000000000008152600401611fe490613937565b60405180910390fd5b611ff88383836125cc565b612003600082611d70565b6001600360008573ffffffffffffffffffffffffffffffffffffffff1673ffffffffffffffffffffffffffffffffffffffff16815260200190815260200160002060008282546120539190613d83565b925050819055506001600360008473ffffffffffffffffffffffffffffffffffffffff1673ffffffffffffffffffffffffffffffffffffffff16815260200190815260200160002060008282546120aa9190613cfc565b92505081905550816002600083815260200190815260200160002060006101000a81548173ffffffffffffffffffffffffffffffffffffffff021916908373ffffffffffffffffffffffffffffffffffffffff160217905550808273ffffffffffffffffffffffffffffffffffffffff168473ffffffffffffffffffffffffffffffffffffffff167fddf252ad1be2c89b69c2b068fc378daa952ba7f163c4a11628f55a4df523b3ef60405160405180910390a461216983838361275c565b505050565b61217781612761565b600060066000838152602001908152602001600020805461219790613e6d565b9050146121be576006600082815260200190815260200160002060006121bd9190612e1a565b5b50565b6001816000016000828254019250508190555050565b6000600760009054906101000a900473ffffffffffffffffffffffffffffffffffffffff16905081600760006101000a81548173ffffffffffffffffffffffffffffffffffffffff021916908373ffffffffffffffffffffffffffffffffffffffff1602179055508173ffffffffffffffffffffffffffffffffffffffff168173ffffffffffffffffffffffffffffffffffffffff167f8be0079c531659141344cd1fd0a4f28419497f9722a3daafe3b4186f6b6457e060405160405180910390a35050565b600081836122ab9190613cfc565b905092915050565b6122cd82826040518060200160405280600081525061287e565b5050565b6122da82611d04565b612319576040517f08c379a000000000000000000000000000000000000000000000000000000000815260040161231090613a17565b60405180910390fd5b80600660008481526020019081526020016000209080519060200190612340929190612e5a565b505050565b8173ffffffffffffffffffffffffffffffffffffffff168373ffffffffffffffffffffffffffffffffffffffff1614156123b4576040517f08c379a00000000000000000000000000000000000000000000000000000000081526004016123ab90613957565b60405180910390fd5b80600560008573ffffffffffffffffffffffffffffffffffffffff1673ffffffffffffffffffffffffffffffffffffffff16815260200190815260200160002060008473ffffffffffffffffffffffffffffffffffffffff1673ffffffffffffffffffffffffffffffffffffffff16815260200190815260200160002060006101000a81548160ff0219169083151502179055508173ffffffffffffffffffffffffffffffffffffffff168373ffffffffffffffffffffffffffffffffffffffff167f17307eab39ab6107e8899845ad3d59bd9653f200f220920489ca2b5937696c31836040516124a5919061383a565b60405180910390a3505050565b6124bd848484611f07565b6124c9848484846128d9565b612508576040517f08c379a00000000000000000000000000000000000000000000000000000000081526004016124ff906138b7565b60405180910390fd5b50505050565b606060405180602001604052806000815250905090565b606061253082611d04565b61256f576040517f08c379a000000000000000000000000000000000000000000000000000000000815260040161256690613ad7565b60405180910390fd5b600061257961250e565b9050600081511161259957604051806020016040528060008152506125c4565b806125a384612a70565b6040516020016125b49291906137af565b6040516020818303038152906040525b915050919050565b600b60019054906101000a900460ff16801561261a57506125eb61123a565b73ffffffffffffffffffffffffffffffffffffffff168373ffffffffffffffffffffffffffffffffffffffff16145b806126325750600b60019054906101000a900460ff16155b612671576040517f08c379a000000000000000000000000000000000000000000000000000000000815260040161266890613b77565b60405180910390fd5b8273ffffffffffffffffffffffffffffffffffffffff1661269182610f6e565b73ffffffffffffffffffffffffffffffffffffffff16146126e7576040517f08c379a00000000000000000000000000000000000000000000000000000000081526004016126de906138f7565b60405180910390fd5b600073ffffffffffffffffffffffffffffffffffffffff168273ffffffffffffffffffffffffffffffffffffffff161415612757576040517f08c379a000000000000000000000000000000000000000000000000000000000815260040161274e90613937565b60405180910390fd5b505050565b505050565b600061276c82610f6e565b905061277a816000846125cc565b612785600083611d70565b6001600360008373ffffffffffffffffffffffffffffffffffffffff1673ffffffffffffffffffffffffffffffffffffffff16815260200190815260200160002060008282546127d59190613d83565b925050819055506002600083815260200190815260200160002060006101000a81549073ffffffffffffffffffffffffffffffffffffffff021916905581600073ffffffffffffffffffffffffffffffffffffffff168273ffffffffffffffffffffffffffffffffffffffff167fddf252ad1be2c89b69c2b068fc378daa952ba7f163c4a11628f55a4df523b3ef60405160405180910390a461287a8160008461275c565b5050565b6128888383612c1d565b61289560008484846128d9565b6128d4576040517f08c379a00000000000000000000000000000000000000000000000000000000081526004016128cb906138b7565b60405180910390fd5b505050565b60006128fa8473ffffffffffffffffffffffffffffffffffffffff16612df7565b15612a63578373ffffffffffffffffffffffffffffffffffffffff1663150b7a02612923611c28565b8786866040518563ffffffff1660e01b815260040161294594939291906137ee565b602060405180830381600087803b15801561295f57600080fd5b505af192505050801561299057506040513d601f19601f8201168201806040525081019061298d9190613296565b60015b612a13573d80600081146129c0576040519150601f19603f3d011682016040523d82523d6000602084013e6129c5565b606091505b50600081511415612a0b576040517f08c379a0000000000000000000000000000000000000000000000000000000008152600401612a02906138b7565b60405180910390fd5b805181602001fd5b63150b7a0260e01b7bffffffffffffffffffffffffffffffffffffffffffffffffffffffff1916817bffffffffffffffffffffffffffffffffffffffffffffffffffffffff191614915050612a68565b600190505b949350505050565b60606000821415612ab8576040518060400160405280600181526020017f30000000000000000000000000000000000000000000000000000000000000008152509050612c18565b600082905060005b60008214612aea578080612ad390613ed0565b915050600a82612ae39190613d52565b9150612ac0565b60008167ffffffffffffffff811115612b2c577f4e487b7100000000000000000000000000000000000000000000000000000000600052604160045260246000fd5b6040519080825280601f01601f191660200182016040528015612b5e5781602001600182028036833780820191505090505b5090505b60008514612c1157600182612b779190613d83565b9150600a85612b869190613f19565b6030612b929190613cfc565b60f81b818381518110612bce577f4e487b7100000000000000000000000000000000000000000000000000000000600052603260045260246000fd5b60200101907effffffffffffffffffffffffffffffffffffffffffffffffffffffffffffff1916908160001a905350600a85612c0a9190613d52565b9450612b62565b8093505050505b919050565b600073ffffffffffffffffffffffffffffffffffffffff168273ffffffffffffffffffffffffffffffffffffffff161415612c8d576040517f08c379a0000000000000000000000000000000000000000000000000000000008152600401612c8490613a57565b60405180910390fd5b612c9681611d04565b15612cd6576040517f08c379a0000000000000000000000000000000000000000000000000000000008152600401612ccd90613917565b60405180910390fd5b612ce2600083836125cc565b6001600360008473ffffffffffffffffffffffffffffffffffffffff1673ffffffffffffffffffffffffffffffffffffffff1681526020019081526020016000206000828254612d329190613cfc565b92505081905550816002600083815260200190815260200160002060006101000a81548173ffffffffffffffffffffffffffffffffffffffff021916908373ffffffffffffffffffffffffffffffffffffffff160217905550808273ffffffffffffffffffffffffffffffffffffffff16600073ffffffffffffffffffffffffffffffffffffffff167fddf252ad1be2c89b69c2b068fc378daa952ba7f163c4a11628f55a4df523b3ef60405160405180910390a4612df36000838361275c565b5050565b6000808273ffffffffffffffffffffffffffffffffffffffff163b119050919050565b508054612e2690613e6d565b6000825580601f10612e385750612e57565b601f016020900490600052602060002090810190612e569190612ee0565b5b50565b828054612e6690613e6d565b90600052602060002090601f016020900481019282612e885760008555612ecf565b82601f10612ea157805160ff1916838001178555612ecf565b82800160010185558215612ecf579182015b82811115612ece578251825591602001919060010190612eb3565b5b509050612edc9190612ee0565b5090565b5b80821115612ef9576000816000905550600101612ee1565b5090565b6000612f10612f0b84613c57565b613c32565b905082815260208101848484011115612f2857600080fd5b612f33848285613e2b565b509392505050565b6000612f4e612f4984613c88565b613c32565b905082815260208101848484011115612f6657600080fd5b612f71848285613e2b565b509392505050565b600081359050612f888161478e565b92915050565b600081359050612f9d816147a5565b92915050565b600081359050612fb2816147bc565b92915050565b600081519050612fc7816147bc565b92915050565b600082601f830112612fde57600080fd5b8135612fee848260208601612efd565b91505092915050565b600082601f83011261300857600080fd5b8135613018848260208601612f3b565b91505092915050565b600081359050613030816147d3565b92915050565b60006020828403121561304857600080fd5b600061305684828501612f79565b91505092915050565b6000806040838503121561307257600080fd5b600061308085828601612f79565b925050602061309185828601612f79565b9150509250929050565b6000806000606084860312156130b057600080fd5b60006130be86828701612f79565b93505060206130cf86828701612f79565b92505060406130e086828701613021565b9150509250925092565b6000806000806080858703121561310057600080fd5b600061310e87828801612f79565b945050602061311f87828801612f79565b935050604061313087828801613021565b925050606085013567ffffffffffffffff81111561314d57600080fd5b61315987828801612fcd565b91505092959194509250565b6000806040838503121561317857600080fd5b600061318685828601612f79565b925050602061319785828601612f8e565b9150509250929050565b6000806000606084860312156131b657600080fd5b60006131c486828701612f79565b935050602084013567ffffffffffffffff8111156131e157600080fd5b6131ed86828701612ff7565b92505060406131fe86828701613021565b9150509250925092565b6000806040838503121561321b57600080fd5b600061322985828601612f79565b925050602061323a85828601613021565b9150509250929050565b60006020828403121561325657600080fd5b600061326484828501612f8e565b91505092915050565b60006020828403121561327f57600080fd5b600061328d84828501612fa3565b91505092915050565b6000602082840312156132a857600080fd5b60006132b684828501612fb8565b91505092915050565b6000602082840312156132d157600080fd5b60006132df84828501613021565b91505092915050565b6132f181613db7565b82525050565b61330081613dc9565b82525050565b600061331182613cb9565b61331b8185613ccf565b935061332b818560208601613e3a565b61333481614006565b840191505092915050565b600061334a82613cc4565b6133548185613ce0565b9350613364818560208601613e3a565b61336d81614006565b840191505092915050565b600061338382613cc4565b61338d8185613cf1565b935061339d818560208601613e3a565b80840191505092915050565b60006133b6601783613ce0565b91506133c182614017565b602082019050919050565b60006133d9601b83613ce0565b91506133e482614040565b602082019050919050565b60006133fc603283613ce0565b915061340782614069565b604082019050919050565b600061341f602683613ce0565b915061342a826140b8565b604082019050919050565b6000613442602583613ce0565b915061344d82614107565b604082019050919050565b6000613465601c83613ce0565b915061347082614156565b602082019050919050565b6000613488602483613ce0565b91506134938261417f565b604082019050919050565b60006134ab601983613ce0565b91506134b6826141ce565b602082019050919050565b60006134ce602a83613ce0565b91506134d9826141f7565b604082019050919050565b60006134f1602c83613ce0565b91506134fc82614246565b604082019050919050565b6000613514603883613ce0565b915061351f82614295565b604082019050919050565b6000613537602a83613ce0565b9150613542826142e4565b604082019050919050565b600061355a602983613ce0565b915061356582614333565b604082019050919050565b600061357d602e83613ce0565b915061358882614382565b604082019050919050565b60006135a0602d83613ce0565b91506135ab826143d1565b604082019050919050565b60006135c3602083613ce0565b91506135ce82614420565b602082019050919050565b60006135e6603183613ce0565b91506135f182614449565b604082019050919050565b6000613609602c83613ce0565b915061361482614498565b604082019050919050565b600061362c602083613ce0565b9150613637826144e7565b602082019050919050565b600061364f602f83613ce0565b915061365a82614510565b604082019050919050565b6000613672601383613ce0565b915061367d8261455f565b602082019050919050565b6000613695602183613ce0565b91506136a082614588565b604082019050919050565b60006136b8603183613ce0565b91506136c3826145d7565b604082019050919050565b60006136db601783613ce0565b91506136e682614626565b602082019050919050565b60006136fe601683613ce0565b91506137098261464f565b602082019050919050565b6000613721602983613ce0565b915061372c82614678565b604082019050919050565b6000613744602f83613ce0565b915061374f826146c7565b604082019050919050565b6000613767601f83613ce0565b915061377282614716565b602082019050919050565b600061378a603083613ce0565b91506137958261473f565b604082019050919050565b6137a981613e21565b82525050565b60006137bb8285613378565b91506137c78284613378565b91508190509392505050565b60006020820190506137e860008301846132e8565b92915050565b600060808201905061380360008301876132e8565b61381060208301866132e8565b61381d60408301856137a0565b818103606083015261382f8184613306565b905095945050505050565b600060208201905061384f60008301846132f7565b92915050565b6000602082019050818103600083015261386f818461333f565b905092915050565b60006020820190508181036000830152613890816133a9565b9050919050565b600060208201905081810360008301526138b0816133cc565b9050919050565b600060208201905081810360008301526138d0816133ef565b9050919050565b600060208201905081810360008301526138f081613412565b9050919050565b6000602082019050818103600083015261391081613435565b9050919050565b6000602082019050818103600083015261393081613458565b9050919050565b600060208201905081810360008301526139508161347b565b9050919050565b600060208201905081810360008301526139708161349e565b9050919050565b60006020820190508181036000830152613990816134c1565b9050919050565b600060208201905081810360008301526139b0816134e4565b9050919050565b600060208201905081810360008301526139d081613507565b9050919050565b600060208201905081810360008301526139f08161352a565b9050919050565b60006020820190508181036000830152613a108161354d565b9050919050565b60006020820190508181036000830152613a3081613570565b9050919050565b60006020820190508181036000830152613a5081613593565b9050919050565b60006020820190508181036000830152613a70816135b6565b9050919050565b60006020820190508181036000830152613a90816135d9565b9050919050565b60006020820190508181036000830152613ab0816135fc565b9050919050565b60006020820190508181036000830152613ad08161361f565b9050919050565b60006020820190508181036000830152613af081613642565b9050919050565b60006020820190508181036000830152613b1081613665565b9050919050565b60006020820190508181036000830152613b3081613688565b9050919050565b60006020820190508181036000830152613b50816136ab565b9050919050565b60006020820190508181036000830152613b70816136ce565b9050919050565b60006020820190508181036000830152613b90816136f1565b9050919050565b60006020820190508181036000830152613bb081613714565b9050919050565b60006020820190508181036000830152613bd081613737565b9050919050565b60006020820190508181036000830152613bf08161375a565b9050919050565b60006020820190508181036000830152613c108161377d565b9050919050565b6000602082019050613c2c60008301846137a0565b92915050565b6000613c3c613c4d565b9050613c488282613e9f565b919050565b6000604051905090565b600067ffffffffffffffff821115613c7257613c71613fd7565b5b613c7b82614006565b9050602081019050919050565b600067ffffffffffffffff821115613ca357613ca2613fd7565b5b613cac82614006565b9050602081019050919050565b600081519050919050565b600081519050919050565b600082825260208201905092915050565b600082825260208201905092915050565b600081905092915050565b6000613d0782613e21565b9150613d1283613e21565b9250827fffffffffffffffffffffffffffffffffffffffffffffffffffffffffffffffff03821115613d4757613d46613f4a565b5b828201905092915050565b6000613d5d82613e21565b9150613d6883613e21565b925082613d7857613d77613f79565b5b828204905092915050565b6000613d8e82613e21565b9150613d9983613e21565b925082821015613dac57613dab613f4a565b5b828203905092915050565b6000613dc282613e01565b9050919050565b60008115159050919050565b60007fffffffff0000000000000000000000000000000000000000000000000000000082169050919050565b600073ffffffffffffffffffffffffffffffffffffffff82169050919050565b6000819050919050565b82818337600083830152505050565b60005b83811015613e58578082015181840152602081019050613e3d565b83811115613e67576000848401525b50505050565b60006002820490506001821680613e8557607f821691505b60208210811415613e9957613e98613fa8565b5b50919050565b613ea882614006565b810181811067ffffffffffffffff82111715613ec757613ec6613fd7565b5b80604052505050565b6000613edb82613e21565b91507fffffffffffffffffffffffffffffffffffffffffffffffffffffffffffffffff821415613f0e57613f0d613f4a565b5b600182019050919050565b6000613f2482613e21565b9150613f2f83613e21565b925082613f3f57613f3e613f79565b5b828206905092915050565b7f4e487b7100000000000000000000000000000000000000000000000000000000600052601160045260246000fd5b7f4e487b7100000000000000000000000000000000000000000000000000000000600052601260045260246000fd5b7f4e487b7100000000000000000000000000000000000000000000000000000000600052602260045260246000fd5b7f4e487b7100000000000000000000000000000000000000000000000000000000600052604160045260246000fd5b6000601f19601f8301169050919050565b7f4d696e74696e67206973206e6f7420616c6c6f7765642e000000000000000000600082015250565b7f436f756e7465723a2064656372656d656e74206f766572666c6f770000000000600082015250565b7f4552433732313a207472616e7366657220746f206e6f6e20455243373231526560008201527f63656976657220696d706c656d656e7465720000000000000000000000000000602082015250565b7f4f776e61626c653a206e6577206f776e657220697320746865207a65726f206160008201527f6464726573730000000000000000000000000000000000000000000000000000602082015250565b7f4552433732313a207472616e736665722066726f6d20696e636f72726563742060008201527f6f776e6572000000000000000000000000000000000000000000000000000000602082015250565b7f4552433732313a20746f6b656e20616c7265616479206d696e74656400000000600082015250565b7f4552433732313a207472616e7366657220746f20746865207a65726f2061646460008201527f7265737300000000000000000000000000000000000000000000000000000000602082015250565b7f4552433732313a20617070726f766520746f2063616c6c657200000000000000600082015250565b7f596f752063616e206f6e6c79206d696e742061206d6178696d756d206f66203160008201527f3020666f722073616c6500000000000000000000000000000000000000000000602082015250565b7f4552433732313a206f70657261746f7220717565727920666f72206e6f6e657860008201527f697374656e7420746f6b656e0000000000000000000000000000000000000000602082015250565b7f4552433732313a20617070726f76652063616c6c6572206973206e6f74206f7760008201527f6e6572206e6f7220617070726f76656420666f7220616c6c0000000000000000602082015250565b7f4552433732313a2062616c616e636520717565727920666f7220746865207a6560008201527f726f206164647265737300000000000000000000000000000000000000000000602082015250565b7f4552433732313a206f776e657220717565727920666f72206e6f6e657869737460008201527f656e7420746f6b656e0000000000000000000000000000000000000000000000602082015250565b7f45524337323155524953746f726167653a2055524920736574206f66206e6f6e60008201527f6578697374656e7420746f6b656e000000000000000000000000000000000000602082015250565b7f54686973204164647265737320646f6573206e6f7420657869737420696e207460008201527f68652057686974654c6973742100000000000000000000000000000000000000602082015250565b7f4552433732313a206d696e7420746f20746865207a65726f2061646472657373600082015250565b7f45524337323155524953746f726167653a2055524920717565727920666f722060008201527f6e6f6e6578697374656e7420746f6b656e000000000000000000000000000000602082015250565b7f4552433732313a20617070726f76656420717565727920666f72206e6f6e657860008201527f697374656e7420746f6b656e0000000000000000000000000000000000000000602082015250565b7f4f776e61626c653a2063616c6c6572206973206e6f7420746865206f776e6572600082015250565b7f4552433732314d657461646174613a2055524920717565727920666f72206e6f60008201527f6e6578697374656e7420746f6b656e0000000000000000000000000000000000602082015250565b7f53616c65206973206e6f74206163746976652e00000000000000000000000000600082015250565b7f4552433732313a20617070726f76616c20746f2063757272656e74206f776e6560008201527f7200000000000000000000000000000000000000000000000000000000000000602082015250565b7f4552433732313a207472616e736665722063616c6c6572206973206e6f74206f60008201527f776e6572206e6f7220617070726f766564000000000000000000000000000000602082015250565b7f496e76616c696420746f6b656e20666f722073616c652e000000000000000000600082015250565b7f496e76616c6964205472616e736665722043616c6c2100000000000000000000600082015250565b7f54686973204164647265737320697320616c726561647920696e20746865205760008201527f686974654c697374210000000000000000000000000000000000000000000000602082015250565b7f54686973206d696e7420776f756c6420657863656564206d617820737570706c60008201527f79206f6620536564756374696f6e730000000000000000000000000000000000602082015250565b7f5265656e7472616e637947756172643a207265656e7472616e742063616c6c00600082015250565b7f4552433732314275726e61626c653a2063616c6c6572206973206e6f74206f7760008201527f6e6572206e6f7220617070726f76656400000000000000000000000000000000602082015250565b61479781613db7565b81146147a257600080fd5b50565b6147ae81613dc9565b81146147b957600080fd5b50565b6147c581613dd5565b81146147d057600080fd5b50565b6147dc81613e21565b81146147e757600080fd5b5056fea2646970667358221220bfca6ab3d6cad72c8528aac5da323fd080d34652779537e791920506173f354964736f6c63430008010033",
  "linkReferences": {},
  "deployedLinkReferences": {}
}