{
  "_format": "hh-sol-artifact-1",
  "contractName": "Seductions",
  "sourceName": "contracts/Seductions.sol",
  "abi": [
    {
      "inputs": [],
      "stateMutability": "nonpayable",
      "type": "constructor"
    },
    {
      "anonymous": false,
      "inputs": [
        {
          "indexed": true,
          "internalType": "address",
          "name": "owner",
          "type": "address"
        },
        {
          "indexed": true,
          "internalType": "address",
          "name": "approved",
          "type": "address"
        },
        {
          "indexed": true,
          "internalType": "uint256",
          "name": "tokenId",
          "type": "uint256"
        }
      ],
      "name": "Approval",
      "type": "event"
    },
    {
      "anonymous": false,
      "inputs": [
        {
          "indexed": true,
          "internalType": "address",
          "name": "owner",
          "type": "address"
        },
        {
          "indexed": true,
          "internalType": "address",
          "name": "operator",
          "type": "address"
        },
        {
          "indexed": false,
          "internalType": "bool",
          "name": "approved",
          "type": "bool"
        }
      ],
      "name": "ApprovalForAll",
      "type": "event"
    },
    {
      "anonymous": false,
      "inputs": [
        {
          "indexed": true,
          "internalType": "address",
          "name": "previousOwner",
          "type": "address"
        },
        {
          "indexed": true,
          "internalType": "address",
          "name": "newOwner",
          "type": "address"
        }
      ],
      "name": "OwnershipTransferred",
      "type": "event"
    },
    {
      "anonymous": false,
      "inputs": [
        {
          "indexed": true,
          "internalType": "address",
          "name": "from",
          "type": "address"
        },
        {
          "indexed": true,
          "internalType": "address",
          "name": "to",
          "type": "address"
        },
        {
          "indexed": true,
          "internalType": "uint256",
          "name": "tokenId",
          "type": "uint256"
        }
      ],
      "name": "Transfer",
      "type": "event"
    },
    {
      "inputs": [],
      "name": "MAX_SEDUCTIONS",
      "outputs": [
        {
          "internalType": "uint256",
          "name": "",
          "type": "uint256"
        }
      ],
      "stateMutability": "view",
      "type": "function"
    },
    {
      "inputs": [],
      "name": "MAX_SEDUCTIONS_SALE_CAP",
      "outputs": [
        {
          "internalType": "uint256",
          "name": "",
          "type": "uint256"
        }
      ],
      "stateMutability": "view",
      "type": "function"
    },
    {
      "inputs": [],
      "name": "SEDUCTIONS_FOR_WAIFU",
      "outputs": [
        {
          "internalType": "uint256",
          "name": "",
          "type": "uint256"
        }
      ],
      "stateMutability": "view",
      "type": "function"
    },
    {
      "inputs": [
        {
          "internalType": "address[]",
          "name": "users",
          "type": "address[]"
        }
      ],
      "name": "addToWhiteList",
      "outputs": [],
      "stateMutability": "nonpayable",
      "type": "function"
    },
    {
      "inputs": [
        {
          "internalType": "address",
          "name": "to",
          "type": "address"
        },
        {
          "internalType": "uint256",
          "name": "tokenId",
          "type": "uint256"
        }
      ],
      "name": "approve",
      "outputs": [],
      "stateMutability": "nonpayable",
      "type": "function"
    },
    {
      "inputs": [
        {
          "internalType": "address",
          "name": "owner",
          "type": "address"
        }
      ],
      "name": "balanceOf",
      "outputs": [
        {
          "internalType": "uint256",
          "name": "",
          "type": "uint256"
        }
      ],
      "stateMutability": "view",
      "type": "function"
    },
    {
      "inputs": [
        {
          "internalType": "uint256",
          "name": "tokenId",
          "type": "uint256"
        }
      ],
      "name": "burn",
      "outputs": [],
      "stateMutability": "nonpayable",
      "type": "function"
    },
    {
      "inputs": [
        {
          "internalType": "address",
          "name": "holder",
          "type": "address"
        },
        {
          "internalType": "uint256",
          "name": "trait",
          "type": "uint256"
        }
      ],
      "name": "checkChickTraitCount",
      "outputs": [
        {
          "internalType": "bool",
          "name": "",
          "type": "bool"
        }
      ],
      "stateMutability": "view",
      "type": "function"
    },
    {
      "inputs": [
        {
          "internalType": "uint256",
          "name": "tokenId",
          "type": "uint256"
        }
      ],
      "name": "getApproved",
      "outputs": [
        {
          "internalType": "address",
          "name": "",
          "type": "address"
        }
      ],
      "stateMutability": "view",
      "type": "function"
    },
    {
      "inputs": [
        {
          "internalType": "uint256",
          "name": "tokenId",
          "type": "uint256"
        }
      ],
      "name": "getChickTraitofTokenId",
      "outputs": [
        {
          "internalType": "uint256",
          "name": "",
          "type": "uint256"
        }
      ],
      "stateMutability": "view",
      "type": "function"
    },
    {
      "inputs": [
        {
          "internalType": "address",
          "name": "owner",
          "type": "address"
        },
        {
          "internalType": "address",
          "name": "operator",
          "type": "address"
        }
      ],
      "name": "isApprovedForAll",
      "outputs": [
        {
          "internalType": "bool",
          "name": "",
          "type": "bool"
        }
      ],
      "stateMutability": "view",
      "type": "function"
    },
    {
      "inputs": [
        {
          "internalType": "address",
          "name": "addr",
          "type": "address"
        }
      ],
      "name": "isInWhiteList",
      "outputs": [
        {
          "internalType": "bool",
          "name": "",
          "type": "bool"
        }
      ],
      "stateMutability": "view",
      "type": "function"
    },
    {
      "inputs": [],
      "name": "mintActive",
      "outputs": [
        {
          "internalType": "bool",
          "name": "",
          "type": "bool"
        }
      ],
      "stateMutability": "view",
      "type": "function"
    },
    {
      "inputs": [
        {
          "internalType": "address",
          "name": "recipient",
          "type": "address"
        },
        {
          "internalType": "string",
          "name": "tokenURI",
          "type": "string"
        },
        {
          "internalType": "uint256",
          "name": "trait",
          "type": "uint256"
        }
      ],
      "name": "mintSeduction",
      "outputs": [
        {
          "internalType": "uint256",
          "name": "",
          "type": "uint256"
        }
      ],
      "stateMutability": "nonpayable",
      "type": "function"
    },
    {
      "inputs": [],
      "name": "name",
      "outputs": [
        {
          "internalType": "string",
          "name": "",
          "type": "string"
        }
      ],
      "stateMutability": "view",
      "type": "function"
    },
    {
      "inputs": [],
      "name": "owner",
      "outputs": [
        {
          "internalType": "address",
          "name": "",
          "type": "address"
        }
      ],
      "stateMutability": "view",
      "type": "function"
    },
    {
      "inputs": [
        {
          "internalType": "uint256",
          "name": "tokenId",
          "type": "uint256"
        }
      ],
      "name": "ownerOf",
      "outputs": [
        {
          "internalType": "address",
          "name": "",
          "type": "address"
        }
      ],
      "stateMutability": "view",
      "type": "function"
    },
    {
      "inputs": [
        {
          "internalType": "address[]",
          "name": "users",
          "type": "address[]"
        }
      ],
      "name": "removeFromWhiteList",
      "outputs": [],
      "stateMutability": "nonpayable",
      "type": "function"
    },
    {
      "inputs": [],
      "name": "renounceOwnership",
      "outputs": [],
      "stateMutability": "nonpayable",
      "type": "function"
    },
    {
      "inputs": [
        {
          "internalType": "address",
          "name": "from",
          "type": "address"
        },
        {
          "internalType": "address",
          "name": "to",
          "type": "address"
        },
        {
          "internalType": "uint256",
          "name": "tokenId",
          "type": "uint256"
        }
      ],
      "name": "safeTransferFrom",
      "outputs": [],
      "stateMutability": "nonpayable",
      "type": "function"
    },
    {
      "inputs": [
        {
          "internalType": "address",
          "name": "from",
          "type": "address"
        },
        {
          "internalType": "address",
          "name": "to",
          "type": "address"
        },
        {
          "internalType": "uint256",
          "name": "tokenId",
          "type": "uint256"
        },
        {
          "internalType": "bytes",
          "name": "_data",
          "type": "bytes"
        }
      ],
      "name": "safeTransferFrom",
      "outputs": [],
      "stateMutability": "nonpayable",
      "type": "function"
    },
    {
      "inputs": [
        {
          "internalType": "uint256",
          "name": "tokenId",
          "type": "uint256"
        }
      ],
      "name": "sale",
      "outputs": [],
      "stateMutability": "payable",
      "type": "function"
    },
    {
      "inputs": [],
      "name": "saleActive",
      "outputs": [
        {
          "internalType": "bool",
          "name": "",
          "type": "bool"
        }
      ],
      "stateMutability": "view",
      "type": "function"
    },
    {
      "inputs": [
        {
          "internalType": "address",
          "name": "operator",
          "type": "address"
        },
        {
          "internalType": "bool",
          "name": "approved",
          "type": "bool"
        }
      ],
      "name": "setApprovalForAll",
      "outputs": [],
      "stateMutability": "nonpayable",
      "type": "function"
    },
    {
      "inputs": [
        {
          "internalType": "bool",
          "name": "_active",
          "type": "bool"
        }
      ],
      "name": "setMintActive",
      "outputs": [],
      "stateMutability": "nonpayable",
      "type": "function"
    },
    {
      "inputs": [
        {
          "internalType": "bool",
          "name": "_active",
          "type": "bool"
        }
      ],
      "name": "setSaleActive",
      "outputs": [],
      "stateMutability": "nonpayable",
      "type": "function"
    },
    {
      "inputs": [
        {
          "internalType": "bool",
          "name": "_active",
          "type": "bool"
        }
      ],
      "name": "setWhiteListSaleActive",
      "outputs": [],
      "stateMutability": "nonpayable",
      "type": "function"
    },
    {
      "inputs": [
        {
          "internalType": "bytes4",
          "name": "interfaceId",
          "type": "bytes4"
        }
      ],
      "name": "supportsInterface",
      "outputs": [
        {
          "internalType": "bool",
          "name": "",
          "type": "bool"
        }
      ],
      "stateMutability": "view",
      "type": "function"
    },
    {
      "inputs": [],
      "name": "symbol",
      "outputs": [
        {
          "internalType": "string",
          "name": "",
          "type": "string"
        }
      ],
      "stateMutability": "view",
      "type": "function"
    },
    {
      "inputs": [],
      "name": "tokenSupply",
      "outputs": [
        {
          "internalType": "uint256",
          "name": "_value",
          "type": "uint256"
        }
      ],
      "stateMutability": "view",
      "type": "function"
    },
    {
      "inputs": [
        {
          "internalType": "uint256",
          "name": "tokenId",
          "type": "uint256"
        }
      ],
      "name": "tokenURI",
      "outputs": [
        {
          "internalType": "string",
          "name": "",
          "type": "string"
        }
      ],
      "stateMutability": "view",
      "type": "function"
    },
    {
      "inputs": [
        {
          "internalType": "address",
          "name": "from",
          "type": "address"
        },
        {
          "internalType": "address",
          "name": "to",
          "type": "address"
        },
        {
          "internalType": "uint256",
          "name": "tokenId",
          "type": "uint256"
        }
      ],
      "name": "transferFrom",
      "outputs": [],
      "stateMutability": "nonpayable",
      "type": "function"
    },
    {
      "inputs": [
        {
          "internalType": "address",
          "name": "newOwner",
          "type": "address"
        }
      ],
      "name": "transferOwnership",
      "outputs": [],
      "stateMutability": "nonpayable",
      "type": "function"
    },
    {
      "inputs": [],
      "name": "whiteListCount",
      "outputs": [
        {
          "internalType": "uint256",
          "name": "_value",
          "type": "uint256"
        }
      ],
      "stateMutability": "view",
      "type": "function"
    },
    {
      "inputs": [],
      "name": "whiteListSaleActive",
      "outputs": [
        {
          "internalType": "bool",
          "name": "",
          "type": "bool"
        }
      ],
      "stateMutability": "view",
      "type": "function"
    }
  ],
  "bytecode": "0x60806040526001600b60006101000a81548160ff0219169083151502179055506000600b60016101000a81548160ff0219169083151502179055506000600b60026101000a81548160ff0219169083151502179055503480156200006257600080fd5b506040518060400160405280600a81526020017f536564756374696f6e73000000000000000000000000000000000000000000008152506040518060400160405280600381526020017f53445400000000000000000000000000000000000000000000000000000000008152508160009080519060200190620000e7929190620001ff565b50806001908051906020019062000100929190620001ff565b50505062000123620001176200013160201b60201c565b6200013960201b60201c565b600160088190555062000314565b600033905090565b6000600760009054906101000a900473ffffffffffffffffffffffffffffffffffffffff16905081600760006101000a81548173ffffffffffffffffffffffffffffffffffffffff021916908373ffffffffffffffffffffffffffffffffffffffff1602179055508173ffffffffffffffffffffffffffffffffffffffff168173ffffffffffffffffffffffffffffffffffffffff167f8be0079c531659141344cd1fd0a4f28419497f9722a3daafe3b4186f6b6457e060405160405180910390a35050565b8280546200020d90620002af565b90600052602060002090601f0160209004810192826200023157600085556200027d565b82601f106200024c57805160ff19168380011785556200027d565b828001600101855582156200027d579182015b828111156200027c5782518255916020019190600101906200025f565b5b5090506200028c919062000290565b5090565b5b80821115620002ab57600081600090555060010162000291565b5090565b60006002820490506001821680620002c857607f821691505b60208210811415620002df57620002de620002e5565b5b50919050565b7f4e487b7100000000000000000000000000000000000000000000000000000000600052602260045260246000fd5b614b4780620003246000396000f3fe6080604052600436106102045760003560e01c80637824407f11610118578063a51605c0116100a0578063c87b56dd1161006f578063c87b56dd1461076c578063e985e9c5146107a9578063ee1cc944146107e6578063f2fde38b1461080f578063f5df99081461083857610204565b8063a51605c0146106b2578063a8415a5b146106dd578063b11560c51461071a578063b88d4fde1461074357610204565b806395d89b41116100e757806395d89b41146105c857806396032702146105f357806396bfc2291461060f5780639a5acc221461064c578063a22cb4651461068957610204565b80637824407f1461050c578063841718a6146105375780638b67d47d146105605780638da5cb5b1461059d57610204565b8063399dccb61161019b57806368428a1b1161016a57806368428a1b1461043957806370a0823114610464578063715018a6146104a157806373e3c82f146104b8578063740d73f3146104e357610204565b8063399dccb61461037f57806342842e0e146103aa57806342966c68146103d35780636352211e146103fc57610204565b80630fa1658b116101d75780630fa1658b146102d757806323b872dd1461030257806325fd90f31461032b578063283cd6be1461035657610204565b806301ffc9a71461020957806306fdde0314610246578063081812fc14610271578063095ea7b3146102ae575b600080fd5b34801561021557600080fd5b50610230600480360381019061022b9190613620565b610863565b60405161023d9190613bca565b60405180910390f35b34801561025257600080fd5b5061025b610945565b6040516102689190613be5565b60405180910390f35b34801561027d57600080fd5b5061029860048036038101906102939190613672565b6109d7565b6040516102a59190613b63565b60405180910390f35b3480156102ba57600080fd5b506102d560048036038101906102d0919061357a565b610a5c565b005b3480156102e357600080fd5b506102ec610b74565b6040516102f99190613f87565b60405180910390f35b34801561030e57600080fd5b506103296004803603810190610324919061340d565b610b79565b005b34801561033757600080fd5b50610340610bd9565b60405161034d9190613bca565b60405180910390f35b34801561036257600080fd5b5061037d600480360381019061037891906135f7565b610bec565b005b34801561038b57600080fd5b50610394610c85565b6040516103a19190613f87565b60405180910390f35b3480156103b657600080fd5b506103d160048036038101906103cc919061340d565b610c91565b005b3480156103df57600080fd5b506103fa60048036038101906103f59190613672565b610cb1565b005b34801561040857600080fd5b50610423600480360381019061041e9190613672565b610d0d565b6040516104309190613b63565b60405180910390f35b34801561044557600080fd5b5061044e610dbf565b60405161045b9190613bca565b60405180910390f35b34801561047057600080fd5b5061048b600480360381019061048691906133a8565b610dd2565b6040516104989190613f87565b60405180910390f35b3480156104ad57600080fd5b506104b6610e8a565b005b3480156104c457600080fd5b506104cd610f12565b6040516104da9190613f87565b60405180910390f35b3480156104ef57600080fd5b5061050a600480360381019061050591906135b6565b610f17565b005b34801561051857600080fd5b50610521610fff565b60405161052e9190613f87565b60405180910390f35b34801561054357600080fd5b5061055e600480360381019061055991906135f7565b61100b565b005b34801561056c57600080fd5b5061058760048036038101906105829190613672565b6110a4565b6040516105949190613f87565b60405180910390f35b3480156105a957600080fd5b506105b26110c1565b6040516105bf9190613b63565b60405180910390f35b3480156105d457600080fd5b506105dd6110eb565b6040516105ea9190613be5565b60405180910390f35b61060d60048036038101906106089190613672565b61117d565b005b34801561061b57600080fd5b50610636600480360381019061063191906133a8565b611420565b6040516106439190613bca565b60405180910390f35b34801561065857600080fd5b50610673600480360381019061066e9190613513565b61147c565b6040516106809190613f87565b60405180910390f35b34801561069557600080fd5b506106b060048036038101906106ab91906134d7565b61164f565b005b3480156106be57600080fd5b506106c7611665565b6040516106d49190613f87565b60405180910390f35b3480156106e957600080fd5b5061070460048036038101906106ff919061357a565b61166b565b6040516107119190613bca565b60405180910390f35b34801561072657600080fd5b50610741600480360381019061073c91906135b6565b611740565b005b34801561074f57600080fd5b5061076a6004803603810190610765919061345c565b611828565b005b34801561077857600080fd5b50610793600480360381019061078e9190613672565b61188a565b6040516107a09190613be5565b60405180910390f35b3480156107b557600080fd5b506107d060048036038101906107cb91906133d1565b6119dc565b6040516107dd9190613bca565b60405180910390f35b3480156107f257600080fd5b5061080d600480360381019061080891906135f7565b611a70565b005b34801561081b57600080fd5b50610836600480360381019061083191906133a8565b611b09565b005b34801561084457600080fd5b5061084d611c01565b60405161085a9190613bca565b60405180910390f35b60007f80ac58cd000000000000000000000000000000000000000000000000000000007bffffffffffffffffffffffffffffffffffffffffffffffffffffffff1916827bffffffffffffffffffffffffffffffffffffffffffffffffffffffff1916148061092e57507f5b5e139f000000000000000000000000000000000000000000000000000000007bffffffffffffffffffffffffffffffffffffffffffffffffffffffff1916827bffffffffffffffffffffffffffffffffffffffffffffffffffffffff1916145b8061093e575061093d82611c14565b5b9050919050565b60606000805461095490614209565b80601f016020809104026020016040519081016040528092919081815260200182805461098090614209565b80156109cd5780601f106109a2576101008083540402835291602001916109cd565b820191906000526020600020905b8154815290600101906020018083116109b057829003601f168201915b5050505050905090565b60006109e282611c7e565b610a21576040517f08c379a0000000000000000000000000000000000000000000000000000000008152600401610a1890613e07565b60405180910390fd5b6004600083815260200190815260200160002060009054906101000a900473ffffffffffffffffffffffffffffffffffffffff169050919050565b6000610a6782610d0d565b90508073ffffffffffffffffffffffffffffffffffffffff168373ffffffffffffffffffffffffffffffffffffffff161415610ad8576040517f08c379a0000000000000000000000000000000000000000000000000000000008152600401610acf90613e87565b60405180910390fd5b8073ffffffffffffffffffffffffffffffffffffffff16610af7611cea565b73ffffffffffffffffffffffffffffffffffffffff161480610b265750610b2581610b20611cea565b6119dc565b5b610b65576040517f08c379a0000000000000000000000000000000000000000000000000000000008152600401610b5c90613d47565b60405180910390fd5b610b6f8383611cf2565b505050565b600381565b610b8a610b84611cea565b82611dab565b610bc9576040517f08c379a0000000000000000000000000000000000000000000000000000000008152600401610bc090613ec7565b60405180910390fd5b610bd4838383611e89565b505050565b600b60009054906101000a900460ff1681565b610bf4611cea565b73ffffffffffffffffffffffffffffffffffffffff16610c126110c1565b73ffffffffffffffffffffffffffffffffffffffff1614610c68576040517f08c379a0000000000000000000000000000000000000000000000000000000008152600401610c5f90613e27565b60405180910390fd5b80600b60026101000a81548160ff02191690831515021790555050565b600a8060000154905081565b610cac83838360405180602001604052806000815250611828565b505050565b610cc2610cbc611cea565b82611dab565b610d01576040517f08c379a0000000000000000000000000000000000000000000000000000000008152600401610cf890613f67565b60405180910390fd5b610d0a816120f0565b50565b6000806002600084815260200190815260200160002060009054906101000a900473ffffffffffffffffffffffffffffffffffffffff169050600073ffffffffffffffffffffffffffffffffffffffff168173ffffffffffffffffffffffffffffffffffffffff161415610db6576040517f08c379a0000000000000000000000000000000000000000000000000000000008152600401610dad90613d87565b60405180910390fd5b80915050919050565b600b60019054906101000a900460ff1681565b60008073ffffffffffffffffffffffffffffffffffffffff168273ffffffffffffffffffffffffffffffffffffffff161415610e43576040517f08c379a0000000000000000000000000000000000000000000000000000000008152600401610e3a90613d67565b60405180910390fd5b600360008373ffffffffffffffffffffffffffffffffffffffff1673ffffffffffffffffffffffffffffffffffffffff168152602001908152602001600020549050919050565b610e92611cea565b73ffffffffffffffffffffffffffffffffffffffff16610eb06110c1565b73ffffffffffffffffffffffffffffffffffffffff1614610f06576040517f08c379a0000000000000000000000000000000000000000000000000000000008152600401610efd90613e27565b60405180910390fd5b610f106000612143565b565b600a81565b610f1f611cea565b73ffffffffffffffffffffffffffffffffffffffff16610f3d6110c1565b73ffffffffffffffffffffffffffffffffffffffff1614610f93576040517f08c379a0000000000000000000000000000000000000000000000000000000008152600401610f8a90613e27565b60405180910390fd5b60005b8151811015610ffb57610fe8828281518110610fdb577f4e487b7100000000000000000000000000000000000000000000000000000000600052603260045260246000fd5b6020026020010151612209565b8080610ff39061426c565b915050610f96565b5050565b60098060000154905081565b611013611cea565b73ffffffffffffffffffffffffffffffffffffffff166110316110c1565b73ffffffffffffffffffffffffffffffffffffffff1614611087576040517f08c379a000000000000000000000000000000000000000000000000000000000815260040161107e90613e27565b60405180910390fd5b80600b60016101000a81548160ff02191690831515021790555050565b6000600c6000838152602001908152602001600020549050919050565b6000600760009054906101000a900473ffffffffffffffffffffffffffffffffffffffff16905090565b6060600180546110fa90614209565b80601f016020809104026020016040519081016040528092919081815260200182805461112690614209565b80156111735780601f1061114857610100808354040283529160200191611173565b820191906000526020600020905b81548152906001019060200180831161115657829003601f168201915b5050505050905090565b600260085414156111c3576040517f08c379a00000000000000000000000000000000000000000000000000000000081526004016111ba90613f47565b60405180910390fd5b6002600881905550600b60029054906101000a900460ff1615611234576111f06111eb611cea565b611420565b61122f576040517f08c379a000000000000000000000000000000000000000000000000000000000815260040161122690613ea7565b60405180910390fd5b611284565b600b60019054906101000a900460ff16611283576040517f08c379a000000000000000000000000000000000000000000000000000000000815260040161127a90613e67565b60405180910390fd5b5b61128c6110c1565b73ffffffffffffffffffffffffffffffffffffffff166112ab82610d0d565b73ffffffffffffffffffffffffffffffffffffffff1614611301576040517f08c379a00000000000000000000000000000000000000000000000000000000081526004016112f890613ee7565b60405180910390fd5b600a61135d6001600d6000611314611cea565b73ffffffffffffffffffffffffffffffffffffffff1673ffffffffffffffffffffffffffffffffffffffff1681526020019081526020016000205461234890919063ffffffff16565b111561139e576040517f08c379a000000000000000000000000000000000000000000000000000000000815260040161139590613d07565b60405180910390fd5b6113b76113a96110c1565b6113b1611cea565b83610c91565b6001600d60006113c5611cea565b73ffffffffffffffffffffffffffffffffffffffff1673ffffffffffffffffffffffffffffffffffffffff168152602001908152602001600020600082825461140e9190614098565b92505081905550600160088190555050565b600080600e60008473ffffffffffffffffffffffffffffffffffffffff1673ffffffffffffffffffffffffffffffffffffffff1681526020019081526020016000205411156114725760019050611477565b600090505b919050565b6000611486611cea565b73ffffffffffffffffffffffffffffffffffffffff166114a46110c1565b73ffffffffffffffffffffffffffffffffffffffff16146114fa576040517f08c379a00000000000000000000000000000000000000000000000000000000081526004016114f190613e27565b60405180910390fd5b60026008541415611540576040517f08c379a000000000000000000000000000000000000000000000000000000000815260040161153790613f47565b60405180910390fd5b6002600881905550600b60009054906101000a900460ff16611597576040517f08c379a000000000000000000000000000000000000000000000000000000000815260040161158e90613c07565b60405180910390fd5b6103e76115b760016115a9600961235e565b61234890919063ffffffff16565b11156115f8576040517f08c379a00000000000000000000000000000000000000000000000000000000081526004016115ef90613f27565b60405180910390fd5b611602600961236c565b600061160e600961235e565b905061161a8582612382565b61162481856123a0565b82600c6000838152602001908152602001600020819055508091505060016008819055509392505050565b61166161165a611cea565b8383612414565b5050565b6103e781565b60008060009050600361167d85610dd2565b101561168d57600091505061173a565b6000600190505b61169e600961235e565b8111611720578473ffffffffffffffffffffffffffffffffffffffff166116c482610d0d565b73ffffffffffffffffffffffffffffffffffffffff161480156116f9575083600c600083815260200190815260200160002054145b1561170d5781806117099061426c565b9250505b80806117189061426c565b915050611694565b50600381101561173457600091505061173a565b60019150505b92915050565b611748611cea565b73ffffffffffffffffffffffffffffffffffffffff166117666110c1565b73ffffffffffffffffffffffffffffffffffffffff16146117bc576040517f08c379a00000000000000000000000000000000000000000000000000000000081526004016117b390613e27565b60405180910390fd5b60005b815181101561182457611811828281518110611804577f4e487b7100000000000000000000000000000000000000000000000000000000600052603260045260246000fd5b6020026020010151612581565b808061181c9061426c565b9150506117bf565b5050565b611839611833611cea565b83611dab565b611878576040517f08c379a000000000000000000000000000000000000000000000000000000000815260040161186f90613ec7565b60405180910390fd5b61188484848484612732565b50505050565b606061189582611c7e565b6118d4576040517f08c379a00000000000000000000000000000000000000000000000000000000081526004016118cb90613de7565b60405180910390fd5b60006006600084815260200190815260200160002080546118f490614209565b80601f016020809104026020016040519081016040528092919081815260200182805461192090614209565b801561196d5780601f106119425761010080835404028352916020019161196d565b820191906000526020600020905b81548152906001019060200180831161195057829003601f168201915b50505050509050600061197e61278e565b90506000815114156119945781925050506119d7565b6000825111156119c95780826040516020016119b1929190613b3f565b604051602081830303815290604052925050506119d7565b6119d2846127a5565b925050505b919050565b6000600560008473ffffffffffffffffffffffffffffffffffffffff1673ffffffffffffffffffffffffffffffffffffffff16815260200190815260200160002060008373ffffffffffffffffffffffffffffffffffffffff1673ffffffffffffffffffffffffffffffffffffffff16815260200190815260200160002060009054906101000a900460ff16905092915050565b611a78611cea565b73ffffffffffffffffffffffffffffffffffffffff16611a966110c1565b73ffffffffffffffffffffffffffffffffffffffff1614611aec576040517f08c379a0000000000000000000000000000000000000000000000000000000008152600401611ae390613e27565b60405180910390fd5b80600b60006101000a81548160ff02191690831515021790555050565b611b11611cea565b73ffffffffffffffffffffffffffffffffffffffff16611b2f6110c1565b73ffffffffffffffffffffffffffffffffffffffff1614611b85576040517f08c379a0000000000000000000000000000000000000000000000000000000008152600401611b7c90613e27565b60405180910390fd5b600073ffffffffffffffffffffffffffffffffffffffff168173ffffffffffffffffffffffffffffffffffffffff161415611bf5576040517f08c379a0000000000000000000000000000000000000000000000000000000008152600401611bec90613c67565b60405180910390fd5b611bfe81612143565b50565b600b60029054906101000a900460ff1681565b60007f01ffc9a7000000000000000000000000000000000000000000000000000000007bffffffffffffffffffffffffffffffffffffffffffffffffffffffff1916827bffffffffffffffffffffffffffffffffffffffffffffffffffffffff1916149050919050565b60008073ffffffffffffffffffffffffffffffffffffffff166002600084815260200190815260200160002060009054906101000a900473ffffffffffffffffffffffffffffffffffffffff1673ffffffffffffffffffffffffffffffffffffffff1614159050919050565b600033905090565b816004600083815260200190815260200160002060006101000a81548173ffffffffffffffffffffffffffffffffffffffff021916908373ffffffffffffffffffffffffffffffffffffffff160217905550808273ffffffffffffffffffffffffffffffffffffffff16611d6583610d0d565b73ffffffffffffffffffffffffffffffffffffffff167f8c5be1e5ebec7d5bd14f71427d1e84f3dd0314c0f7b2291e5b200ac8c7c3b92560405160405180910390a45050565b6000611db682611c7e565b611df5576040517f08c379a0000000000000000000000000000000000000000000000000000000008152600401611dec90613d27565b60405180910390fd5b6000611e0083610d0d565b90508073ffffffffffffffffffffffffffffffffffffffff168473ffffffffffffffffffffffffffffffffffffffff161480611e6f57508373ffffffffffffffffffffffffffffffffffffffff16611e57846109d7565b73ffffffffffffffffffffffffffffffffffffffff16145b80611e805750611e7f81856119dc565b5b91505092915050565b8273ffffffffffffffffffffffffffffffffffffffff16611ea982610d0d565b73ffffffffffffffffffffffffffffffffffffffff1614611eff576040517f08c379a0000000000000000000000000000000000000000000000000000000008152600401611ef690613c87565b60405180910390fd5b600073ffffffffffffffffffffffffffffffffffffffff168273ffffffffffffffffffffffffffffffffffffffff161415611f6f576040517f08c379a0000000000000000000000000000000000000000000000000000000008152600401611f6690613cc7565b60405180910390fd5b611f7a83838361284c565b611f85600082611cf2565b6001600360008573ffffffffffffffffffffffffffffffffffffffff1673ffffffffffffffffffffffffffffffffffffffff1681526020019081526020016000206000828254611fd5919061411f565b925050819055506001600360008473ffffffffffffffffffffffffffffffffffffffff1673ffffffffffffffffffffffffffffffffffffffff168152602001908152602001600020600082825461202c9190614098565b92505081905550816002600083815260200190815260200160002060006101000a81548173ffffffffffffffffffffffffffffffffffffffff021916908373ffffffffffffffffffffffffffffffffffffffff160217905550808273ffffffffffffffffffffffffffffffffffffffff168473ffffffffffffffffffffffffffffffffffffffff167fddf252ad1be2c89b69c2b068fc378daa952ba7f163c4a11628f55a4df523b3ef60405160405180910390a46120eb8383836129dc565b505050565b6120f9816129e1565b600060066000838152602001908152602001600020805461211990614209565b9050146121405760066000828152602001908152602001600020600061213f91906130f6565b5b50565b6000600760009054906101000a900473ffffffffffffffffffffffffffffffffffffffff16905081600760006101000a81548173ffffffffffffffffffffffffffffffffffffffff021916908373ffffffffffffffffffffffffffffffffffffffff1602179055508173ffffffffffffffffffffffffffffffffffffffff168173ffffffffffffffffffffffffffffffffffffffff167f8be0079c531659141344cd1fd0a4f28419497f9722a3daafe3b4186f6b6457e060405160405180910390a35050565b612211611cea565b73ffffffffffffffffffffffffffffffffffffffff1661222f6110c1565b73ffffffffffffffffffffffffffffffffffffffff1614612285576040517f08c379a000000000000000000000000000000000000000000000000000000000815260040161227c90613e27565b60405180910390fd5b61228e81611420565b6123455761229c600a61236c565b80600f60006122ab600a61235e565b815260200190815260200160002060006101000a81548173ffffffffffffffffffffffffffffffffffffffff021916908373ffffffffffffffffffffffffffffffffffffffff160217905550612301600a61235e565b600e60008373ffffffffffffffffffffffffffffffffffffffff1673ffffffffffffffffffffffffffffffffffffffff168152602001908152602001600020819055505b50565b600081836123569190614098565b905092915050565b600081600001549050919050565b6001816000016000828254019250508190555050565b61239c828260405180602001604052806000815250612afe565b5050565b6123a982611c7e565b6123e8576040517f08c379a00000000000000000000000000000000000000000000000000000000081526004016123df90613da7565b60405180910390fd5b8060066000848152602001908152602001600020908051906020019061240f929190613136565b505050565b8173ffffffffffffffffffffffffffffffffffffffff168373ffffffffffffffffffffffffffffffffffffffff161415612483576040517f08c379a000000000000000000000000000000000000000000000000000000000815260040161247a90613ce7565b60405180910390fd5b80600560008573ffffffffffffffffffffffffffffffffffffffff1673ffffffffffffffffffffffffffffffffffffffff16815260200190815260200160002060008473ffffffffffffffffffffffffffffffffffffffff1673ffffffffffffffffffffffffffffffffffffffff16815260200190815260200160002060006101000a81548160ff0219169083151502179055508173ffffffffffffffffffffffffffffffffffffffff168373ffffffffffffffffffffffffffffffffffffffff167f17307eab39ab6107e8899845ad3d59bd9653f200f220920489ca2b5937696c31836040516125749190613bca565b60405180910390a3505050565b612589611cea565b73ffffffffffffffffffffffffffffffffffffffff166125a76110c1565b73ffffffffffffffffffffffffffffffffffffffff16146125fd576040517f08c379a00000000000000000000000000000000000000000000000000000000081526004016125f490613e27565b60405180910390fd5b61260681611420565b1561272f57612615600a612b59565b80600f6000612624600a61235e565b815260200190815260200160002060006101000a81548173ffffffffffffffffffffffffffffffffffffffff021916908373ffffffffffffffffffffffffffffffffffffffff1602179055506000600e60008373ffffffffffffffffffffffffffffffffffffffff1673ffffffffffffffffffffffffffffffffffffffff168152602001908152602001600020549050600e60008373ffffffffffffffffffffffffffffffffffffffff1673ffffffffffffffffffffffffffffffffffffffff16815260200190815260200160002060009055600f600082815260200190815260200160002060006101000a81549073ffffffffffffffffffffffffffffffffffffffff0219169055505b50565b61273d848484611e89565b61274984848484612bb5565b612788576040517f08c379a000000000000000000000000000000000000000000000000000000000815260040161277f90613c47565b60405180910390fd5b50505050565b606060405180602001604052806000815250905090565b60606127b082611c7e565b6127ef576040517f08c379a00000000000000000000000000000000000000000000000000000000081526004016127e690613e47565b60405180910390fd5b60006127f961278e565b905060008151116128195760405180602001604052806000815250612844565b8061282384612d4c565b604051602001612834929190613b3f565b6040516020818303038152906040525b915050919050565b600b60019054906101000a900460ff16801561289a575061286b6110c1565b73ffffffffffffffffffffffffffffffffffffffff168373ffffffffffffffffffffffffffffffffffffffff16145b806128b25750600b60019054906101000a900460ff16155b6128f1576040517f08c379a00000000000000000000000000000000000000000000000000000000081526004016128e890613f07565b60405180910390fd5b8273ffffffffffffffffffffffffffffffffffffffff1661291182610d0d565b73ffffffffffffffffffffffffffffffffffffffff1614612967576040517f08c379a000000000000000000000000000000000000000000000000000000000815260040161295e90613c87565b60405180910390fd5b600073ffffffffffffffffffffffffffffffffffffffff168273ffffffffffffffffffffffffffffffffffffffff1614156129d7576040517f08c379a00000000000000000000000000000000000000000000000000000000081526004016129ce90613cc7565b60405180910390fd5b505050565b505050565b60006129ec82610d0d565b90506129fa8160008461284c565b612a05600083611cf2565b6001600360008373ffffffffffffffffffffffffffffffffffffffff1673ffffffffffffffffffffffffffffffffffffffff1681526020019081526020016000206000828254612a55919061411f565b925050819055506002600083815260200190815260200160002060006101000a81549073ffffffffffffffffffffffffffffffffffffffff021916905581600073ffffffffffffffffffffffffffffffffffffffff168273ffffffffffffffffffffffffffffffffffffffff167fddf252ad1be2c89b69c2b068fc378daa952ba7f163c4a11628f55a4df523b3ef60405160405180910390a4612afa816000846129dc565b5050565b612b088383612ef9565b612b156000848484612bb5565b612b54576040517f08c379a0000000000000000000000000000000000000000000000000000000008152600401612b4b90613c47565b60405180910390fd5b505050565b60008160000154905060008111612ba5576040517f08c379a0000000000000000000000000000000000000000000000000000000008152600401612b9c90613c27565b60405180910390fd5b6001810382600001819055505050565b6000612bd68473ffffffffffffffffffffffffffffffffffffffff166130d3565b15612d3f578373ffffffffffffffffffffffffffffffffffffffff1663150b7a02612bff611cea565b8786866040518563ffffffff1660e01b8152600401612c219493929190613b7e565b602060405180830381600087803b158015612c3b57600080fd5b505af1925050508015612c6c57506040513d601f19601f82011682018060405250810190612c699190613649565b60015b612cef573d8060008114612c9c576040519150601f19603f3d011682016040523d82523d6000602084013e612ca1565b606091505b50600081511415612ce7576040517f08c379a0000000000000000000000000000000000000000000000000000000008152600401612cde90613c47565b60405180910390fd5b805181602001fd5b63150b7a0260e01b7bffffffffffffffffffffffffffffffffffffffffffffffffffffffff1916817bffffffffffffffffffffffffffffffffffffffffffffffffffffffff191614915050612d44565b600190505b949350505050565b60606000821415612d94576040518060400160405280600181526020017f30000000000000000000000000000000000000000000000000000000000000008152509050612ef4565b600082905060005b60008214612dc6578080612daf9061426c565b915050600a82612dbf91906140ee565b9150612d9c565b60008167ffffffffffffffff811115612e08577f4e487b7100000000000000000000000000000000000000000000000000000000600052604160045260246000fd5b6040519080825280601f01601f191660200182016040528015612e3a5781602001600182028036833780820191505090505b5090505b60008514612eed57600182612e53919061411f565b9150600a85612e6291906142b5565b6030612e6e9190614098565b60f81b818381518110612eaa577f4e487b7100000000000000000000000000000000000000000000000000000000600052603260045260246000fd5b60200101907effffffffffffffffffffffffffffffffffffffffffffffffffffffffffffff1916908160001a905350600a85612ee691906140ee565b9450612e3e565b8093505050505b919050565b600073ffffffffffffffffffffffffffffffffffffffff168273ffffffffffffffffffffffffffffffffffffffff161415612f69576040517f08c379a0000000000000000000000000000000000000000000000000000000008152600401612f6090613dc7565b60405180910390fd5b612f7281611c7e565b15612fb2576040517f08c379a0000000000000000000000000000000000000000000000000000000008152600401612fa990613ca7565b60405180910390fd5b612fbe6000838361284c565b6001600360008473ffffffffffffffffffffffffffffffffffffffff1673ffffffffffffffffffffffffffffffffffffffff168152602001908152602001600020600082825461300e9190614098565b92505081905550816002600083815260200190815260200160002060006101000a81548173ffffffffffffffffffffffffffffffffffffffff021916908373ffffffffffffffffffffffffffffffffffffffff160217905550808273ffffffffffffffffffffffffffffffffffffffff16600073ffffffffffffffffffffffffffffffffffffffff167fddf252ad1be2c89b69c2b068fc378daa952ba7f163c4a11628f55a4df523b3ef60405160405180910390a46130cf600083836129dc565b5050565b6000808273ffffffffffffffffffffffffffffffffffffffff163b119050919050565b50805461310290614209565b6000825580601f106131145750613133565b601f01602090049060005260206000209081019061313291906131bc565b5b50565b82805461314290614209565b90600052602060002090601f01602090048101928261316457600085556131ab565b82601f1061317d57805160ff19168380011785556131ab565b828001600101855582156131ab579182015b828111156131aa57825182559160200191906001019061318f565b5b5090506131b891906131bc565b5090565b5b808211156131d55760008160009055506001016131bd565b5090565b60006131ec6131e784613fc7565b613fa2565b9050808382526020820190508285602086028201111561320b57600080fd5b60005b8581101561323b578161322188826132c1565b84526020840193506020830192505060018101905061320e565b5050509392505050565b600061325861325384613ff3565b613fa2565b90508281526020810184848401111561327057600080fd5b61327b8482856141c7565b509392505050565b600061329661329184614024565b613fa2565b9050828152602081018484840111156132ae57600080fd5b6132b98482856141c7565b509392505050565b6000813590506132d081614ab5565b92915050565b600082601f8301126132e757600080fd5b81356132f78482602086016131d9565b91505092915050565b60008135905061330f81614acc565b92915050565b60008135905061332481614ae3565b92915050565b60008151905061333981614ae3565b92915050565b600082601f83011261335057600080fd5b8135613360848260208601613245565b91505092915050565b600082601f83011261337a57600080fd5b813561338a848260208601613283565b91505092915050565b6000813590506133a281614afa565b92915050565b6000602082840312156133ba57600080fd5b60006133c8848285016132c1565b91505092915050565b600080604083850312156133e457600080fd5b60006133f2858286016132c1565b9250506020613403858286016132c1565b9150509250929050565b60008060006060848603121561342257600080fd5b6000613430868287016132c1565b9350506020613441868287016132c1565b925050604061345286828701613393565b9150509250925092565b6000806000806080858703121561347257600080fd5b6000613480878288016132c1565b9450506020613491878288016132c1565b93505060406134a287828801613393565b925050606085013567ffffffffffffffff8111156134bf57600080fd5b6134cb8782880161333f565b91505092959194509250565b600080604083850312156134ea57600080fd5b60006134f8858286016132c1565b925050602061350985828601613300565b9150509250929050565b60008060006060848603121561352857600080fd5b6000613536868287016132c1565b935050602084013567ffffffffffffffff81111561355357600080fd5b61355f86828701613369565b925050604061357086828701613393565b9150509250925092565b6000806040838503121561358d57600080fd5b600061359b858286016132c1565b92505060206135ac85828601613393565b9150509250929050565b6000602082840312156135c857600080fd5b600082013567ffffffffffffffff8111156135e257600080fd5b6135ee848285016132d6565b91505092915050565b60006020828403121561360957600080fd5b600061361784828501613300565b91505092915050565b60006020828403121561363257600080fd5b600061364084828501613315565b91505092915050565b60006020828403121561365b57600080fd5b60006136698482850161332a565b91505092915050565b60006020828403121561368457600080fd5b600061369284828501613393565b91505092915050565b6136a481614153565b82525050565b6136b381614165565b82525050565b60006136c482614055565b6136ce818561406b565b93506136de8185602086016141d6565b6136e7816143a2565b840191505092915050565b60006136fd82614060565b613707818561407c565b93506137178185602086016141d6565b613720816143a2565b840191505092915050565b600061373682614060565b613740818561408d565b93506137508185602086016141d6565b80840191505092915050565b600061376960178361407c565b9150613774826143b3565b602082019050919050565b600061378c601b8361407c565b9150613797826143dc565b602082019050919050565b60006137af60328361407c565b91506137ba82614405565b604082019050919050565b60006137d260268361407c565b91506137dd82614454565b604082019050919050565b60006137f560258361407c565b9150613800826144a3565b604082019050919050565b6000613818601c8361407c565b9150613823826144f2565b602082019050919050565b600061383b60248361407c565b91506138468261451b565b604082019050919050565b600061385e60198361407c565b91506138698261456a565b602082019050919050565b6000613881602a8361407c565b915061388c82614593565b604082019050919050565b60006138a4602c8361407c565b91506138af826145e2565b604082019050919050565b60006138c760388361407c565b91506138d282614631565b604082019050919050565b60006138ea602a8361407c565b91506138f582614680565b604082019050919050565b600061390d60298361407c565b9150613918826146cf565b604082019050919050565b6000613930602e8361407c565b915061393b8261471e565b604082019050919050565b600061395360208361407c565b915061395e8261476d565b602082019050919050565b600061397660318361407c565b915061398182614796565b604082019050919050565b6000613999602c8361407c565b91506139a4826147e5565b604082019050919050565b60006139bc60208361407c565b91506139c782614834565b602082019050919050565b60006139df602f8361407c565b91506139ea8261485d565b604082019050919050565b6000613a0260138361407c565b9150613a0d826148ac565b602082019050919050565b6000613a2560218361407c565b9150613a30826148d5565b604082019050919050565b6000613a4860208361407c565b9150613a5382614924565b602082019050919050565b6000613a6b60318361407c565b9150613a768261494d565b604082019050919050565b6000613a8e60178361407c565b9150613a998261499c565b602082019050919050565b6000613ab160168361407c565b9150613abc826149c5565b602082019050919050565b6000613ad4602f8361407c565b9150613adf826149ee565b604082019050919050565b6000613af7601f8361407c565b9150613b0282614a3d565b602082019050919050565b6000613b1a60308361407c565b9150613b2582614a66565b604082019050919050565b613b39816141bd565b82525050565b6000613b4b828561372b565b9150613b57828461372b565b91508190509392505050565b6000602082019050613b78600083018461369b565b92915050565b6000608082019050613b93600083018761369b565b613ba0602083018661369b565b613bad6040830185613b30565b8181036060830152613bbf81846136b9565b905095945050505050565b6000602082019050613bdf60008301846136aa565b92915050565b60006020820190508181036000830152613bff81846136f2565b905092915050565b60006020820190508181036000830152613c208161375c565b9050919050565b60006020820190508181036000830152613c408161377f565b9050919050565b60006020820190508181036000830152613c60816137a2565b9050919050565b60006020820190508181036000830152613c80816137c5565b9050919050565b60006020820190508181036000830152613ca0816137e8565b9050919050565b60006020820190508181036000830152613cc08161380b565b9050919050565b60006020820190508181036000830152613ce08161382e565b9050919050565b60006020820190508181036000830152613d0081613851565b9050919050565b60006020820190508181036000830152613d2081613874565b9050919050565b60006020820190508181036000830152613d4081613897565b9050919050565b60006020820190508181036000830152613d60816138ba565b9050919050565b60006020820190508181036000830152613d80816138dd565b9050919050565b60006020820190508181036000830152613da081613900565b9050919050565b60006020820190508181036000830152613dc081613923565b9050919050565b60006020820190508181036000830152613de081613946565b9050919050565b60006020820190508181036000830152613e0081613969565b9050919050565b60006020820190508181036000830152613e208161398c565b9050919050565b60006020820190508181036000830152613e40816139af565b9050919050565b60006020820190508181036000830152613e60816139d2565b9050919050565b60006020820190508181036000830152613e80816139f5565b9050919050565b60006020820190508181036000830152613ea081613a18565b9050919050565b60006020820190508181036000830152613ec081613a3b565b9050919050565b60006020820190508181036000830152613ee081613a5e565b9050919050565b60006020820190508181036000830152613f0081613a81565b9050919050565b60006020820190508181036000830152613f2081613aa4565b9050919050565b60006020820190508181036000830152613f4081613ac7565b9050919050565b60006020820190508181036000830152613f6081613aea565b9050919050565b60006020820190508181036000830152613f8081613b0d565b9050919050565b6000602082019050613f9c6000830184613b30565b92915050565b6000613fac613fbd565b9050613fb8828261423b565b919050565b6000604051905090565b600067ffffffffffffffff821115613fe257613fe1614373565b5b602082029050602081019050919050565b600067ffffffffffffffff82111561400e5761400d614373565b5b614017826143a2565b9050602081019050919050565b600067ffffffffffffffff82111561403f5761403e614373565b5b614048826143a2565b9050602081019050919050565b600081519050919050565b600081519050919050565b600082825260208201905092915050565b600082825260208201905092915050565b600081905092915050565b60006140a3826141bd565b91506140ae836141bd565b9250827fffffffffffffffffffffffffffffffffffffffffffffffffffffffffffffffff038211156140e3576140e26142e6565b5b828201905092915050565b60006140f9826141bd565b9150614104836141bd565b92508261411457614113614315565b5b828204905092915050565b600061412a826141bd565b9150614135836141bd565b925082821015614148576141476142e6565b5b828203905092915050565b600061415e8261419d565b9050919050565b60008115159050919050565b60007fffffffff0000000000000000000000000000000000000000000000000000000082169050919050565b600073ffffffffffffffffffffffffffffffffffffffff82169050919050565b6000819050919050565b82818337600083830152505050565b60005b838110156141f45780820151818401526020810190506141d9565b83811115614203576000848401525b50505050565b6000600282049050600182168061422157607f821691505b6020821081141561423557614234614344565b5b50919050565b614244826143a2565b810181811067ffffffffffffffff8211171561426357614262614373565b5b80604052505050565b6000614277826141bd565b91507fffffffffffffffffffffffffffffffffffffffffffffffffffffffffffffffff8214156142aa576142a96142e6565b5b600182019050919050565b60006142c0826141bd565b91506142cb836141bd565b9250826142db576142da614315565b5b828206905092915050565b7f4e487b7100000000000000000000000000000000000000000000000000000000600052601160045260246000fd5b7f4e487b7100000000000000000000000000000000000000000000000000000000600052601260045260246000fd5b7f4e487b7100000000000000000000000000000000000000000000000000000000600052602260045260246000fd5b7f4e487b7100000000000000000000000000000000000000000000000000000000600052604160045260246000fd5b6000601f19601f8301169050919050565b7f4d696e74696e67206973206e6f7420616c6c6f7765642e000000000000000000600082015250565b7f436f756e7465723a2064656372656d656e74206f766572666c6f770000000000600082015250565b7f4552433732313a207472616e7366657220746f206e6f6e20455243373231526560008201527f63656976657220696d706c656d656e7465720000000000000000000000000000602082015250565b7f4f776e61626c653a206e6577206f776e657220697320746865207a65726f206160008201527f6464726573730000000000000000000000000000000000000000000000000000602082015250565b7f4552433732313a207472616e736665722066726f6d20696e636f72726563742060008201527f6f776e6572000000000000000000000000000000000000000000000000000000602082015250565b7f4552433732313a20746f6b656e20616c7265616479206d696e74656400000000600082015250565b7f4552433732313a207472616e7366657220746f20746865207a65726f2061646460008201527f7265737300000000000000000000000000000000000000000000000000000000602082015250565b7f4552433732313a20617070726f766520746f2063616c6c657200000000000000600082015250565b7f596f752063616e206f6e6c79206d696e742061206d6178696d756d206f66203160008201527f3020666f722073616c6500000000000000000000000000000000000000000000602082015250565b7f4552433732313a206f70657261746f7220717565727920666f72206e6f6e657860008201527f697374656e7420746f6b656e0000000000000000000000000000000000000000602082015250565b7f4552433732313a20617070726f76652063616c6c6572206973206e6f74206f7760008201527f6e6572206e6f7220617070726f76656420666f7220616c6c0000000000000000602082015250565b7f4552433732313a2062616c616e636520717565727920666f7220746865207a6560008201527f726f206164647265737300000000000000000000000000000000000000000000602082015250565b7f4552433732313a206f776e657220717565727920666f72206e6f6e657869737460008201527f656e7420746f6b656e0000000000000000000000000000000000000000000000602082015250565b7f45524337323155524953746f726167653a2055524920736574206f66206e6f6e60008201527f6578697374656e7420746f6b656e000000000000000000000000000000000000602082015250565b7f4552433732313a206d696e7420746f20746865207a65726f2061646472657373600082015250565b7f45524337323155524953746f726167653a2055524920717565727920666f722060008201527f6e6f6e6578697374656e7420746f6b656e000000000000000000000000000000602082015250565b7f4552433732313a20617070726f76656420717565727920666f72206e6f6e657860008201527f697374656e7420746f6b656e0000000000000000000000000000000000000000602082015250565b7f4f776e61626c653a2063616c6c6572206973206e6f7420746865206f776e6572600082015250565b7f4552433732314d657461646174613a2055524920717565727920666f72206e6f60008201527f6e6578697374656e7420746f6b656e0000000000000000000000000000000000602082015250565b7f53616c65206973206e6f74206163746976652e00000000000000000000000000600082015250565b7f4552433732313a20617070726f76616c20746f2063757272656e74206f776e6560008201527f7200000000000000000000000000000000000000000000000000000000000000602082015250565b7f53616c6520666f72206f6e6c792057686974654c69737420436c69656e74732e600082015250565b7f4552433732313a207472616e736665722063616c6c6572206973206e6f74206f60008201527f776e6572206e6f7220617070726f766564000000000000000000000000000000602082015250565b7f496e76616c696420746f6b656e20666f722073616c652e000000000000000000600082015250565b7f496e76616c6964205472616e736665722043616c6c2100000000000000000000600082015250565b7f54686973206d696e7420776f756c6420657863656564206d617820737570706c60008201527f79206f6620536564756374696f6e730000000000000000000000000000000000602082015250565b7f5265656e7472616e637947756172643a207265656e7472616e742063616c6c00600082015250565b7f4552433732314275726e61626c653a2063616c6c6572206973206e6f74206f7760008201527f6e6572206e6f7220617070726f76656400000000000000000000000000000000602082015250565b614abe81614153565b8114614ac957600080fd5b50565b614ad581614165565b8114614ae057600080fd5b50565b614aec81614171565b8114614af757600080fd5b50565b614b03816141bd565b8114614b0e57600080fd5b5056fea2646970667358221220b40fd851abdf72c97be321e639590bf8b0fc6b72940446354f9f5bdd1fcccc8e64736f6c63430008010033",
  "linkReferences": {},
  "deployedLinkReferences": {}
}