{
  "_format": "hh-sol-artifact-1",
  "contractName": "GrayBoys",
  "sourceName": "contracts/GrayBoy.sol",
  "abi": [
    {
      "inputs": [
        {
          "internalType": "uint256",
          "name": "_maxGrayBoys",
          "type": "uint256"
        },
        {
          "internalType": "uint256",
          "name": "_maxGrayBoysPerPurchase",
          "type": "uint256"
        },
        {
          "internalType": "uint256",
          "name": "_maxGrayBoysWhitelistCap",
          "type": "uint256"
        }
      ],
      "stateMutability": "nonpayable",
      "type": "constructor"
    },
    {
      "anonymous": false,
      "inputs": [
        {
          "indexed": true,
          "internalType": "address",
          "name": "owner",
          "type": "address"
        },
        {
          "indexed": true,
          "internalType": "address",
          "name": "approved",
          "type": "address"
        },
        {
          "indexed": true,
          "internalType": "uint256",
          "name": "tokenId",
          "type": "uint256"
        }
      ],
      "name": "Approval",
      "type": "event"
    },
    {
      "anonymous": false,
      "inputs": [
        {
          "indexed": true,
          "internalType": "address",
          "name": "owner",
          "type": "address"
        },
        {
          "indexed": true,
          "internalType": "address",
          "name": "operator",
          "type": "address"
        },
        {
          "indexed": false,
          "internalType": "bool",
          "name": "approved",
          "type": "bool"
        }
      ],
      "name": "ApprovalForAll",
      "type": "event"
    },
    {
      "anonymous": false,
      "inputs": [
        {
          "indexed": true,
          "internalType": "address",
          "name": "previousOwner",
          "type": "address"
        },
        {
          "indexed": true,
          "internalType": "address",
          "name": "newOwner",
          "type": "address"
        }
      ],
      "name": "OwnershipTransferred",
      "type": "event"
    },
    {
      "anonymous": false,
      "inputs": [
        {
          "indexed": true,
          "internalType": "address",
          "name": "from",
          "type": "address"
        },
        {
          "indexed": true,
          "internalType": "address",
          "name": "to",
          "type": "address"
        },
        {
          "indexed": true,
          "internalType": "uint256",
          "name": "tokenId",
          "type": "uint256"
        }
      ],
      "name": "Transfer",
      "type": "event"
    },
    {
      "inputs": [],
      "name": "GRAY_BOYS_PROVENANCE",
      "outputs": [
        {
          "internalType": "string",
          "name": "",
          "type": "string"
        }
      ],
      "stateMutability": "view",
      "type": "function"
    },
    {
      "inputs": [],
      "name": "GRAY_BOY_PRICE",
      "outputs": [
        {
          "internalType": "uint256",
          "name": "",
          "type": "uint256"
        }
      ],
      "stateMutability": "view",
      "type": "function"
    },
    {
      "inputs": [],
      "name": "MAX_GRAY_BOYS",
      "outputs": [
        {
          "internalType": "uint256",
          "name": "",
          "type": "uint256"
        }
      ],
      "stateMutability": "view",
      "type": "function"
    },
    {
      "inputs": [],
      "name": "MAX_GRAY_BOYS_PER_PURCHASE",
      "outputs": [
        {
          "internalType": "uint256",
          "name": "",
          "type": "uint256"
        }
      ],
      "stateMutability": "view",
      "type": "function"
    },
    {
      "inputs": [],
      "name": "MAX_GRAY_BOYS_WHITELIST_CAP",
      "outputs": [
        {
          "internalType": "uint256",
          "name": "",
          "type": "uint256"
        }
      ],
      "stateMutability": "view",
      "type": "function"
    },
    {
      "inputs": [],
      "name": "RESERVED_GRAY_BOYS",
      "outputs": [
        {
          "internalType": "uint256",
          "name": "",
          "type": "uint256"
        }
      ],
      "stateMutability": "view",
      "type": "function"
    },
    {
      "inputs": [
        {
          "internalType": "address",
          "name": "to",
          "type": "address"
        },
        {
          "internalType": "uint256",
          "name": "tokenId",
          "type": "uint256"
        }
      ],
      "name": "approve",
      "outputs": [],
      "stateMutability": "nonpayable",
      "type": "function"
    },
    {
      "inputs": [
        {
          "internalType": "address",
          "name": "owner",
          "type": "address"
        }
      ],
      "name": "balanceOf",
      "outputs": [
        {
          "internalType": "uint256",
          "name": "",
          "type": "uint256"
        }
      ],
      "stateMutability": "view",
      "type": "function"
    },
    {
      "inputs": [
        {
          "internalType": "uint256",
          "name": "tokenId",
          "type": "uint256"
        }
      ],
      "name": "getApproved",
      "outputs": [
        {
          "internalType": "address",
          "name": "",
          "type": "address"
        }
      ],
      "stateMutability": "view",
      "type": "function"
    },
    {
      "inputs": [
        {
          "internalType": "address",
          "name": "owner",
          "type": "address"
        },
        {
          "internalType": "address",
          "name": "operator",
          "type": "address"
        }
      ],
      "name": "isApprovedForAll",
      "outputs": [
        {
          "internalType": "bool",
          "name": "",
          "type": "bool"
        }
      ],
      "stateMutability": "view",
      "type": "function"
    },
    {
      "inputs": [],
      "name": "mintActive",
      "outputs": [
        {
          "internalType": "bool",
          "name": "",
          "type": "bool"
        }
      ],
      "stateMutability": "view",
      "type": "function"
    },
    {
      "inputs": [],
      "name": "mintReservedGrayBoys",
      "outputs": [],
      "stateMutability": "nonpayable",
      "type": "function"
    },
    {
      "inputs": [],
      "name": "name",
      "outputs": [
        {
          "internalType": "string",
          "name": "",
          "type": "string"
        }
      ],
      "stateMutability": "view",
      "type": "function"
    },
    {
      "inputs": [],
      "name": "owner",
      "outputs": [
        {
          "internalType": "address",
          "name": "",
          "type": "address"
        }
      ],
      "stateMutability": "view",
      "type": "function"
    },
    {
      "inputs": [
        {
          "internalType": "uint256",
          "name": "tokenId",
          "type": "uint256"
        }
      ],
      "name": "ownerOf",
      "outputs": [
        {
          "internalType": "address",
          "name": "",
          "type": "address"
        }
      ],
      "stateMutability": "view",
      "type": "function"
    },
    {
      "inputs": [],
      "name": "presaleActive",
      "outputs": [
        {
          "internalType": "bool",
          "name": "",
          "type": "bool"
        }
      ],
      "stateMutability": "view",
      "type": "function"
    },
    {
      "inputs": [
        {
          "internalType": "uint256",
          "name": "_quantity",
          "type": "uint256"
        },
        {
          "internalType": "bytes",
          "name": "_whitelistSignature",
          "type": "bytes"
        }
      ],
      "name": "presaleMint",
      "outputs": [],
      "stateMutability": "payable",
      "type": "function"
    },
    {
      "inputs": [
        {
          "internalType": "uint256",
          "name": "_quantity",
          "type": "uint256"
        }
      ],
      "name": "publicMint",
      "outputs": [],
      "stateMutability": "payable",
      "type": "function"
    },
    {
      "inputs": [],
      "name": "renounceOwnership",
      "outputs": [],
      "stateMutability": "nonpayable",
      "type": "function"
    },
    {
      "inputs": [],
      "name": "reservesMinted",
      "outputs": [
        {
          "internalType": "bool",
          "name": "",
          "type": "bool"
        }
      ],
      "stateMutability": "view",
      "type": "function"
    },
    {
      "inputs": [
        {
          "internalType": "address",
          "name": "from",
          "type": "address"
        },
        {
          "internalType": "address",
          "name": "to",
          "type": "address"
        },
        {
          "internalType": "uint256",
          "name": "tokenId",
          "type": "uint256"
        }
      ],
      "name": "safeTransferFrom",
      "outputs": [],
      "stateMutability": "nonpayable",
      "type": "function"
    },
    {
      "inputs": [
        {
          "internalType": "address",
          "name": "from",
          "type": "address"
        },
        {
          "internalType": "address",
          "name": "to",
          "type": "address"
        },
        {
          "internalType": "uint256",
          "name": "tokenId",
          "type": "uint256"
        },
        {
          "internalType": "bytes",
          "name": "_data",
          "type": "bytes"
        }
      ],
      "name": "safeTransferFrom",
      "outputs": [],
      "stateMutability": "nonpayable",
      "type": "function"
    },
    {
      "inputs": [
        {
          "internalType": "address",
          "name": "operator",
          "type": "address"
        },
        {
          "internalType": "bool",
          "name": "approved",
          "type": "bool"
        }
      ],
      "name": "setApprovalForAll",
      "outputs": [],
      "stateMutability": "nonpayable",
      "type": "function"
    },
    {
      "inputs": [
        {
          "internalType": "bool",
          "name": "_active",
          "type": "bool"
        }
      ],
      "name": "setMintActive",
      "outputs": [],
      "stateMutability": "nonpayable",
      "type": "function"
    },
    {
      "inputs": [
        {
          "internalType": "bool",
          "name": "_active",
          "type": "bool"
        }
      ],
      "name": "setPresaleActive",
      "outputs": [],
      "stateMutability": "nonpayable",
      "type": "function"
    },
    {
      "inputs": [
        {
          "internalType": "string",
          "name": "provenanceHash",
          "type": "string"
        }
      ],
      "name": "setProvenanceHash",
      "outputs": [],
      "stateMutability": "nonpayable",
      "type": "function"
    },
    {
      "inputs": [
        {
          "internalType": "string",
          "name": "_baseURI",
          "type": "string"
        }
      ],
      "name": "setTokenBaseURI",
      "outputs": [],
      "stateMutability": "nonpayable",
      "type": "function"
    },
    {
      "inputs": [
        {
          "internalType": "string",
          "name": "_unrevealedUri",
          "type": "string"
        }
      ],
      "name": "setUnrevealedURI",
      "outputs": [],
      "stateMutability": "nonpayable",
      "type": "function"
    },
    {
      "inputs": [
        {
          "internalType": "bytes4",
          "name": "interfaceId",
          "type": "bytes4"
        }
      ],
      "name": "supportsInterface",
      "outputs": [
        {
          "internalType": "bool",
          "name": "",
          "type": "bool"
        }
      ],
      "stateMutability": "view",
      "type": "function"
    },
    {
      "inputs": [],
      "name": "symbol",
      "outputs": [
        {
          "internalType": "string",
          "name": "",
          "type": "string"
        }
      ],
      "stateMutability": "view",
      "type": "function"
    },
    {
      "inputs": [],
      "name": "tokenBaseURI",
      "outputs": [
        {
          "internalType": "string",
          "name": "",
          "type": "string"
        }
      ],
      "stateMutability": "view",
      "type": "function"
    },
    {
      "inputs": [],
      "name": "tokenSupply",
      "outputs": [
        {
          "internalType": "uint256",
          "name": "_value",
          "type": "uint256"
        }
      ],
      "stateMutability": "view",
      "type": "function"
    },
    {
      "inputs": [
        {
          "internalType": "uint256",
          "name": "_tokenId",
          "type": "uint256"
        }
      ],
      "name": "tokenURI",
      "outputs": [
        {
          "internalType": "string",
          "name": "",
          "type": "string"
        }
      ],
      "stateMutability": "view",
      "type": "function"
    },
    {
      "inputs": [
        {
          "internalType": "address",
          "name": "from",
          "type": "address"
        },
        {
          "internalType": "address",
          "name": "to",
          "type": "address"
        },
        {
          "internalType": "uint256",
          "name": "tokenId",
          "type": "uint256"
        }
      ],
      "name": "transferFrom",
      "outputs": [],
      "stateMutability": "nonpayable",
      "type": "function"
    },
    {
      "inputs": [
        {
          "internalType": "address",
          "name": "newOwner",
          "type": "address"
        }
      ],
      "name": "transferOwnership",
      "outputs": [],
      "stateMutability": "nonpayable",
      "type": "function"
    },
    {
      "inputs": [],
      "name": "unrevealedURI",
      "outputs": [
        {
          "internalType": "string",
          "name": "",
          "type": "string"
        }
      ],
      "stateMutability": "view",
      "type": "function"
    },
    {
      "inputs": [],
      "name": "withdraw",
      "outputs": [],
      "stateMutability": "nonpayable",
      "type": "function"
    }
  ],
  "bytecode": "0x608060405260405180602001604052806000815250600890805190602001906200002b92919062000264565b506000600e60006101000a81548160ff0219169083151502179055506000600e60016101000a81548160ff0219169083151502179055506000600e60026101000a81548160ff0219169083151502179055503480156200008a57600080fd5b5060405162005351380380620053518339818101604052810190620000b091906200032b565b6040518060400160405280600981526020017f4772617920426f797300000000000000000000000000000000000000000000008152506040518060400160405280600481526020017f475241590000000000000000000000000000000000000000000000000000000081525081600090805190602001906200013492919062000264565b5080600190805190602001906200014d92919062000264565b50505062000170620001646200019660201b60201c565b6200019e60201b60201c565b60016007819055508260098190555081600a8190555080600b819055505050506200040a565b600033905090565b6000600660009054906101000a900473ffffffffffffffffffffffffffffffffffffffff16905081600660006101000a81548173ffffffffffffffffffffffffffffffffffffffff021916908373ffffffffffffffffffffffffffffffffffffffff1602179055508173ffffffffffffffffffffffffffffffffffffffff168173ffffffffffffffffffffffffffffffffffffffff167f8be0079c531659141344cd1fd0a4f28419497f9722a3daafe3b4186f6b6457e060405160405180910390a35050565b82805462000272906200038b565b90600052602060002090601f016020900481019282620002965760008555620002e2565b82601f10620002b157805160ff1916838001178555620002e2565b82800160010185558215620002e2579182015b82811115620002e1578251825591602001919060010190620002c4565b5b509050620002f19190620002f5565b5090565b5b8082111562000310576000816000905550600101620002f6565b5090565b6000815190506200032581620003f0565b92915050565b6000806000606084860312156200034157600080fd5b6000620003518682870162000314565b9350506020620003648682870162000314565b9250506040620003778682870162000314565b9150509250925092565b6000819050919050565b60006002820490506001821680620003a457607f821691505b60208210811415620003bb57620003ba620003c1565b5b50919050565b7f4e487b7100000000000000000000000000000000000000000000000000000000600052602260045260246000fd5b620003fb8162000381565b81146200040757600080fd5b50565b614f37806200041a6000396000f3fe60806040526004361061021a5760003560e01c806370a0823111610123578063a22cb465116100ab578063e985e9c51161006f578063e985e9c51461077e578063ee1cc944146107bb578063f2fde38b146107e4578063fd24a8541461080d578063fe2c7fee146108295761021a565b8063a22cb46514610699578063b88d4fde146106c2578063c1f2173c146106eb578063c87b56dd14610716578063cc41d795146107535761021a565b806387fe8a76116100f257806387fe8a76146105c45780638da5cb5b146105ef5780638ef79e911461061a57806395d89b411461064357806398b670171461066e5761021a565b806370a082311461051a578063715018a6146105575780637824407f1461056e578063860abe90146105995761021a565b80632db11544116101a65780634e99b800116101755780634e99b8001461043157806353135ca01461045c578063544b6f62146104875780636352211e146104b25780637035bf18146104ef5761021a565b80632db11544146103ac5780633ccfd60b146103c85780633f8121a2146103df57806342842e0e146104085761021a565b8063081812fc116101ed578063081812fc146102c9578063095ea7b314610306578063109695231461032f57806323b872dd1461035857806325fd90f3146103815761021a565b806301d3057e1461021f57806301ffc9a71461023657806302de218f1461027357806306fdde031461029e575b600080fd5b34801561022b57600080fd5b50610234610852565b005b34801561024257600080fd5b5061025d60048036038101906102589190613514565b6109ea565b60405161026a9190613ce0565b60405180910390f35b34801561027f57600080fd5b50610288610acc565b6040516102959190614162565b60405180910390f35b3480156102aa57600080fd5b506102b3610ad7565b6040516102c09190613d40565b60405180910390f35b3480156102d557600080fd5b506102f060048036038101906102eb91906135a7565b610b69565b6040516102fd9190613c79565b60405180910390f35b34801561031257600080fd5b5061032d600480360381019061032891906134af565b610bee565b005b34801561033b57600080fd5b5061035660048036038101906103519190613566565b610d06565b005b34801561036457600080fd5b5061037f600480360381019061037a91906133a9565b610d9c565b005b34801561038d57600080fd5b50610396610dfc565b6040516103a39190613ce0565b60405180910390f35b6103c660048036038101906103c191906135a7565b610e0f565b005b3480156103d457600080fd5b506103dd610eaf565b005b3480156103eb57600080fd5b50610406600480360381019061040191906134eb565b610f7a565b005b34801561041457600080fd5b5061042f600480360381019061042a91906133a9565b611013565b005b34801561043d57600080fd5b50610446611033565b6040516104539190613d40565b60405180910390f35b34801561046857600080fd5b506104716110c1565b60405161047e9190613ce0565b60405180910390f35b34801561049357600080fd5b5061049c6110d4565b6040516104a99190613d40565b60405180910390f35b3480156104be57600080fd5b506104d960048036038101906104d491906135a7565b611162565b6040516104e69190613c79565b60405180910390f35b3480156104fb57600080fd5b50610504611214565b6040516105119190613d40565b60405180910390f35b34801561052657600080fd5b50610541600480360381019061053c9190613344565b6112a2565b60405161054e9190614162565b60405180910390f35b34801561056357600080fd5b5061056c61135a565b005b34801561057a57600080fd5b506105836113e2565b6040516105909190614162565b60405180910390f35b3480156105a557600080fd5b506105ae6113ee565b6040516105bb9190614162565b60405180910390f35b3480156105d057600080fd5b506105d96113f4565b6040516105e69190614162565b60405180910390f35b3480156105fb57600080fd5b506106046113f9565b6040516106119190613c79565b60405180910390f35b34801561062657600080fd5b50610641600480360381019061063c9190613566565b611423565b005b34801561064f57600080fd5b506106586114b9565b6040516106659190613d40565b60405180910390f35b34801561067a57600080fd5b5061068361154b565b6040516106909190614162565b60405180910390f35b3480156106a557600080fd5b506106c060048036038101906106bb9190613473565b611551565b005b3480156106ce57600080fd5b506106e960048036038101906106e491906133f8565b611567565b005b3480156106f757600080fd5b506107006115c9565b60405161070d9190614162565b60405180910390f35b34801561072257600080fd5b5061073d600480360381019061073891906135a7565b6115cf565b60405161074a9190613d40565b60405180910390f35b34801561075f57600080fd5b506107686116fa565b6040516107759190613ce0565b60405180910390f35b34801561078a57600080fd5b506107a560048036038101906107a0919061336d565b61170d565b6040516107b29190613ce0565b60405180910390f35b3480156107c757600080fd5b506107e260048036038101906107dd91906134eb565b6117a1565b005b3480156107f057600080fd5b5061080b60048036038101906108069190613344565b61183a565b005b610827600480360381019061082291906135d0565b611932565b005b34801561083557600080fd5b50610850600480360381019061084b9190613566565b611bc9565b005b61085a611c5f565b73ffffffffffffffffffffffffffffffffffffffff166108786113f9565b73ffffffffffffffffffffffffffffffffffffffff16146108ce576040517f08c379a00000000000000000000000000000000000000000000000000000000081526004016108c590614002565b60405180910390fd5b600e60029054906101000a900460ff161561091e576040517f08c379a000000000000000000000000000000000000000000000000000000000815260040161091590613e62565b60405180910390fd5b60095461093e60646109306010611c67565b611c7590919063ffffffff16565b111561097f576040517f08c379a000000000000000000000000000000000000000000000000000000000815260040161097690613f82565b60405180910390fd5b60005b60648110156109cc5760006109976010611c67565b90506009548110156109b8576109ad6010611c8b565b6109b73382611ca1565b5b5080806109c4906144a1565b915050610982565b506001600e60026101000a81548160ff021916908315150217905550565b60007f80ac58cd000000000000000000000000000000000000000000000000000000007bffffffffffffffffffffffffffffffffffffffffffffffffffffffff1916827bffffffffffffffffffffffffffffffffffffffffffffffffffffffff19161480610ab557507f5b5e139f000000000000000000000000000000000000000000000000000000007bffffffffffffffffffffffffffffffffffffffffffffffffffffffff1916827bffffffffffffffffffffffffffffffffffffffffffffffffffffffff1916145b80610ac55750610ac482611cbf565b5b9050919050565b66f8b0a10e47000081565b606060008054610ae69061443e565b80601f0160208091040260200160405190810160405280929190818152602001828054610b129061443e565b8015610b5f5780601f10610b3457610100808354040283529160200191610b5f565b820191906000526020600020905b815481529060010190602001808311610b4257829003601f168201915b5050505050905090565b6000610b7482611d29565b610bb3576040517f08c379a0000000000000000000000000000000000000000000000000000000008152600401610baa90613fe2565b60405180910390fd5b6004600083815260200190815260200160002060009054906101000a900473ffffffffffffffffffffffffffffffffffffffff169050919050565b6000610bf982611162565b90508073ffffffffffffffffffffffffffffffffffffffff168373ffffffffffffffffffffffffffffffffffffffff161415610c6a576040517f08c379a0000000000000000000000000000000000000000000000000000000008152600401610c6190614082565b60405180910390fd5b8073ffffffffffffffffffffffffffffffffffffffff16610c89611c5f565b73ffffffffffffffffffffffffffffffffffffffff161480610cb85750610cb781610cb2611c5f565b61170d565b5b610cf7576040517f08c379a0000000000000000000000000000000000000000000000000000000008152600401610cee90613f22565b60405180910390fd5b610d018383611d95565b505050565b610d0e611c5f565b73ffffffffffffffffffffffffffffffffffffffff16610d2c6113f9565b73ffffffffffffffffffffffffffffffffffffffff1614610d82576040517f08c379a0000000000000000000000000000000000000000000000000000000008152600401610d7990614002565b60405180910390fd5b8060089080519060200190610d9892919061311e565b5050565b610dad610da7611c5f565b82611e4e565b610dec576040517f08c379a0000000000000000000000000000000000000000000000000000000008152600401610de3906140c2565b60405180910390fd5b610df7838383611f2c565b505050565b600e60019054906101000a900460ff1681565b600e60019054906101000a900460ff16610e5e576040517f08c379a0000000000000000000000000000000000000000000000000000000008152600401610e5590614062565b60405180910390fd5b600a54811115610ea3576040517f08c379a0000000000000000000000000000000000000000000000000000000008152600401610e9a906140a2565b60405180910390fd5b610eac81612193565b50565b610eb7611c5f565b73ffffffffffffffffffffffffffffffffffffffff16610ed56113f9565b73ffffffffffffffffffffffffffffffffffffffff1614610f2b576040517f08c379a0000000000000000000000000000000000000000000000000000000008152600401610f2290614002565b60405180910390fd5b60004790503373ffffffffffffffffffffffffffffffffffffffff166108fc829081150290604051600060405180830381858888f19350505050158015610f76573d6000803e3d6000fd5b5050565b610f82611c5f565b73ffffffffffffffffffffffffffffffffffffffff16610fa06113f9565b73ffffffffffffffffffffffffffffffffffffffff1614610ff6576040517f08c379a0000000000000000000000000000000000000000000000000000000008152600401610fed90614002565b60405180910390fd5b80600e60006101000a81548160ff02191690831515021790555050565b61102e83838360405180602001604052806000815250611567565b505050565b600c80546110409061443e565b80601f016020809104026020016040519081016040528092919081815260200182805461106c9061443e565b80156110b95780601f1061108e576101008083540402835291602001916110b9565b820191906000526020600020905b81548152906001019060200180831161109c57829003601f168201915b505050505081565b600e60009054906101000a900460ff1681565b600880546110e19061443e565b80601f016020809104026020016040519081016040528092919081815260200182805461110d9061443e565b801561115a5780601f1061112f5761010080835404028352916020019161115a565b820191906000526020600020905b81548152906001019060200180831161113d57829003601f168201915b505050505081565b6000806002600084815260200190815260200160002060009054906101000a900473ffffffffffffffffffffffffffffffffffffffff169050600073ffffffffffffffffffffffffffffffffffffffff168173ffffffffffffffffffffffffffffffffffffffff16141561120b576040517f08c379a000000000000000000000000000000000000000000000000000000000815260040161120290613f62565b60405180910390fd5b80915050919050565b600d80546112219061443e565b80601f016020809104026020016040519081016040528092919081815260200182805461124d9061443e565b801561129a5780601f1061126f5761010080835404028352916020019161129a565b820191906000526020600020905b81548152906001019060200180831161127d57829003601f168201915b505050505081565b60008073ffffffffffffffffffffffffffffffffffffffff168273ffffffffffffffffffffffffffffffffffffffff161415611313576040517f08c379a000000000000000000000000000000000000000000000000000000000815260040161130a90613f42565b60405180910390fd5b600360008373ffffffffffffffffffffffffffffffffffffffff1673ffffffffffffffffffffffffffffffffffffffff168152602001908152602001600020549050919050565b611362611c5f565b73ffffffffffffffffffffffffffffffffffffffff166113806113f9565b73ffffffffffffffffffffffffffffffffffffffff16146113d6576040517f08c379a00000000000000000000000000000000000000000000000000000000081526004016113cd90614002565b60405180910390fd5b6113e060006122e2565b565b60108060000154905081565b600a5481565b606481565b6000600660009054906101000a900473ffffffffffffffffffffffffffffffffffffffff16905090565b61142b611c5f565b73ffffffffffffffffffffffffffffffffffffffff166114496113f9565b73ffffffffffffffffffffffffffffffffffffffff161461149f576040517f08c379a000000000000000000000000000000000000000000000000000000000815260040161149690614002565b60405180910390fd5b80600c90805190602001906114b592919061311e565b5050565b6060600180546114c89061443e565b80601f01602080910402602001604051908101604052809291908181526020018280546114f49061443e565b80156115415780601f1061151657610100808354040283529160200191611541565b820191906000526020600020905b81548152906001019060200180831161152457829003601f168201915b5050505050905090565b600b5481565b61156361155c611c5f565b83836123a8565b5050565b611578611572611c5f565b83611e4e565b6115b7576040517f08c379a00000000000000000000000000000000000000000000000000000000081526004016115ae906140c2565b60405180910390fd5b6115c384848484612515565b50505050565b60095481565b6060600080600c80546115e19061443e565b90501190508061167e57600d80546115f89061443e565b80601f01602080910402602001604051908101604052809291908181526020018280546116249061443e565b80156116715780601f1061164657610100808354040283529160200191611671565b820191906000526020600020905b81548152906001019060200180831161165457829003601f168201915b50505050509150506116f5565b61168783611d29565b6116c6576040517f08c379a00000000000000000000000000000000000000000000000000000000081526004016116bd90614042565b60405180910390fd5b600c6116d184612571565b6040516020016116e2929190613c2f565b6040516020818303038152906040529150505b919050565b600e60029054906101000a900460ff1681565b6000600560008473ffffffffffffffffffffffffffffffffffffffff1673ffffffffffffffffffffffffffffffffffffffff16815260200190815260200160002060008373ffffffffffffffffffffffffffffffffffffffff1673ffffffffffffffffffffffffffffffffffffffff16815260200190815260200160002060009054906101000a900460ff16905092915050565b6117a9611c5f565b73ffffffffffffffffffffffffffffffffffffffff166117c76113f9565b73ffffffffffffffffffffffffffffffffffffffff161461181d576040517f08c379a000000000000000000000000000000000000000000000000000000000815260040161181490614002565b60405180910390fd5b80600e60016101000a81548160ff02191690831515021790555050565b611842611c5f565b73ffffffffffffffffffffffffffffffffffffffff166118606113f9565b73ffffffffffffffffffffffffffffffffffffffff16146118b6576040517f08c379a00000000000000000000000000000000000000000000000000000000081526004016118ad90614002565b60405180910390fd5b600073ffffffffffffffffffffffffffffffffffffffff168173ffffffffffffffffffffffffffffffffffffffff161415611926576040517f08c379a000000000000000000000000000000000000000000000000000000000815260040161191d90613e02565b60405180910390fd5b61192f816122e2565b50565b60026007541415611978576040517f08c379a000000000000000000000000000000000000000000000000000000000815260040161196f90614122565b60405180910390fd5b60026007819055506119f4336040516020016119949190613c79565b6040516020818303038152906040528051906020012083838080601f016020809104026020016040519081016040528093929190818152602001838380828437600081840152601f19601f8201169050808301925050505050505061271e565b611a33576040517f08c379a0000000000000000000000000000000000000000000000000000000008152600401611a2a90614102565b60405180910390fd5b600e60009054906101000a900460ff16611a82576040517f08c379a0000000000000000000000000000000000000000000000000000000008152600401611a79906140e2565b60405180910390fd5b600b54831115611ac7576040517f08c379a0000000000000000000000000000000000000000000000000000000008152600401611abe90614022565b60405180910390fd5b600b54611b1c84600f60003373ffffffffffffffffffffffffffffffffffffffff1673ffffffffffffffffffffffffffffffffffffffff16815260200190815260200160002054611c7590919063ffffffff16565b1115611b5d576040517f08c379a0000000000000000000000000000000000000000000000000000000008152600401611b5490613de2565b60405180910390fd5b82600f60003373ffffffffffffffffffffffffffffffffffffffff1673ffffffffffffffffffffffffffffffffffffffff1681526020019081526020016000206000828254611bac919061425c565b92505081905550611bbc83612193565b6001600781905550505050565b611bd1611c5f565b73ffffffffffffffffffffffffffffffffffffffff16611bef6113f9565b73ffffffffffffffffffffffffffffffffffffffff1614611c45576040517f08c379a0000000000000000000000000000000000000000000000000000000008152600401611c3c90614002565b60405180910390fd5b80600d9080519060200190611c5b92919061311e565b5050565b600033905090565b600081600001549050919050565b60008183611c83919061425c565b905092915050565b6001816000016000828254019250508190555050565b611cbb828260405180602001604052806000815250612778565b5050565b60007f01ffc9a7000000000000000000000000000000000000000000000000000000007bffffffffffffffffffffffffffffffffffffffffffffffffffffffff1916827bffffffffffffffffffffffffffffffffffffffffffffffffffffffff1916149050919050565b60008073ffffffffffffffffffffffffffffffffffffffff166002600084815260200190815260200160002060009054906101000a900473ffffffffffffffffffffffffffffffffffffffff1673ffffffffffffffffffffffffffffffffffffffff1614159050919050565b816004600083815260200190815260200160002060006101000a81548173ffffffffffffffffffffffffffffffffffffffff021916908373ffffffffffffffffffffffffffffffffffffffff160217905550808273ffffffffffffffffffffffffffffffffffffffff16611e0883611162565b73ffffffffffffffffffffffffffffffffffffffff167f8c5be1e5ebec7d5bd14f71427d1e84f3dd0314c0f7b2291e5b200ac8c7c3b92560405160405180910390a45050565b6000611e5982611d29565b611e98576040517f08c379a0000000000000000000000000000000000000000000000000000000008152600401611e8f90613f02565b60405180910390fd5b6000611ea383611162565b90508073ffffffffffffffffffffffffffffffffffffffff168473ffffffffffffffffffffffffffffffffffffffff161480611f1257508373ffffffffffffffffffffffffffffffffffffffff16611efa84610b69565b73ffffffffffffffffffffffffffffffffffffffff16145b80611f235750611f22818561170d565b5b91505092915050565b8273ffffffffffffffffffffffffffffffffffffffff16611f4c82611162565b73ffffffffffffffffffffffffffffffffffffffff1614611fa2576040517f08c379a0000000000000000000000000000000000000000000000000000000008152600401611f9990613e22565b60405180910390fd5b600073ffffffffffffffffffffffffffffffffffffffff168273ffffffffffffffffffffffffffffffffffffffff161415612012576040517f08c379a000000000000000000000000000000000000000000000000000000000815260040161200990613e82565b60405180910390fd5b61201d8383836127d3565b612028600082611d95565b6001600360008573ffffffffffffffffffffffffffffffffffffffff1673ffffffffffffffffffffffffffffffffffffffff1681526020019081526020016000206000828254612078919061433d565b925050819055506001600360008473ffffffffffffffffffffffffffffffffffffffff1673ffffffffffffffffffffffffffffffffffffffff16815260200190815260200160002060008282546120cf919061425c565b92505081905550816002600083815260200190815260200160002060006101000a81548173ffffffffffffffffffffffffffffffffffffffff021916908373ffffffffffffffffffffffffffffffffffffffff160217905550808273ffffffffffffffffffffffffffffffffffffffff168473ffffffffffffffffffffffffffffffffffffffff167fddf252ad1be2c89b69c2b068fc378daa952ba7f163c4a11628f55a4df523b3ef60405160405180910390a461218e8383836127d8565b505050565b600081116121d6576040517f08c379a00000000000000000000000000000000000000000000000000000000081526004016121cd90613ec2565b60405180910390fd5b6009546121f5826121e76010611c67565b611c7590919063ffffffff16565b1115612236576040517f08c379a000000000000000000000000000000000000000000000000000000000815260040161222d90613d82565b60405180910390fd5b6122508166f8b0a10e4700006127dd90919063ffffffff16565b341015612292576040517f08c379a000000000000000000000000000000000000000000000000000000000815260040161228990614142565b60405180910390fd5b60005b818110156122de5760006122a96010611c67565b90506009548110156122ca576122bf6010611c8b565b6122c93382611ca1565b5b5080806122d6906144a1565b915050612295565b5050565b6000600660009054906101000a900473ffffffffffffffffffffffffffffffffffffffff16905081600660006101000a81548173ffffffffffffffffffffffffffffffffffffffff021916908373ffffffffffffffffffffffffffffffffffffffff1602179055508173ffffffffffffffffffffffffffffffffffffffff168173ffffffffffffffffffffffffffffffffffffffff167f8be0079c531659141344cd1fd0a4f28419497f9722a3daafe3b4186f6b6457e060405160405180910390a35050565b8173ffffffffffffffffffffffffffffffffffffffff168373ffffffffffffffffffffffffffffffffffffffff161415612417576040517f08c379a000000000000000000000000000000000000000000000000000000000815260040161240e90613ea2565b60405180910390fd5b80600560008573ffffffffffffffffffffffffffffffffffffffff1673ffffffffffffffffffffffffffffffffffffffff16815260200190815260200160002060008473ffffffffffffffffffffffffffffffffffffffff1673ffffffffffffffffffffffffffffffffffffffff16815260200190815260200160002060006101000a81548160ff0219169083151502179055508173ffffffffffffffffffffffffffffffffffffffff168373ffffffffffffffffffffffffffffffffffffffff167f17307eab39ab6107e8899845ad3d59bd9653f200f220920489ca2b5937696c31836040516125089190613ce0565b60405180910390a3505050565b612520848484611f2c565b61252c848484846127f3565b61256b576040517f08c379a000000000000000000000000000000000000000000000000000000000815260040161256290613dc2565b60405180910390fd5b50505050565b606060008214156125b9576040518060400160405280600181526020017f30000000000000000000000000000000000000000000000000000000000000008152509050612719565b600082905060005b600082146125eb5780806125d4906144a1565b915050600a826125e491906142b2565b91506125c1565b60008167ffffffffffffffff81111561262d577f4e487b7100000000000000000000000000000000000000000000000000000000600052604160045260246000fd5b6040519080825280601f01601f19166020018201604052801561265f5781602001600182028036833780820191505090505b5090505b6000851461271257600182612678919061433d565b9150600a8561268791906144f4565b6030612693919061425c565b60f81b8183815181106126cf577f4e487b7100000000000000000000000000000000000000000000000000000000600052603260045260246000fd5b60200101907effffffffffffffffffffffffffffffffffffffffffffffffffffffffffffff1916908160001a905350600a8561270b91906142b2565b9450612663565b8093505050505b919050565b60006127286113f9565b73ffffffffffffffffffffffffffffffffffffffff166127598361274b8661298a565b6129ba90919063ffffffff16565b73ffffffffffffffffffffffffffffffffffffffff1614905092915050565b61278283836129e1565b61278f60008484846127f3565b6127ce576040517f08c379a00000000000000000000000000000000000000000000000000000000081526004016127c590613dc2565b60405180910390fd5b505050565b505050565b505050565b600081836127eb91906142e3565b905092915050565b60006128148473ffffffffffffffffffffffffffffffffffffffff16612bbb565b1561297d578373ffffffffffffffffffffffffffffffffffffffff1663150b7a0261283d611c5f565b8786866040518563ffffffff1660e01b815260040161285f9493929190613c94565b602060405180830381600087803b15801561287957600080fd5b505af19250505080156128aa57506040513d601f19601f820116820180604052508101906128a7919061353d565b60015b61292d573d80600081146128da576040519150601f19603f3d011682016040523d82523d6000602084013e6128df565b606091505b50600081511415612925576040517f08c379a000000000000000000000000000000000000000000000000000000000815260040161291c90613dc2565b60405180910390fd5b805181602001fd5b63150b7a0260e01b7bffffffffffffffffffffffffffffffffffffffffffffffffffffffff1916817bffffffffffffffffffffffffffffffffffffffffffffffffffffffff191614915050612982565b600190505b949350505050565b60008160405160200161299d9190613c53565b604051602081830303815290604052805190602001209050919050565b60008060006129c98585612bde565b915091506129d681612c61565b819250505092915050565b600073ffffffffffffffffffffffffffffffffffffffff168273ffffffffffffffffffffffffffffffffffffffff161415612a51576040517f08c379a0000000000000000000000000000000000000000000000000000000008152600401612a4890613fc2565b60405180910390fd5b612a5a81611d29565b15612a9a576040517f08c379a0000000000000000000000000000000000000000000000000000000008152600401612a9190613e42565b60405180910390fd5b612aa6600083836127d3565b6001600360008473ffffffffffffffffffffffffffffffffffffffff1673ffffffffffffffffffffffffffffffffffffffff1681526020019081526020016000206000828254612af6919061425c565b92505081905550816002600083815260200190815260200160002060006101000a81548173ffffffffffffffffffffffffffffffffffffffff021916908373ffffffffffffffffffffffffffffffffffffffff160217905550808273ffffffffffffffffffffffffffffffffffffffff16600073ffffffffffffffffffffffffffffffffffffffff167fddf252ad1be2c89b69c2b068fc378daa952ba7f163c4a11628f55a4df523b3ef60405160405180910390a4612bb7600083836127d8565b5050565b6000808273ffffffffffffffffffffffffffffffffffffffff163b119050919050565b600080604183511415612c205760008060006020860151925060408601519150606086015160001a9050612c1487828585612fb2565b94509450505050612c5a565b604083511415612c51576000806020850151915060408501519050612c468683836130bf565b935093505050612c5a565b60006002915091505b9250929050565b60006004811115612c9b577f4e487b7100000000000000000000000000000000000000000000000000000000600052602160045260246000fd5b816004811115612cd4577f4e487b7100000000000000000000000000000000000000000000000000000000600052602160045260246000fd5b1415612cdf57612faf565b60016004811115612d19577f4e487b7100000000000000000000000000000000000000000000000000000000600052602160045260246000fd5b816004811115612d52577f4e487b7100000000000000000000000000000000000000000000000000000000600052602160045260246000fd5b1415612d93576040517f08c379a0000000000000000000000000000000000000000000000000000000008152600401612d8a90613d62565b60405180910390fd5b60026004811115612dcd577f4e487b7100000000000000000000000000000000000000000000000000000000600052602160045260246000fd5b816004811115612e06577f4e487b7100000000000000000000000000000000000000000000000000000000600052602160045260246000fd5b1415612e47576040517f08c379a0000000000000000000000000000000000000000000000000000000008152600401612e3e90613da2565b60405180910390fd5b60036004811115612e81577f4e487b7100000000000000000000000000000000000000000000000000000000600052602160045260246000fd5b816004811115612eba577f4e487b7100000000000000000000000000000000000000000000000000000000600052602160045260246000fd5b1415612efb576040517f08c379a0000000000000000000000000000000000000000000000000000000008152600401612ef290613ee2565b60405180910390fd5b600480811115612f34577f4e487b7100000000000000000000000000000000000000000000000000000000600052602160045260246000fd5b816004811115612f6d577f4e487b7100000000000000000000000000000000000000000000000000000000600052602160045260246000fd5b1415612fae576040517f08c379a0000000000000000000000000000000000000000000000000000000008152600401612fa590613fa2565b60405180910390fd5b5b50565b6000807f7fffffffffffffffffffffffffffffff5d576e7357a4501ddfe92f46681b20a08360001c1115612fed5760006003915091506130b6565b601b8560ff16141580156130055750601c8560ff1614155b156130175760006004915091506130b6565b60006001878787876040516000815260200160405260405161303c9493929190613cfb565b6020604051602081039080840390855afa15801561305e573d6000803e3d6000fd5b505050602060405103519050600073ffffffffffffffffffffffffffffffffffffffff168173ffffffffffffffffffffffffffffffffffffffff1614156130ad576000600192509250506130b6565b80600092509250505b94509492505050565b60008060007f7fffffffffffffffffffffffffffffffffffffffffffffffffffffffffffffff60001b841690506000601b60ff8660001c901c613102919061425c565b905061311087828885612fb2565b935093505050935093915050565b82805461312a9061443e565b90600052602060002090601f01602090048101928261314c5760008555613193565b82601f1061316557805160ff1916838001178555613193565b82800160010185558215613193579182015b82811115613192578251825591602001919060010190613177565b5b5090506131a091906131a4565b5090565b5b808211156131bd5760008160009055506001016131a5565b5090565b60006131d46131cf846141a2565b61417d565b9050828152602081018484840111156131ec57600080fd5b6131f78482856143fc565b509392505050565b600061321261320d846141d3565b61417d565b90508281526020810184848401111561322a57600080fd5b6132358482856143fc565b509392505050565b60008135905061324c81614ea5565b92915050565b60008135905061326181614ebc565b92915050565b60008135905061327681614ed3565b92915050565b60008151905061328b81614ed3565b92915050565b60008083601f8401126132a357600080fd5b8235905067ffffffffffffffff8111156132bc57600080fd5b6020830191508360018202830111156132d457600080fd5b9250929050565b600082601f8301126132ec57600080fd5b81356132fc8482602086016131c1565b91505092915050565b600082601f83011261331657600080fd5b81356133268482602086016131ff565b91505092915050565b60008135905061333e81614eea565b92915050565b60006020828403121561335657600080fd5b60006133648482850161323d565b91505092915050565b6000806040838503121561338057600080fd5b600061338e8582860161323d565b925050602061339f8582860161323d565b9150509250929050565b6000806000606084860312156133be57600080fd5b60006133cc8682870161323d565b93505060206133dd8682870161323d565b92505060406133ee8682870161332f565b9150509250925092565b6000806000806080858703121561340e57600080fd5b600061341c8782880161323d565b945050602061342d8782880161323d565b935050604061343e8782880161332f565b925050606085013567ffffffffffffffff81111561345b57600080fd5b613467878288016132db565b91505092959194509250565b6000806040838503121561348657600080fd5b60006134948582860161323d565b92505060206134a585828601613252565b9150509250929050565b600080604083850312156134c257600080fd5b60006134d08582860161323d565b92505060206134e18582860161332f565b9150509250929050565b6000602082840312156134fd57600080fd5b600061350b84828501613252565b91505092915050565b60006020828403121561352657600080fd5b600061353484828501613267565b91505092915050565b60006020828403121561354f57600080fd5b600061355d8482850161327c565b91505092915050565b60006020828403121561357857600080fd5b600082013567ffffffffffffffff81111561359257600080fd5b61359e84828501613305565b91505092915050565b6000602082840312156135b957600080fd5b60006135c78482850161332f565b91505092915050565b6000806000604084860312156135e557600080fd5b60006135f38682870161332f565b935050602084013567ffffffffffffffff81111561361057600080fd5b61361c86828701613291565b92509250509250925092565b61363181614371565b82525050565b61364081614383565b82525050565b61364f8161438f565b82525050565b6136666136618261438f565b6144ea565b82525050565b600061367782614219565b613681818561422f565b935061369181856020860161440b565b61369a816145e1565b840191505092915050565b60006136b082614224565b6136ba8185614240565b93506136ca81856020860161440b565b6136d3816145e1565b840191505092915050565b60006136e982614224565b6136f38185614251565b935061370381856020860161440b565b80840191505092915050565b6000815461371c8161443e565b6137268186614251565b94506001821660008114613741576001811461375257613785565b60ff19831686528186019350613785565b61375b85614204565b60005b8381101561377d5781548189015260018201915060208101905061375e565b838801955050505b50505092915050565b600061379b601883614240565b91506137a6826145f2565b602082019050919050565b60006137be603283614240565b91506137c98261461b565b604082019050919050565b60006137e1601f83614240565b91506137ec8261466a565b602082019050919050565b6000613804601c83614251565b915061380f82614693565b601c82019050919050565b6000613827603283614240565b9150613832826146bc565b604082019050919050565b600061384a605783614240565b91506138558261470b565b606082019050919050565b600061386d602683614240565b915061387882614780565b604082019050919050565b6000613890602583614240565b915061389b826147cf565b604082019050919050565b60006138b3601c83614240565b91506138be8261481e565b602082019050919050565b60006138d6602283614240565b91506138e182614847565b604082019050919050565b60006138f9602483614240565b915061390482614896565b604082019050919050565b600061391c601983614240565b9150613927826148e5565b602082019050919050565b600061393f602183614240565b915061394a8261490e565b604082019050919050565b6000613962602283614240565b915061396d8261495d565b604082019050919050565b6000613985602c83614240565b9150613990826149ac565b604082019050919050565b60006139a8603883614240565b91506139b3826149fb565b604082019050919050565b60006139cb602a83614240565b91506139d682614a4a565b604082019050919050565b60006139ee602983614240565b91506139f982614a99565b604082019050919050565b6000613a11602e83614240565b9150613a1c82614ae8565b604082019050919050565b6000613a34602283614240565b9150613a3f82614b37565b604082019050919050565b6000613a57602083614240565b9150613a6282614b86565b602082019050919050565b6000613a7a602c83614240565b9150613a8582614baf565b604082019050919050565b6000613a9d602083614240565b9150613aa882614bfe565b602082019050919050565b6000613ac0602c83614240565b9150613acb82614c27565b604082019050919050565b6000613ae3602f83614240565b9150613aee82614c76565b604082019050919050565b6000613b06601383614240565b9150613b1182614cc5565b602082019050919050565b6000613b29602183614240565b9150613b3482614cee565b604082019050919050565b6000613b4c602e83614240565b9150613b5782614d3d565b604082019050919050565b6000613b6f603183614240565b9150613b7a82614d8c565b604082019050919050565b6000613b92601583614240565b9150613b9d82614ddb565b602082019050919050565b6000613bb5601b83614240565b9150613bc082614e04565b602082019050919050565b6000613bd8601f83614240565b9150613be382614e2d565b602082019050919050565b6000613bfb602383614240565b9150613c0682614e56565b604082019050919050565b613c1a816143e5565b82525050565b613c29816143ef565b82525050565b6000613c3b828561370f565b9150613c4782846136de565b91508190509392505050565b6000613c5e826137f7565b9150613c6a8284613655565b60208201915081905092915050565b6000602082019050613c8e6000830184613628565b92915050565b6000608082019050613ca96000830187613628565b613cb66020830186613628565b613cc36040830185613c11565b8181036060830152613cd5818461366c565b905095945050505050565b6000602082019050613cf56000830184613637565b92915050565b6000608082019050613d106000830187613646565b613d1d6020830186613c20565b613d2a6040830185613646565b613d376060830184613646565b95945050505050565b60006020820190508181036000830152613d5a81846136a5565b905092915050565b60006020820190508181036000830152613d7b8161378e565b9050919050565b60006020820190508181036000830152613d9b816137b1565b9050919050565b60006020820190508181036000830152613dbb816137d4565b9050919050565b60006020820190508181036000830152613ddb8161381a565b9050919050565b60006020820190508181036000830152613dfb8161383d565b9050919050565b60006020820190508181036000830152613e1b81613860565b9050919050565b60006020820190508181036000830152613e3b81613883565b9050919050565b60006020820190508181036000830152613e5b816138a6565b9050919050565b60006020820190508181036000830152613e7b816138c9565b9050919050565b60006020820190508181036000830152613e9b816138ec565b9050919050565b60006020820190508181036000830152613ebb8161390f565b9050919050565b60006020820190508181036000830152613edb81613932565b9050919050565b60006020820190508181036000830152613efb81613955565b9050919050565b60006020820190508181036000830152613f1b81613978565b9050919050565b60006020820190508181036000830152613f3b8161399b565b9050919050565b60006020820190508181036000830152613f5b816139be565b9050919050565b60006020820190508181036000830152613f7b816139e1565b9050919050565b60006020820190508181036000830152613f9b81613a04565b9050919050565b60006020820190508181036000830152613fbb81613a27565b9050919050565b60006020820190508181036000830152613fdb81613a4a565b9050919050565b60006020820190508181036000830152613ffb81613a6d565b9050919050565b6000602082019050818103600083015261401b81613a90565b9050919050565b6000602082019050818103600083015261403b81613ab3565b9050919050565b6000602082019050818103600083015261405b81613ad6565b9050919050565b6000602082019050818103600083015261407b81613af9565b9050919050565b6000602082019050818103600083015261409b81613b1c565b9050919050565b600060208201905081810360008301526140bb81613b3f565b9050919050565b600060208201905081810360008301526140db81613b62565b9050919050565b600060208201905081810360008301526140fb81613b85565b9050919050565b6000602082019050818103600083015261411b81613ba8565b9050919050565b6000602082019050818103600083015261413b81613bcb565b9050919050565b6000602082019050818103600083015261415b81613bee565b9050919050565b60006020820190506141776000830184613c11565b92915050565b6000614187614198565b90506141938282614470565b919050565b6000604051905090565b600067ffffffffffffffff8211156141bd576141bc6145b2565b5b6141c6826145e1565b9050602081019050919050565b600067ffffffffffffffff8211156141ee576141ed6145b2565b5b6141f7826145e1565b9050602081019050919050565b60008190508160005260206000209050919050565b600081519050919050565b600081519050919050565b600082825260208201905092915050565b600082825260208201905092915050565b600081905092915050565b6000614267826143e5565b9150614272836143e5565b9250827fffffffffffffffffffffffffffffffffffffffffffffffffffffffffffffffff038211156142a7576142a6614525565b5b828201905092915050565b60006142bd826143e5565b91506142c8836143e5565b9250826142d8576142d7614554565b5b828204905092915050565b60006142ee826143e5565b91506142f9836143e5565b9250817fffffffffffffffffffffffffffffffffffffffffffffffffffffffffffffffff048311821515161561433257614331614525565b5b828202905092915050565b6000614348826143e5565b9150614353836143e5565b92508282101561436657614365614525565b5b828203905092915050565b600061437c826143c5565b9050919050565b60008115159050919050565b6000819050919050565b60007fffffffff0000000000000000000000000000000000000000000000000000000082169050919050565b600073ffffffffffffffffffffffffffffffffffffffff82169050919050565b6000819050919050565b600060ff82169050919050565b82818337600083830152505050565b60005b8381101561442957808201518184015260208101905061440e565b83811115614438576000848401525b50505050565b6000600282049050600182168061445657607f821691505b6020821081141561446a57614469614583565b5b50919050565b614479826145e1565b810181811067ffffffffffffffff82111715614498576144976145b2565b5b80604052505050565b60006144ac826143e5565b91507fffffffffffffffffffffffffffffffffffffffffffffffffffffffffffffffff8214156144df576144de614525565b5b600182019050919050565b6000819050919050565b60006144ff826143e5565b915061450a836143e5565b92508261451a57614519614554565b5b828206905092915050565b7f4e487b7100000000000000000000000000000000000000000000000000000000600052601160045260246000fd5b7f4e487b7100000000000000000000000000000000000000000000000000000000600052601260045260246000fd5b7f4e487b7100000000000000000000000000000000000000000000000000000000600052602260045260246000fd5b7f4e487b7100000000000000000000000000000000000000000000000000000000600052604160045260246000fd5b6000601f19601f8301169050919050565b7f45434453413a20696e76616c6964207369676e61747572650000000000000000600082015250565b7f5468697320707572636861736520776f756c6420657863656564206d6178207360008201527f7570706c79206f66204772617920426f79730000000000000000000000000000602082015250565b7f45434453413a20696e76616c6964207369676e6174757265206c656e67746800600082015250565b7f19457468657265756d205369676e6564204d6573736167653a0a333200000000600082015250565b7f4552433732313a207472616e7366657220746f206e6f6e20455243373231526560008201527f63656976657220696d706c656d656e7465720000000000000000000000000000602082015250565b7f5468697320707572636861736520776f756c642065786365656420746865206d60008201527f6178696d756d204772617920426f797320796f752061726520616c6c6f77656460208201527f20746f206d696e7420696e207468652070726573616c65000000000000000000604082015250565b7f4f776e61626c653a206e6577206f776e657220697320746865207a65726f206160008201527f6464726573730000000000000000000000000000000000000000000000000000602082015250565b7f4552433732313a207472616e736665722066726f6d20696e636f72726563742060008201527f6f776e6572000000000000000000000000000000000000000000000000000000602082015250565b7f4552433732313a20746f6b656e20616c7265616479206d696e74656400000000600082015250565b7f5265736572766573206861766520616c7265616479206265656e206d696e746560008201527f642e000000000000000000000000000000000000000000000000000000000000602082015250565b7f4552433732313a207472616e7366657220746f20746865207a65726f2061646460008201527f7265737300000000000000000000000000000000000000000000000000000000602082015250565b7f4552433732313a20617070726f766520746f2063616c6c657200000000000000600082015250565b7f596f75206d757374206d696e74206174206c656173742031206772617920626f60008201527f7900000000000000000000000000000000000000000000000000000000000000602082015250565b7f45434453413a20696e76616c6964207369676e6174757265202773272076616c60008201527f7565000000000000000000000000000000000000000000000000000000000000602082015250565b7f4552433732313a206f70657261746f7220717565727920666f72206e6f6e657860008201527f697374656e7420746f6b656e0000000000000000000000000000000000000000602082015250565b7f4552433732313a20617070726f76652063616c6c6572206973206e6f74206f7760008201527f6e6572206e6f7220617070726f76656420666f7220616c6c0000000000000000602082015250565b7f4552433732313a2062616c616e636520717565727920666f7220746865207a6560008201527f726f206164647265737300000000000000000000000000000000000000000000602082015250565b7f4552433732313a206f776e657220717565727920666f72206e6f6e657869737460008201527f656e7420746f6b656e0000000000000000000000000000000000000000000000602082015250565b7f54686973206d696e7420776f756c6420657863656564206d617820737570706c60008201527f79206f66204772617920426f7973000000000000000000000000000000000000602082015250565b7f45434453413a20696e76616c6964207369676e6174757265202776272076616c60008201527f7565000000000000000000000000000000000000000000000000000000000000602082015250565b7f4552433732313a206d696e7420746f20746865207a65726f2061646472657373600082015250565b7f4552433732313a20617070726f76656420717565727920666f72206e6f6e657860008201527f697374656e7420746f6b656e0000000000000000000000000000000000000000602082015250565b7f4f776e61626c653a2063616c6c6572206973206e6f7420746865206f776e6572600082015250565b7f596f752063616e206f6e6c79206d696e742061206d6178696d756d206f66203360008201527f20666f722070726573616c650000000000000000000000000000000000000000602082015250565b7f4552433732314d657461646174613a2055524920717565727920666f72206e6f60008201527f6e6578697374656e7420746f6b656e0000000000000000000000000000000000602082015250565b7f53616c65206973206e6f74206163746976652e00000000000000000000000000600082015250565b7f4552433732313a20617070726f76616c20746f2063757272656e74206f776e6560008201527f7200000000000000000000000000000000000000000000000000000000000000602082015250565b7f5175616e74697479206973206d6f7265207468616e20616c6c6f77656420706560008201527f72207472616e73616374696f6e2e000000000000000000000000000000000000602082015250565b7f4552433732313a207472616e736665722063616c6c6572206973206e6f74206f60008201527f776e6572206e6f7220617070726f766564000000000000000000000000000000602082015250565b7f50726573616c65206973206e6f74206163746976650000000000000000000000600082015250565b7f496e76616c69642077686974656c697374207369676e61747572650000000000600082015250565b7f5265656e7472616e637947756172643a207265656e7472616e742063616c6c00600082015250565b7f5468652065746865722076616c75652073656e74206973206e6f7420636f727260008201527f6563740000000000000000000000000000000000000000000000000000000000602082015250565b614eae81614371565b8114614eb957600080fd5b50565b614ec581614383565b8114614ed057600080fd5b50565b614edc81614399565b8114614ee757600080fd5b50565b614ef3816143e5565b8114614efe57600080fd5b5056fea2646970667358221220b1487b7819ac2203ae4073f83d12ec500446f0ef93b852f4ffbb53791d63d78464736f6c63430008010033",
  "linkReferences": {},
  "deployedLinkReferences": {}
}